{
	"contracts/Lottery.sol": {
		"Lottery": {
			"abi": [
				{
					"inputs": [],
					"stateMutability": "nonpayable",
					"type": "constructor"
				},
				{
					"inputs": [],
					"name": "enter",
					"outputs": [],
					"stateMutability": "payable",
					"type": "function"
				},
				{
					"inputs": [],
					"name": "getBalance",
					"outputs": [
						{
							"internalType": "uint256",
							"name": "",
							"type": "uint256"
						}
					],
					"stateMutability": "view",
					"type": "function"
				},
				{
					"inputs": [],
					"name": "getPlayers",
					"outputs": [
						{
							"internalType": "address payable[]",
							"name": "",
							"type": "address[]"
						}
					],
					"stateMutability": "view",
					"type": "function"
				},
				{
					"inputs": [],
					"name": "getRandomNumber",
					"outputs": [
						{
							"internalType": "uint256",
							"name": "",
							"type": "uint256"
						}
					],
					"stateMutability": "view",
					"type": "function"
				},
				{
					"inputs": [
						{
							"internalType": "uint256",
							"name": "lotteryId",
							"type": "uint256"
						}
					],
					"name": "getWinnerByLottery",
					"outputs": [
						{
							"internalType": "address payable",
							"name": "",
							"type": "address"
						}
					],
					"stateMutability": "view",
					"type": "function"
				},
				{
					"inputs": [],
					"name": "loterryId",
					"outputs": [
						{
							"internalType": "uint256",
							"name": "",
							"type": "uint256"
						}
					],
					"stateMutability": "view",
					"type": "function"
				},
				{
					"inputs": [
						{
							"internalType": "uint256",
							"name": "",
							"type": "uint256"
						}
					],
					"name": "lotteryHistory",
					"outputs": [
						{
							"internalType": "address payable",
							"name": "",
							"type": "address"
						}
					],
					"stateMutability": "view",
					"type": "function"
				},
				{
					"inputs": [],
					"name": "owner",
					"outputs": [
						{
							"internalType": "address",
							"name": "",
							"type": "address"
						}
					],
					"stateMutability": "view",
					"type": "function"
				},
				{
					"inputs": [],
					"name": "pickWinner",
					"outputs": [],
					"stateMutability": "nonpayable",
					"type": "function"
				},
				{
					"inputs": [
						{
							"internalType": "uint256",
							"name": "",
							"type": "uint256"
						}
					],
					"name": "players",
					"outputs": [
						{
							"internalType": "address payable",
							"name": "",
							"type": "address"
						}
					],
					"stateMutability": "view",
					"type": "function"
				}
			],
			"devdoc": {
				"kind": "dev",
				"methods": {},
				"version": 1
			},
			"evm": {
				"assembly": "    /* \"contracts/Lottery.sol\":74:1461  contract Lottery {... */\n  mstore(0x40, 0x80)\n    /* \"contracts/Lottery.sol\":256:331  constructor() {... */\n  callvalue\n  dup1\n  iszero\n  tag_1\n  jumpi\n  0x00\n  dup1\n  revert\ntag_1:\n  pop\n    /* \"contracts/Lottery.sol\":289:299  msg.sender */\n  caller\n    /* \"contracts/Lottery.sol\":281:286  owner */\n  0x00\n  dup1\n    /* \"contracts/Lottery.sol\":281:299  owner = msg.sender */\n  0x0100\n  exp\n  dup2\n  sload\n  dup2\n  0xffffffffffffffffffffffffffffffffffffffff\n  mul\n  not\n  and\n  swap1\n  dup4\n  0xffffffffffffffffffffffffffffffffffffffff\n  and\n  mul\n  or\n  swap1\n  sstore\n  pop\n    /* \"contracts/Lottery.sol\":322:323  1 */\n  0x01\n    /* \"contracts/Lottery.sol\":310:319  loterryId */\n  0x02\n    /* \"contracts/Lottery.sol\":310:323  loterryId = 1 */\n  dup2\n  swap1\n  sstore\n  pop\n    /* \"contracts/Lottery.sol\":74:1461  contract Lottery {... */\n  dataSize(sub_0)\n  dup1\n  dataOffset(sub_0)\n  0x00\n  codecopy\n  0x00\n  return\nstop\n\nsub_0: assembly {\n        /* \"contracts/Lottery.sol\":74:1461  contract Lottery {... */\n      mstore(0x40, 0x80)\n      jumpi(tag_1, lt(calldatasize, 0x04))\n      shr(0xe0, calldataload(0x00))\n      dup1\n      0x8da5cb5b\n      gt\n      tag_12\n      jumpi\n      dup1\n      0x8da5cb5b\n      eq\n      tag_7\n      jumpi\n      dup1\n      0xa32673d5\n      eq\n      tag_8\n      jumpi\n      dup1\n      0xdbdff2c1\n      eq\n      tag_9\n      jumpi\n      dup1\n      0xe97dcb62\n      eq\n      tag_10\n      jumpi\n      dup1\n      0xf71d96cb\n      eq\n      tag_11\n      jumpi\n      jump(tag_1)\n    tag_12:\n      dup1\n      0x12065fe0\n      eq\n      tag_2\n      jumpi\n      dup1\n      0x281d098d\n      eq\n      tag_3\n      jumpi\n      dup1\n      0x5d495aea\n      eq\n      tag_4\n      jumpi\n      dup1\n      0x6d6fe230\n      eq\n      tag_5\n      jumpi\n      dup1\n      0x8b5b9ccc\n      eq\n      tag_6\n      jumpi\n    tag_1:\n      0x00\n      dup1\n      revert\n        /* \"contracts/Lottery.sol\":480:576  function getBalance() public view returns (uint) {... */\n    tag_2:\n      callvalue\n      dup1\n      iszero\n      tag_13\n      jumpi\n      0x00\n      dup1\n      revert\n    tag_13:\n      pop\n      tag_14\n      tag_15\n      jump\t// in\n    tag_14:\n      mload(0x40)\n      tag_16\n      swap2\n      swap1\n      tag_17\n      jump\t// in\n    tag_16:\n      mload(0x40)\n      dup1\n      swap2\n      sub\n      swap1\n      return\n        /* \"contracts/Lottery.sol\":339:472  function getWinnerByLottery(uint lotteryId) public view returns (address payable) {... */\n    tag_3:\n      callvalue\n      dup1\n      iszero\n      tag_18\n      jumpi\n      0x00\n      dup1\n      revert\n    tag_18:\n      pop\n      tag_19\n      0x04\n      dup1\n      calldatasize\n      sub\n      dup2\n      add\n      swap1\n      tag_20\n      swap2\n      swap1\n      tag_21\n      jump\t// in\n    tag_20:\n      tag_22\n      jump\t// in\n    tag_19:\n      mload(0x40)\n      tag_23\n      swap2\n      swap1\n      tag_24\n      jump\t// in\n    tag_23:\n      mload(0x40)\n      dup1\n      swap2\n      sub\n      swap1\n      return\n        /* \"contracts/Lottery.sol\":1022:1370  function pickWinner() public onlyOwner {... */\n    tag_4:\n      callvalue\n      dup1\n      iszero\n      tag_25\n      jumpi\n      0x00\n      dup1\n      revert\n    tag_25:\n      pop\n      tag_26\n      tag_27\n      jump\t// in\n    tag_26:\n      stop\n        /* \"contracts/Lottery.sol\":192:247  mapping (uint => address payable) public lotteryHistory */\n    tag_5:\n      callvalue\n      dup1\n      iszero\n      tag_28\n      jumpi\n      0x00\n      dup1\n      revert\n    tag_28:\n      pop\n      tag_29\n      0x04\n      dup1\n      calldatasize\n      sub\n      dup2\n      add\n      swap1\n      tag_30\n      swap2\n      swap1\n      tag_21\n      jump\t// in\n    tag_30:\n      tag_31\n      jump\t// in\n    tag_29:\n      mload(0x40)\n      tag_32\n      swap2\n      swap1\n      tag_24\n      jump\t// in\n    tag_32:\n      mload(0x40)\n      dup1\n      swap2\n      sub\n      swap1\n      return\n        /* \"contracts/Lottery.sol\":584:686  function getPlayers() public view returns (address payable[] memory) {... */\n    tag_6:\n      callvalue\n      dup1\n      iszero\n      tag_33\n      jumpi\n      0x00\n      dup1\n      revert\n    tag_33:\n      pop\n      tag_34\n      tag_35\n      jump\t// in\n    tag_34:\n      mload(0x40)\n      tag_36\n      swap2\n      swap1\n      tag_37\n      jump\t// in\n    tag_36:\n      mload(0x40)\n      dup1\n      swap2\n      sub\n      swap1\n      return\n        /* \"contracts/Lottery.sol\":98:118  address public owner */\n    tag_7:\n      callvalue\n      dup1\n      iszero\n      tag_38\n      jumpi\n      0x00\n      dup1\n      revert\n    tag_38:\n      pop\n      tag_39\n      tag_40\n      jump\t// in\n    tag_39:\n      mload(0x40)\n      tag_41\n      swap2\n      swap1\n      tag_42\n      jump\t// in\n    tag_41:\n      mload(0x40)\n      dup1\n      swap2\n      sub\n      swap1\n      return\n        /* \"contracts/Lottery.sol\":164:185  uint public loterryId */\n    tag_8:\n      callvalue\n      dup1\n      iszero\n      tag_43\n      jumpi\n      0x00\n      dup1\n      revert\n    tag_43:\n      pop\n      tag_44\n      tag_45\n      jump\t// in\n    tag_44:\n      mload(0x40)\n      tag_46\n      swap2\n      swap1\n      tag_17\n      jump\t// in\n    tag_46:\n      mload(0x40)\n      dup1\n      swap2\n      sub\n      swap1\n      return\n        /* \"contracts/Lottery.sol\":879:1016  function getRandomNumber() public view returns (uint) {... */\n    tag_9:\n      callvalue\n      dup1\n      iszero\n      tag_47\n      jumpi\n      0x00\n      dup1\n      revert\n    tag_47:\n      pop\n      tag_48\n      tag_49\n      jump\t// in\n    tag_48:\n      mload(0x40)\n      tag_50\n      swap2\n      swap1\n      tag_17\n      jump\t// in\n    tag_50:\n      mload(0x40)\n      dup1\n      swap2\n      sub\n      swap1\n      return\n        /* \"contracts/Lottery.sol\":694:871  function enter () public payable {... */\n    tag_10:\n      tag_51\n      tag_52\n      jump\t// in\n    tag_51:\n      stop\n        /* \"contracts/Lottery.sol\":125:157  address payable[] public players */\n    tag_11:\n      callvalue\n      dup1\n      iszero\n      tag_53\n      jumpi\n      0x00\n      dup1\n      revert\n    tag_53:\n      pop\n      tag_54\n      0x04\n      dup1\n      calldatasize\n      sub\n      dup2\n      add\n      swap1\n      tag_55\n      swap2\n      swap1\n      tag_21\n      jump\t// in\n    tag_55:\n      tag_56\n      jump\t// in\n    tag_54:\n      mload(0x40)\n      tag_57\n      swap2\n      swap1\n      tag_24\n      jump\t// in\n    tag_57:\n      mload(0x40)\n      dup1\n      swap2\n      sub\n      swap1\n      return\n        /* \"contracts/Lottery.sol\":480:576  function getBalance() public view returns (uint) {... */\n    tag_15:\n        /* \"contracts/Lottery.sol\":523:527  uint */\n      0x00\n        /* \"contracts/Lottery.sol\":547:568  address(this).balance */\n      selfbalance\n        /* \"contracts/Lottery.sol\":540:568  return address(this).balance */\n      swap1\n      pop\n        /* \"contracts/Lottery.sol\":480:576  function getBalance() public view returns (uint) {... */\n      swap1\n      jump\t// out\n        /* \"contracts/Lottery.sol\":339:472  function getWinnerByLottery(uint lotteryId) public view returns (address payable) {... */\n    tag_22:\n        /* \"contracts/Lottery.sol\":404:419  address payable */\n      0x00\n        /* \"contracts/Lottery.sol\":439:453  lotteryHistory */\n      0x03\n        /* \"contracts/Lottery.sol\":439:464  lotteryHistory[lotteryId] */\n      0x00\n        /* \"contracts/Lottery.sol\":454:463  lotteryId */\n      dup4\n        /* \"contracts/Lottery.sol\":439:464  lotteryHistory[lotteryId] */\n      dup2\n      mstore\n      0x20\n      add\n      swap1\n      dup2\n      mstore\n      0x20\n      add\n      0x00\n      keccak256\n      0x00\n      swap1\n      sload\n      swap1\n      0x0100\n      exp\n      swap1\n      div\n      0xffffffffffffffffffffffffffffffffffffffff\n      and\n        /* \"contracts/Lottery.sol\":432:464  return lotteryHistory[lotteryId] */\n      swap1\n      pop\n        /* \"contracts/Lottery.sol\":339:472  function getWinnerByLottery(uint lotteryId) public view returns (address payable) {... */\n      swap2\n      swap1\n      pop\n      jump\t// out\n        /* \"contracts/Lottery.sol\":1022:1370  function pickWinner() public onlyOwner {... */\n    tag_27:\n        /* \"contracts/Lottery.sol\":1432:1437  owner */\n      0x00\n      dup1\n      sload\n      swap1\n      0x0100\n      exp\n      swap1\n      div\n      0xffffffffffffffffffffffffffffffffffffffff\n      and\n        /* \"contracts/Lottery.sol\":1418:1437  msg.sender == owner */\n      0xffffffffffffffffffffffffffffffffffffffff\n      and\n        /* \"contracts/Lottery.sol\":1418:1428  msg.sender */\n      caller\n        /* \"contracts/Lottery.sol\":1418:1437  msg.sender == owner */\n      0xffffffffffffffffffffffffffffffffffffffff\n      and\n      eq\n        /* \"contracts/Lottery.sol\":1410:1438  require(msg.sender == owner) */\n      tag_61\n      jumpi\n      0x00\n      dup1\n      revert\n    tag_61:\n        /* \"contracts/Lottery.sol\":1082:1092  uint index */\n      0x00\n        /* \"contracts/Lottery.sol\":1115:1122  players */\n      0x01\n        /* \"contracts/Lottery.sol\":1115:1129  players.length */\n      dup1\n      sload\n      swap1\n      pop\n        /* \"contracts/Lottery.sol\":1095:1112  getRandomNumber() */\n      tag_63\n        /* \"contracts/Lottery.sol\":1095:1110  getRandomNumber */\n      tag_49\n        /* \"contracts/Lottery.sol\":1095:1112  getRandomNumber() */\n      jump\t// in\n    tag_63:\n        /* \"contracts/Lottery.sol\":1095:1129  getRandomNumber() % players.length */\n      tag_64\n      swap2\n      swap1\n      tag_65\n      jump\t// in\n    tag_64:\n        /* \"contracts/Lottery.sol\":1082:1129  uint index = getRandomNumber() % players.length */\n      swap1\n      pop\n        /* \"contracts/Lottery.sol\":1140:1147  players */\n      0x01\n        /* \"contracts/Lottery.sol\":1148:1153  index */\n      dup2\n        /* \"contracts/Lottery.sol\":1140:1154  players[index] */\n      dup2\n      sload\n      dup2\n      lt\n      tag_66\n      jumpi\n      tag_67\n      tag_68\n      jump\t// in\n    tag_67:\n    tag_66:\n      swap1\n      0x00\n      mstore\n      keccak256(0x00, 0x20)\n      add\n      0x00\n      swap1\n      sload\n      swap1\n      0x0100\n      exp\n      swap1\n      div\n      0xffffffffffffffffffffffffffffffffffffffff\n      and\n        /* \"contracts/Lottery.sol\":1140:1163  players[index].transfer */\n      0xffffffffffffffffffffffffffffffffffffffff\n      and\n        /* \"contracts/Lottery.sol\":1140:1186  players[index].transfer(address(this).balance) */\n      0x08fc\n        /* \"contracts/Lottery.sol\":1164:1185  address(this).balance */\n      selfbalance\n        /* \"contracts/Lottery.sol\":1140:1186  players[index].transfer(address(this).balance) */\n      swap1\n      dup2\n      iszero\n      mul\n      swap1\n      mload(0x40)\n      0x00\n      mload(0x40)\n      dup1\n      dup4\n      sub\n      dup2\n      dup6\n      dup9\n      dup9\n      call\n      swap4\n      pop\n      pop\n      pop\n      pop\n      iszero\n      dup1\n      iszero\n      tag_71\n      jumpi\n      returndatasize\n      0x00\n      dup1\n      returndatacopy\n      revert(0x00, returndatasize)\n    tag_71:\n      pop\n        /* \"contracts/Lottery.sol\":1245:1252  players */\n      0x01\n        /* \"contracts/Lottery.sol\":1253:1258  index */\n      dup2\n        /* \"contracts/Lottery.sol\":1245:1259  players[index] */\n      dup2\n      sload\n      dup2\n      lt\n      tag_72\n      jumpi\n      tag_73\n      tag_68\n      jump\t// in\n    tag_73:\n    tag_72:\n      swap1\n      0x00\n      mstore\n      keccak256(0x00, 0x20)\n      add\n      0x00\n      swap1\n      sload\n      swap1\n      0x0100\n      exp\n      swap1\n      div\n      0xffffffffffffffffffffffffffffffffffffffff\n      and\n        /* \"contracts/Lottery.sol\":1217:1231  lotteryHistory */\n      0x03\n        /* \"contracts/Lottery.sol\":1217:1242  lotteryHistory[loterryId] */\n      0x00\n        /* \"contracts/Lottery.sol\":1232:1241  loterryId */\n      sload(0x02)\n        /* \"contracts/Lottery.sol\":1217:1242  lotteryHistory[loterryId] */\n      dup2\n      mstore\n      0x20\n      add\n      swap1\n      dup2\n      mstore\n      0x20\n      add\n      0x00\n      keccak256\n      0x00\n        /* \"contracts/Lottery.sol\":1217:1259  lotteryHistory[loterryId] = players[index] */\n      0x0100\n      exp\n      dup2\n      sload\n      dup2\n      0xffffffffffffffffffffffffffffffffffffffff\n      mul\n      not\n      and\n      swap1\n      dup4\n      0xffffffffffffffffffffffffffffffffffffffff\n      and\n      mul\n      or\n      swap1\n      sstore\n      pop\n        /* \"contracts/Lottery.sol\":1270:1279  loterryId */\n      0x02\n      0x00\n        /* \"contracts/Lottery.sol\":1270:1281  loterryId++ */\n      dup2\n      sload\n      dup1\n      swap3\n      swap2\n      swap1\n      tag_75\n      swap1\n      tag_76\n      jump\t// in\n    tag_75:\n      swap2\n      swap1\n      pop\n      sstore\n      pop\n        /* \"contracts/Lottery.sol\":1360:1361  0 */\n      0x00\n        /* \"contracts/Lottery.sol\":1338:1362  new address payable[](0) */\n      0xffffffffffffffff\n      dup2\n      gt\n      iszero\n      tag_77\n      jumpi\n      tag_78\n      tag_79\n      jump\t// in\n    tag_78:\n    tag_77:\n      mload(0x40)\n      swap1\n      dup1\n      dup3\n      mstore\n      dup1\n      0x20\n      mul\n      0x20\n      add\n      dup3\n      add\n      0x40\n      mstore\n      dup1\n      iszero\n      tag_80\n      jumpi\n      dup2\n      0x20\n      add\n      0x20\n      dup3\n      mul\n      dup1\n      calldatasize\n      dup4\n      calldatacopy\n      dup1\n      dup3\n      add\n      swap2\n      pop\n      pop\n      swap1\n      pop\n    tag_80:\n      pop\n        /* \"contracts/Lottery.sol\":1328:1335  players */\n      0x01\n        /* \"contracts/Lottery.sol\":1328:1362  players = new address payable[](0) */\n      swap1\n      dup1\n      mload\n      swap1\n      0x20\n      add\n      swap1\n      tag_81\n      swap3\n      swap2\n      swap1\n      tag_82\n      jump\t// in\n    tag_81:\n      pop\n        /* \"contracts/Lottery.sol\":1061:1370  {... */\n      pop\n        /* \"contracts/Lottery.sol\":1022:1370  function pickWinner() public onlyOwner {... */\n      jump\t// out\n        /* \"contracts/Lottery.sol\":192:247  mapping (uint => address payable) public lotteryHistory */\n    tag_31:\n      mstore(0x20, 0x03)\n      dup1\n      0x00\n      mstore\n      keccak256(0x00, 0x40)\n      0x00\n      swap2\n      pop\n      sload\n      swap1\n      0x0100\n      exp\n      swap1\n      div\n      0xffffffffffffffffffffffffffffffffffffffff\n      and\n      dup2\n      jump\t// out\n        /* \"contracts/Lottery.sol\":584:686  function getPlayers() public view returns (address payable[] memory) {... */\n    tag_35:\n        /* \"contracts/Lottery.sol\":627:651  address payable[] memory */\n      0x60\n        /* \"contracts/Lottery.sol\":671:678  players */\n      0x01\n        /* \"contracts/Lottery.sol\":664:678  return players */\n      dup1\n      sload\n      dup1\n      0x20\n      mul\n      0x20\n      add\n      mload(0x40)\n      swap1\n      dup2\n      add\n      0x40\n      mstore\n      dup1\n      swap3\n      swap2\n      swap1\n      dup2\n      dup2\n      mstore\n      0x20\n      add\n      dup3\n      dup1\n      sload\n      dup1\n      iszero\n      tag_84\n      jumpi\n      0x20\n      mul\n      dup3\n      add\n      swap2\n      swap1\n      0x00\n      mstore\n      keccak256(0x00, 0x20)\n      swap1\n    tag_85:\n      dup2\n      0x00\n      swap1\n      sload\n      swap1\n      0x0100\n      exp\n      swap1\n      div\n      0xffffffffffffffffffffffffffffffffffffffff\n      and\n      0xffffffffffffffffffffffffffffffffffffffff\n      and\n      dup2\n      mstore\n      0x20\n      add\n      swap1\n      0x01\n      add\n      swap1\n      dup1\n      dup4\n      gt\n      tag_85\n      jumpi\n    tag_84:\n      pop\n      pop\n      pop\n      pop\n      pop\n      swap1\n      pop\n        /* \"contracts/Lottery.sol\":584:686  function getPlayers() public view returns (address payable[] memory) {... */\n      swap1\n      jump\t// out\n        /* \"contracts/Lottery.sol\":98:118  address public owner */\n    tag_40:\n      0x00\n      dup1\n      sload\n      swap1\n      0x0100\n      exp\n      swap1\n      div\n      0xffffffffffffffffffffffffffffffffffffffff\n      and\n      dup2\n      jump\t// out\n        /* \"contracts/Lottery.sol\":164:185  uint public loterryId */\n    tag_45:\n      sload(0x02)\n      dup2\n      jump\t// out\n        /* \"contracts/Lottery.sol\":879:1016  function getRandomNumber() public view returns (uint) {... */\n    tag_49:\n        /* \"contracts/Lottery.sol\":927:931  uint */\n      0x00\n        /* \"contracts/Lottery.sol\":983:988  owner */\n      dup1\n      0x00\n      swap1\n      sload\n      swap1\n      0x0100\n      exp\n      swap1\n      div\n      0xffffffffffffffffffffffffffffffffffffffff\n      and\n        /* \"contracts/Lottery.sol\":990:1005  block.timestamp */\n      timestamp\n        /* \"contracts/Lottery.sol\":966:1006  abi.encodePacked(owner, block.timestamp) */\n      add(0x20, mload(0x40))\n      tag_87\n      swap3\n      swap2\n      swap1\n      tag_88\n      jump\t// in\n    tag_87:\n      mload(0x40)\n      0x20\n      dup2\n      dup4\n      sub\n      sub\n      dup2\n      mstore\n      swap1\n      0x40\n      mstore\n        /* \"contracts/Lottery.sol\":956:1007  keccak256(abi.encodePacked(owner, block.timestamp)) */\n      dup1\n      mload\n      swap1\n      0x20\n      add\n      keccak256\n        /* \"contracts/Lottery.sol\":951:1008  uint(keccak256(abi.encodePacked(owner, block.timestamp))) */\n      0x00\n      shr\n        /* \"contracts/Lottery.sol\":944:1008  return uint(keccak256(abi.encodePacked(owner, block.timestamp))) */\n      swap1\n      pop\n        /* \"contracts/Lottery.sol\":879:1016  function getRandomNumber() public view returns (uint) {... */\n      swap1\n      jump\t// out\n        /* \"contracts/Lottery.sol\":694:871  function enter () public payable {... */\n    tag_52:\n        /* \"contracts/Lottery.sol\":758:768  .001 ether */\n      0x038d7ea4c68000\n        /* \"contracts/Lottery.sol\":746:755  msg.value */\n      callvalue\n        /* \"contracts/Lottery.sol\":746:768  msg.value > .001 ether */\n      gt\n        /* \"contracts/Lottery.sol\":738:769  require(msg.value > .001 ether) */\n      tag_90\n      jumpi\n      0x00\n      dup1\n      revert\n    tag_90:\n        /* \"contracts/Lottery.sol\":830:837  players */\n      0x01\n        /* \"contracts/Lottery.sol\":851:861  msg.sender */\n      caller\n        /* \"contracts/Lottery.sol\":830:863  players.push(payable(msg.sender)) */\n      swap1\n      dup1\n      0x01\n      dup2\n      sload\n      add\n      dup1\n      dup3\n      sstore\n      dup1\n      swap2\n      pop\n      pop\n      0x01\n      swap1\n      sub\n      swap1\n      0x00\n      mstore\n      keccak256(0x00, 0x20)\n      add\n      0x00\n      swap1\n      swap2\n      swap1\n      swap2\n      swap1\n      swap2\n      0x0100\n      exp\n      dup2\n      sload\n      dup2\n      0xffffffffffffffffffffffffffffffffffffffff\n      mul\n      not\n      and\n      swap1\n      dup4\n      0xffffffffffffffffffffffffffffffffffffffff\n      and\n      mul\n      or\n      swap1\n      sstore\n      pop\n        /* \"contracts/Lottery.sol\":694:871  function enter () public payable {... */\n      jump\t// out\n        /* \"contracts/Lottery.sol\":125:157  address payable[] public players */\n    tag_56:\n      0x01\n      dup2\n      dup2\n      sload\n      dup2\n      lt\n      tag_92\n      jumpi\n      0x00\n      dup1\n      revert\n    tag_92:\n      swap1\n      0x00\n      mstore\n      keccak256(0x00, 0x20)\n      add\n      0x00\n      swap2\n      pop\n      sload\n      swap1\n      0x0100\n      exp\n      swap1\n      div\n      0xffffffffffffffffffffffffffffffffffffffff\n      and\n      dup2\n      jump\t// out\n    tag_82:\n      dup3\n      dup1\n      sload\n      dup3\n      dup3\n      sstore\n      swap1\n      0x00\n      mstore\n      keccak256(0x00, 0x20)\n      swap1\n      dup2\n      add\n      swap3\n      dup3\n      iszero\n      tag_94\n      jumpi\n      swap2\n      0x20\n      mul\n      dup3\n      add\n    tag_95:\n      dup3\n      dup2\n      gt\n      iszero\n      tag_96\n      jumpi\n      dup3\n      mload\n      dup3\n      exp(0x0100, 0x00)\n      dup2\n      sload\n      dup2\n      0xffffffffffffffffffffffffffffffffffffffff\n      mul\n      not\n      and\n      swap1\n      dup4\n      0xffffffffffffffffffffffffffffffffffffffff\n      and\n      mul\n      or\n      swap1\n      sstore\n      pop\n      swap2\n      0x20\n      add\n      swap2\n      swap1\n      0x01\n      add\n      swap1\n      jump(tag_95)\n    tag_96:\n    tag_94:\n      pop\n      swap1\n      pop\n      tag_97\n      swap2\n      swap1\n      tag_98\n      jump\t// in\n    tag_97:\n      pop\n      swap1\n      jump\t// out\n    tag_98:\n    tag_99:\n      dup1\n      dup3\n      gt\n      iszero\n      tag_100\n      jumpi\n      0x00\n      dup2\n      0x00\n      swap1\n      sstore\n      pop\n      0x01\n      add\n      jump(tag_99)\n    tag_100:\n      pop\n      swap1\n      jump\t// out\n        /* \"#utility.yul\":7:84   */\n    tag_101:\n        /* \"#utility.yul\":44:51   */\n      0x00\n        /* \"#utility.yul\":73:78   */\n      dup2\n        /* \"#utility.yul\":62:78   */\n      swap1\n      pop\n        /* \"#utility.yul\":7:84   */\n      swap2\n      swap1\n      pop\n      jump\t// out\n        /* \"#utility.yul\":90:208   */\n    tag_102:\n        /* \"#utility.yul\":177:201   */\n      tag_131\n        /* \"#utility.yul\":195:200   */\n      dup2\n        /* \"#utility.yul\":177:201   */\n      tag_101\n      jump\t// in\n    tag_131:\n        /* \"#utility.yul\":172:175   */\n      dup3\n        /* \"#utility.yul\":165:202   */\n      mstore\n        /* \"#utility.yul\":90:208   */\n      pop\n      pop\n      jump\t// out\n        /* \"#utility.yul\":214:436   */\n    tag_17:\n        /* \"#utility.yul\":307:311   */\n      0x00\n        /* \"#utility.yul\":345:347   */\n      0x20\n        /* \"#utility.yul\":334:343   */\n      dup3\n        /* \"#utility.yul\":330:348   */\n      add\n        /* \"#utility.yul\":322:348   */\n      swap1\n      pop\n        /* \"#utility.yul\":358:429   */\n      tag_133\n        /* \"#utility.yul\":426:427   */\n      0x00\n        /* \"#utility.yul\":415:424   */\n      dup4\n        /* \"#utility.yul\":411:428   */\n      add\n        /* \"#utility.yul\":402:408   */\n      dup5\n        /* \"#utility.yul\":358:429   */\n      tag_102\n      jump\t// in\n    tag_133:\n        /* \"#utility.yul\":214:436   */\n      swap3\n      swap2\n      pop\n      pop\n      jump\t// out\n        /* \"#utility.yul\":523:640   */\n    tag_104:\n        /* \"#utility.yul\":632:633   */\n      0x00\n        /* \"#utility.yul\":629:630   */\n      dup1\n        /* \"#utility.yul\":622:634   */\n      revert\n        /* \"#utility.yul\":769:891   */\n    tag_106:\n        /* \"#utility.yul\":842:866   */\n      tag_138\n        /* \"#utility.yul\":860:865   */\n      dup2\n        /* \"#utility.yul\":842:866   */\n      tag_101\n      jump\t// in\n    tag_138:\n        /* \"#utility.yul\":835:840   */\n      dup2\n        /* \"#utility.yul\":832:867   */\n      eq\n        /* \"#utility.yul\":822:885   */\n      tag_139\n      jumpi\n        /* \"#utility.yul\":881:882   */\n      0x00\n        /* \"#utility.yul\":878:879   */\n      dup1\n        /* \"#utility.yul\":871:883   */\n      revert\n        /* \"#utility.yul\":822:885   */\n    tag_139:\n        /* \"#utility.yul\":769:891   */\n      pop\n      jump\t// out\n        /* \"#utility.yul\":897:1036   */\n    tag_107:\n        /* \"#utility.yul\":943:948   */\n      0x00\n        /* \"#utility.yul\":981:987   */\n      dup2\n        /* \"#utility.yul\":968:988   */\n      calldataload\n        /* \"#utility.yul\":959:988   */\n      swap1\n      pop\n        /* \"#utility.yul\":997:1030   */\n      tag_141\n        /* \"#utility.yul\":1024:1029   */\n      dup2\n        /* \"#utility.yul\":997:1030   */\n      tag_106\n      jump\t// in\n    tag_141:\n        /* \"#utility.yul\":897:1036   */\n      swap3\n      swap2\n      pop\n      pop\n      jump\t// out\n        /* \"#utility.yul\":1042:1371   */\n    tag_21:\n        /* \"#utility.yul\":1101:1107   */\n      0x00\n        /* \"#utility.yul\":1150:1152   */\n      0x20\n        /* \"#utility.yul\":1138:1147   */\n      dup3\n        /* \"#utility.yul\":1129:1136   */\n      dup5\n        /* \"#utility.yul\":1125:1148   */\n      sub\n        /* \"#utility.yul\":1121:1153   */\n      slt\n        /* \"#utility.yul\":1118:1237   */\n      iszero\n      tag_143\n      jumpi\n        /* \"#utility.yul\":1156:1235   */\n      tag_144\n      tag_104\n      jump\t// in\n    tag_144:\n        /* \"#utility.yul\":1118:1237   */\n    tag_143:\n        /* \"#utility.yul\":1276:1277   */\n      0x00\n        /* \"#utility.yul\":1301:1354   */\n      tag_145\n        /* \"#utility.yul\":1346:1353   */\n      dup5\n        /* \"#utility.yul\":1337:1343   */\n      dup3\n        /* \"#utility.yul\":1326:1335   */\n      dup6\n        /* \"#utility.yul\":1322:1344   */\n      add\n        /* \"#utility.yul\":1301:1354   */\n      tag_107\n      jump\t// in\n    tag_145:\n        /* \"#utility.yul\":1291:1354   */\n      swap2\n      pop\n        /* \"#utility.yul\":1247:1364   */\n      pop\n        /* \"#utility.yul\":1042:1371   */\n      swap3\n      swap2\n      pop\n      pop\n      jump\t// out\n        /* \"#utility.yul\":1377:1503   */\n    tag_108:\n        /* \"#utility.yul\":1414:1421   */\n      0x00\n        /* \"#utility.yul\":1454:1496   */\n      0xffffffffffffffffffffffffffffffffffffffff\n        /* \"#utility.yul\":1447:1452   */\n      dup3\n        /* \"#utility.yul\":1443:1497   */\n      and\n        /* \"#utility.yul\":1432:1497   */\n      swap1\n      pop\n        /* \"#utility.yul\":1377:1503   */\n      swap2\n      swap1\n      pop\n      jump\t// out\n        /* \"#utility.yul\":1509:1613   */\n    tag_109:\n        /* \"#utility.yul\":1554:1561   */\n      0x00\n        /* \"#utility.yul\":1583:1607   */\n      tag_148\n        /* \"#utility.yul\":1601:1606   */\n      dup3\n        /* \"#utility.yul\":1583:1607   */\n      tag_108\n      jump\t// in\n    tag_148:\n        /* \"#utility.yul\":1572:1607   */\n      swap1\n      pop\n        /* \"#utility.yul\":1509:1613   */\n      swap2\n      swap1\n      pop\n      jump\t// out\n        /* \"#utility.yul\":1619:1761   */\n    tag_110:\n        /* \"#utility.yul\":1722:1754   */\n      tag_150\n        /* \"#utility.yul\":1748:1753   */\n      dup2\n        /* \"#utility.yul\":1722:1754   */\n      tag_109\n      jump\t// in\n    tag_150:\n        /* \"#utility.yul\":1717:1720   */\n      dup3\n        /* \"#utility.yul\":1710:1755   */\n      mstore\n        /* \"#utility.yul\":1619:1761   */\n      pop\n      pop\n      jump\t// out\n        /* \"#utility.yul\":1767:2021   */\n    tag_24:\n        /* \"#utility.yul\":1876:1880   */\n      0x00\n        /* \"#utility.yul\":1914:1916   */\n      0x20\n        /* \"#utility.yul\":1903:1912   */\n      dup3\n        /* \"#utility.yul\":1899:1917   */\n      add\n        /* \"#utility.yul\":1891:1917   */\n      swap1\n      pop\n        /* \"#utility.yul\":1927:2014   */\n      tag_152\n        /* \"#utility.yul\":2011:2012   */\n      0x00\n        /* \"#utility.yul\":2000:2009   */\n      dup4\n        /* \"#utility.yul\":1996:2013   */\n      add\n        /* \"#utility.yul\":1987:1993   */\n      dup5\n        /* \"#utility.yul\":1927:2014   */\n      tag_110\n      jump\t// in\n    tag_152:\n        /* \"#utility.yul\":1767:2021   */\n      swap3\n      swap2\n      pop\n      pop\n      jump\t// out\n        /* \"#utility.yul\":2027:2149   */\n    tag_111:\n        /* \"#utility.yul\":2102:2108   */\n      0x00\n        /* \"#utility.yul\":2136:2141   */\n      dup2\n        /* \"#utility.yul\":2130:2142   */\n      mload\n        /* \"#utility.yul\":2120:2142   */\n      swap1\n      pop\n        /* \"#utility.yul\":2027:2149   */\n      swap2\n      swap1\n      pop\n      jump\t// out\n        /* \"#utility.yul\":2155:2347   */\n    tag_112:\n        /* \"#utility.yul\":2262:2273   */\n      0x00\n        /* \"#utility.yul\":2296:2302   */\n      dup3\n        /* \"#utility.yul\":2291:2294   */\n      dup3\n        /* \"#utility.yul\":2284:2303   */\n      mstore\n        /* \"#utility.yul\":2336:2340   */\n      0x20\n        /* \"#utility.yul\":2331:2334   */\n      dup3\n        /* \"#utility.yul\":2327:2341   */\n      add\n        /* \"#utility.yul\":2312:2341   */\n      swap1\n      pop\n        /* \"#utility.yul\":2155:2347   */\n      swap3\n      swap2\n      pop\n      pop\n      jump\t// out\n        /* \"#utility.yul\":2353:2493   */\n    tag_113:\n        /* \"#utility.yul\":2428:2432   */\n      0x00\n        /* \"#utility.yul\":2451:2454   */\n      dup2\n        /* \"#utility.yul\":2443:2454   */\n      swap1\n      pop\n        /* \"#utility.yul\":2481:2485   */\n      0x20\n        /* \"#utility.yul\":2476:2479   */\n      dup3\n        /* \"#utility.yul\":2472:2486   */\n      add\n        /* \"#utility.yul\":2464:2486   */\n      swap1\n      pop\n        /* \"#utility.yul\":2353:2493   */\n      swap2\n      swap1\n      pop\n      jump\t// out\n        /* \"#utility.yul\":2499:2631   */\n    tag_114:\n        /* \"#utility.yul\":2592:2624   */\n      tag_157\n        /* \"#utility.yul\":2618:2623   */\n      dup2\n        /* \"#utility.yul\":2592:2624   */\n      tag_109\n      jump\t// in\n    tag_157:\n        /* \"#utility.yul\":2587:2590   */\n      dup3\n        /* \"#utility.yul\":2580:2625   */\n      mstore\n        /* \"#utility.yul\":2499:2631   */\n      pop\n      pop\n      jump\t// out\n        /* \"#utility.yul\":2637:2848   */\n    tag_115:\n        /* \"#utility.yul\":2722:2732   */\n      0x00\n        /* \"#utility.yul\":2743:2805   */\n      tag_159\n        /* \"#utility.yul\":2801:2804   */\n      dup4\n        /* \"#utility.yul\":2793:2799   */\n      dup4\n        /* \"#utility.yul\":2743:2805   */\n      tag_114\n      jump\t// in\n    tag_159:\n        /* \"#utility.yul\":2837:2841   */\n      0x20\n        /* \"#utility.yul\":2832:2835   */\n      dup4\n        /* \"#utility.yul\":2828:2842   */\n      add\n        /* \"#utility.yul\":2814:2842   */\n      swap1\n      pop\n        /* \"#utility.yul\":2637:2848   */\n      swap3\n      swap2\n      pop\n      pop\n      jump\t// out\n        /* \"#utility.yul\":2854:2975   */\n    tag_116:\n        /* \"#utility.yul\":2932:2936   */\n      0x00\n        /* \"#utility.yul\":2964:2968   */\n      0x20\n        /* \"#utility.yul\":2959:2962   */\n      dup3\n        /* \"#utility.yul\":2955:2969   */\n      add\n        /* \"#utility.yul\":2947:2969   */\n      swap1\n      pop\n        /* \"#utility.yul\":2854:2975   */\n      swap2\n      swap1\n      pop\n      jump\t// out\n        /* \"#utility.yul\":3027:3823   */\n    tag_117:\n        /* \"#utility.yul\":3162:3165   */\n      0x00\n        /* \"#utility.yul\":3191:3253   */\n      tag_162\n        /* \"#utility.yul\":3247:3252   */\n      dup3\n        /* \"#utility.yul\":3191:3253   */\n      tag_111\n      jump\t// in\n    tag_162:\n        /* \"#utility.yul\":3269:3363   */\n      tag_163\n        /* \"#utility.yul\":3356:3362   */\n      dup2\n        /* \"#utility.yul\":3351:3354   */\n      dup6\n        /* \"#utility.yul\":3269:3363   */\n      tag_112\n      jump\t// in\n    tag_163:\n        /* \"#utility.yul\":3262:3363   */\n      swap4\n      pop\n        /* \"#utility.yul\":3387:3451   */\n      tag_164\n        /* \"#utility.yul\":3445:3450   */\n      dup4\n        /* \"#utility.yul\":3387:3451   */\n      tag_113\n      jump\t// in\n    tag_164:\n        /* \"#utility.yul\":3474:3481   */\n      dup1\n        /* \"#utility.yul\":3505:3506   */\n      0x00\n        /* \"#utility.yul\":3490:3798   */\n    tag_165:\n        /* \"#utility.yul\":3515:3521   */\n      dup4\n        /* \"#utility.yul\":3512:3513   */\n      dup2\n        /* \"#utility.yul\":3509:3522   */\n      lt\n        /* \"#utility.yul\":3490:3798   */\n      iszero\n      tag_167\n      jumpi\n        /* \"#utility.yul\":3591:3597   */\n      dup2\n        /* \"#utility.yul\":3585:3598   */\n      mload\n        /* \"#utility.yul\":3618:3697   */\n      tag_168\n        /* \"#utility.yul\":3693:3696   */\n      dup9\n        /* \"#utility.yul\":3678:3691   */\n      dup3\n        /* \"#utility.yul\":3618:3697   */\n      tag_115\n      jump\t// in\n    tag_168:\n        /* \"#utility.yul\":3611:3697   */\n      swap8\n      pop\n        /* \"#utility.yul\":3720:3788   */\n      tag_169\n        /* \"#utility.yul\":3781:3787   */\n      dup4\n        /* \"#utility.yul\":3720:3788   */\n      tag_116\n      jump\t// in\n    tag_169:\n        /* \"#utility.yul\":3710:3788   */\n      swap3\n      pop\n        /* \"#utility.yul\":3550:3798   */\n      pop\n        /* \"#utility.yul\":3537:3538   */\n      0x01\n        /* \"#utility.yul\":3534:3535   */\n      dup2\n        /* \"#utility.yul\":3530:3539   */\n      add\n        /* \"#utility.yul\":3525:3539   */\n      swap1\n      pop\n        /* \"#utility.yul\":3490:3798   */\n      jump(tag_165)\n    tag_167:\n        /* \"#utility.yul\":3494:3508   */\n      pop\n        /* \"#utility.yul\":3814:3817   */\n      dup6\n        /* \"#utility.yul\":3807:3817   */\n      swap4\n      pop\n        /* \"#utility.yul\":3167:3823   */\n      pop\n      pop\n      pop\n        /* \"#utility.yul\":3027:3823   */\n      swap3\n      swap2\n      pop\n      pop\n      jump\t// out\n        /* \"#utility.yul\":3829:4234   */\n    tag_37:\n        /* \"#utility.yul\":3988:3992   */\n      0x00\n        /* \"#utility.yul\":4026:4028   */\n      0x20\n        /* \"#utility.yul\":4015:4024   */\n      dup3\n        /* \"#utility.yul\":4011:4029   */\n      add\n        /* \"#utility.yul\":4003:4029   */\n      swap1\n      pop\n        /* \"#utility.yul\":4075:4084   */\n      dup2\n        /* \"#utility.yul\":4069:4073   */\n      dup2\n        /* \"#utility.yul\":4065:4085   */\n      sub\n        /* \"#utility.yul\":4061:4062   */\n      0x00\n        /* \"#utility.yul\":4050:4059   */\n      dup4\n        /* \"#utility.yul\":4046:4063   */\n      add\n        /* \"#utility.yul\":4039:4086   */\n      mstore\n        /* \"#utility.yul\":4103:4227   */\n      tag_171\n        /* \"#utility.yul\":4222:4226   */\n      dup2\n        /* \"#utility.yul\":4213:4219   */\n      dup5\n        /* \"#utility.yul\":4103:4227   */\n      tag_117\n      jump\t// in\n    tag_171:\n        /* \"#utility.yul\":4095:4227   */\n      swap1\n      pop\n        /* \"#utility.yul\":3829:4234   */\n      swap3\n      swap2\n      pop\n      pop\n      jump\t// out\n        /* \"#utility.yul\":4240:4336   */\n    tag_118:\n        /* \"#utility.yul\":4277:4284   */\n      0x00\n        /* \"#utility.yul\":4306:4330   */\n      tag_173\n        /* \"#utility.yul\":4324:4329   */\n      dup3\n        /* \"#utility.yul\":4306:4330   */\n      tag_108\n      jump\t// in\n    tag_173:\n        /* \"#utility.yul\":4295:4330   */\n      swap1\n      pop\n        /* \"#utility.yul\":4240:4336   */\n      swap2\n      swap1\n      pop\n      jump\t// out\n        /* \"#utility.yul\":4342:4460   */\n    tag_119:\n        /* \"#utility.yul\":4429:4453   */\n      tag_175\n        /* \"#utility.yul\":4447:4452   */\n      dup2\n        /* \"#utility.yul\":4429:4453   */\n      tag_118\n      jump\t// in\n    tag_175:\n        /* \"#utility.yul\":4424:4427   */\n      dup3\n        /* \"#utility.yul\":4417:4454   */\n      mstore\n        /* \"#utility.yul\":4342:4460   */\n      pop\n      pop\n      jump\t// out\n        /* \"#utility.yul\":4466:4688   */\n    tag_42:\n        /* \"#utility.yul\":4559:4563   */\n      0x00\n        /* \"#utility.yul\":4597:4599   */\n      0x20\n        /* \"#utility.yul\":4586:4595   */\n      dup3\n        /* \"#utility.yul\":4582:4600   */\n      add\n        /* \"#utility.yul\":4574:4600   */\n      swap1\n      pop\n        /* \"#utility.yul\":4610:4681   */\n      tag_177\n        /* \"#utility.yul\":4678:4679   */\n      0x00\n        /* \"#utility.yul\":4667:4676   */\n      dup4\n        /* \"#utility.yul\":4663:4680   */\n      add\n        /* \"#utility.yul\":4654:4660   */\n      dup5\n        /* \"#utility.yul\":4610:4681   */\n      tag_119\n      jump\t// in\n    tag_177:\n        /* \"#utility.yul\":4466:4688   */\n      swap3\n      swap2\n      pop\n      pop\n      jump\t// out\n        /* \"#utility.yul\":4694:4874   */\n    tag_120:\n        /* \"#utility.yul\":4742:4819   */\n      0x4e487b7100000000000000000000000000000000000000000000000000000000\n        /* \"#utility.yul\":4739:4740   */\n      0x00\n        /* \"#utility.yul\":4732:4820   */\n      mstore\n        /* \"#utility.yul\":4839:4843   */\n      0x12\n        /* \"#utility.yul\":4836:4837   */\n      0x04\n        /* \"#utility.yul\":4829:4844   */\n      mstore\n        /* \"#utility.yul\":4863:4867   */\n      0x24\n        /* \"#utility.yul\":4860:4861   */\n      0x00\n        /* \"#utility.yul\":4853:4868   */\n      revert\n        /* \"#utility.yul\":4880:5056   */\n    tag_65:\n        /* \"#utility.yul\":4912:4913   */\n      0x00\n        /* \"#utility.yul\":4929:4949   */\n      tag_180\n        /* \"#utility.yul\":4947:4948   */\n      dup3\n        /* \"#utility.yul\":4929:4949   */\n      tag_101\n      jump\t// in\n    tag_180:\n        /* \"#utility.yul\":4924:4949   */\n      swap2\n      pop\n        /* \"#utility.yul\":4963:4983   */\n      tag_181\n        /* \"#utility.yul\":4981:4982   */\n      dup4\n        /* \"#utility.yul\":4963:4983   */\n      tag_101\n      jump\t// in\n    tag_181:\n        /* \"#utility.yul\":4958:4983   */\n      swap3\n      pop\n        /* \"#utility.yul\":5002:5003   */\n      dup3\n        /* \"#utility.yul\":4992:5027   */\n      tag_182\n      jumpi\n        /* \"#utility.yul\":5007:5025   */\n      tag_183\n      tag_120\n      jump\t// in\n    tag_183:\n        /* \"#utility.yul\":4992:5027   */\n    tag_182:\n        /* \"#utility.yul\":5048:5049   */\n      dup3\n        /* \"#utility.yul\":5045:5046   */\n      dup3\n        /* \"#utility.yul\":5041:5050   */\n      mod\n        /* \"#utility.yul\":5036:5050   */\n      swap1\n      pop\n        /* \"#utility.yul\":4880:5056   */\n      swap3\n      swap2\n      pop\n      pop\n      jump\t// out\n        /* \"#utility.yul\":5062:5242   */\n    tag_68:\n        /* \"#utility.yul\":5110:5187   */\n      0x4e487b7100000000000000000000000000000000000000000000000000000000\n        /* \"#utility.yul\":5107:5108   */\n      0x00\n        /* \"#utility.yul\":5100:5188   */\n      mstore\n        /* \"#utility.yul\":5207:5211   */\n      0x32\n        /* \"#utility.yul\":5204:5205   */\n      0x04\n        /* \"#utility.yul\":5197:5212   */\n      mstore\n        /* \"#utility.yul\":5231:5235   */\n      0x24\n        /* \"#utility.yul\":5228:5229   */\n      0x00\n        /* \"#utility.yul\":5221:5236   */\n      revert\n        /* \"#utility.yul\":5248:5428   */\n    tag_121:\n        /* \"#utility.yul\":5296:5373   */\n      0x4e487b7100000000000000000000000000000000000000000000000000000000\n        /* \"#utility.yul\":5293:5294   */\n      0x00\n        /* \"#utility.yul\":5286:5374   */\n      mstore\n        /* \"#utility.yul\":5393:5397   */\n      0x11\n        /* \"#utility.yul\":5390:5391   */\n      0x04\n        /* \"#utility.yul\":5383:5398   */\n      mstore\n        /* \"#utility.yul\":5417:5421   */\n      0x24\n        /* \"#utility.yul\":5414:5415   */\n      0x00\n        /* \"#utility.yul\":5407:5422   */\n      revert\n        /* \"#utility.yul\":5434:5667   */\n    tag_76:\n        /* \"#utility.yul\":5473:5476   */\n      0x00\n        /* \"#utility.yul\":5496:5520   */\n      tag_187\n        /* \"#utility.yul\":5514:5519   */\n      dup3\n        /* \"#utility.yul\":5496:5520   */\n      tag_101\n      jump\t// in\n    tag_187:\n        /* \"#utility.yul\":5487:5520   */\n      swap2\n      pop\n        /* \"#utility.yul\":5542:5608   */\n      0xffffffffffffffffffffffffffffffffffffffffffffffffffffffffffffffff\n        /* \"#utility.yul\":5535:5540   */\n      dup3\n        /* \"#utility.yul\":5532:5609   */\n      sub\n        /* \"#utility.yul\":5529:5632   */\n      tag_188\n      jumpi\n        /* \"#utility.yul\":5612:5630   */\n      tag_189\n      tag_121\n      jump\t// in\n    tag_189:\n        /* \"#utility.yul\":5529:5632   */\n    tag_188:\n        /* \"#utility.yul\":5659:5660   */\n      0x01\n        /* \"#utility.yul\":5652:5657   */\n      dup3\n        /* \"#utility.yul\":5648:5661   */\n      add\n        /* \"#utility.yul\":5641:5661   */\n      swap1\n      pop\n        /* \"#utility.yul\":5434:5667   */\n      swap2\n      swap1\n      pop\n      jump\t// out\n        /* \"#utility.yul\":5673:5853   */\n    tag_79:\n        /* \"#utility.yul\":5721:5798   */\n      0x4e487b7100000000000000000000000000000000000000000000000000000000\n        /* \"#utility.yul\":5718:5719   */\n      0x00\n        /* \"#utility.yul\":5711:5799   */\n      mstore\n        /* \"#utility.yul\":5818:5822   */\n      0x41\n        /* \"#utility.yul\":5815:5816   */\n      0x04\n        /* \"#utility.yul\":5808:5823   */\n      mstore\n        /* \"#utility.yul\":5842:5846   */\n      0x24\n        /* \"#utility.yul\":5839:5840   */\n      0x00\n        /* \"#utility.yul\":5832:5847   */\n      revert\n        /* \"#utility.yul\":5859:5953   */\n    tag_122:\n        /* \"#utility.yul\":5892:5900   */\n      0x00\n        /* \"#utility.yul\":5940:5945   */\n      dup2\n        /* \"#utility.yul\":5936:5938   */\n      0x60\n        /* \"#utility.yul\":5932:5946   */\n      shl\n        /* \"#utility.yul\":5911:5946   */\n      swap1\n      pop\n        /* \"#utility.yul\":5859:5953   */\n      swap2\n      swap1\n      pop\n      jump\t// out\n        /* \"#utility.yul\":5959:6053   */\n    tag_123:\n        /* \"#utility.yul\":5998:6005   */\n      0x00\n        /* \"#utility.yul\":6027:6047   */\n      tag_193\n        /* \"#utility.yul\":6041:6046   */\n      dup3\n        /* \"#utility.yul\":6027:6047   */\n      tag_122\n      jump\t// in\n    tag_193:\n        /* \"#utility.yul\":6016:6047   */\n      swap1\n      pop\n        /* \"#utility.yul\":5959:6053   */\n      swap2\n      swap1\n      pop\n      jump\t// out\n        /* \"#utility.yul\":6059:6159   */\n    tag_124:\n        /* \"#utility.yul\":6098:6105   */\n      0x00\n        /* \"#utility.yul\":6127:6153   */\n      tag_195\n        /* \"#utility.yul\":6147:6152   */\n      dup3\n        /* \"#utility.yul\":6127:6153   */\n      tag_123\n      jump\t// in\n    tag_195:\n        /* \"#utility.yul\":6116:6153   */\n      swap1\n      pop\n        /* \"#utility.yul\":6059:6159   */\n      swap2\n      swap1\n      pop\n      jump\t// out\n        /* \"#utility.yul\":6165:6322   */\n    tag_125:\n        /* \"#utility.yul\":6270:6315   */\n      tag_197\n        /* \"#utility.yul\":6290:6314   */\n      tag_198\n        /* \"#utility.yul\":6308:6313   */\n      dup3\n        /* \"#utility.yul\":6290:6314   */\n      tag_118\n      jump\t// in\n    tag_198:\n        /* \"#utility.yul\":6270:6315   */\n      tag_124\n      jump\t// in\n    tag_197:\n        /* \"#utility.yul\":6265:6268   */\n      dup3\n        /* \"#utility.yul\":6258:6316   */\n      mstore\n        /* \"#utility.yul\":6165:6322   */\n      pop\n      pop\n      jump\t// out\n        /* \"#utility.yul\":6328:6407   */\n    tag_126:\n        /* \"#utility.yul\":6367:6374   */\n      0x00\n        /* \"#utility.yul\":6396:6401   */\n      dup2\n        /* \"#utility.yul\":6385:6401   */\n      swap1\n      pop\n        /* \"#utility.yul\":6328:6407   */\n      swap2\n      swap1\n      pop\n      jump\t// out\n        /* \"#utility.yul\":6413:6570   */\n    tag_127:\n        /* \"#utility.yul\":6518:6563   */\n      tag_201\n        /* \"#utility.yul\":6538:6562   */\n      tag_202\n        /* \"#utility.yul\":6556:6561   */\n      dup3\n        /* \"#utility.yul\":6538:6562   */\n      tag_101\n      jump\t// in\n    tag_202:\n        /* \"#utility.yul\":6518:6563   */\n      tag_126\n      jump\t// in\n    tag_201:\n        /* \"#utility.yul\":6513:6516   */\n      dup3\n        /* \"#utility.yul\":6506:6564   */\n      mstore\n        /* \"#utility.yul\":6413:6570   */\n      pop\n      pop\n      jump\t// out\n        /* \"#utility.yul\":6576:6973   */\n    tag_88:\n        /* \"#utility.yul\":6716:6719   */\n      0x00\n        /* \"#utility.yul\":6731:6806   */\n      tag_204\n        /* \"#utility.yul\":6802:6805   */\n      dup3\n        /* \"#utility.yul\":6793:6799   */\n      dup6\n        /* \"#utility.yul\":6731:6806   */\n      tag_125\n      jump\t// in\n    tag_204:\n        /* \"#utility.yul\":6831:6833   */\n      0x14\n        /* \"#utility.yul\":6826:6829   */\n      dup3\n        /* \"#utility.yul\":6822:6834   */\n      add\n        /* \"#utility.yul\":6815:6834   */\n      swap2\n      pop\n        /* \"#utility.yul\":6844:6919   */\n      tag_205\n        /* \"#utility.yul\":6915:6918   */\n      dup3\n        /* \"#utility.yul\":6906:6912   */\n      dup5\n        /* \"#utility.yul\":6844:6919   */\n      tag_127\n      jump\t// in\n    tag_205:\n        /* \"#utility.yul\":6944:6946   */\n      0x20\n        /* \"#utility.yul\":6939:6942   */\n      dup3\n        /* \"#utility.yul\":6935:6947   */\n      add\n        /* \"#utility.yul\":6928:6947   */\n      swap2\n      pop\n        /* \"#utility.yul\":6964:6967   */\n      dup2\n        /* \"#utility.yul\":6957:6967   */\n      swap1\n      pop\n        /* \"#utility.yul\":6576:6973   */\n      swap4\n      swap3\n      pop\n      pop\n      pop\n      jump\t// out\n\n    auxdata: 0xa2646970667358221220f003e57fab6e6a679ca87d7f589f5fb81ff8b97843cf1e6dc9d9048b42eb213c64736f6c634300080d0033\n}\n",
				"bytecode": {
					"linkReferences": {},
					"object": "608060405234801561001057600080fd5b50336000806101000a81548173ffffffffffffffffffffffffffffffffffffffff021916908373ffffffffffffffffffffffffffffffffffffffff1602179055506001600281905550610b37806100686000396000f3fe6080604052600436106100915760003560e01c80638da5cb5b116100595780638da5cb5b1461017d578063a32673d5146101a8578063dbdff2c1146101d3578063e97dcb62146101fe578063f71d96cb1461020857610091565b806312065fe014610096578063281d098d146100c15780635d495aea146100fe5780636d6fe230146101155780638b5b9ccc14610152575b600080fd5b3480156100a257600080fd5b506100ab610245565b6040516100b89190610746565b60405180910390f35b3480156100cd57600080fd5b506100e860048036038101906100e39190610792565b61024d565b6040516100f59190610800565b60405180910390f35b34801561010a57600080fd5b5061011361028a565b005b34801561012157600080fd5b5061013c60048036038101906101379190610792565b610490565b6040516101499190610800565b60405180910390f35b34801561015e57600080fd5b506101676104c3565b60405161017491906108d9565b60405180910390f35b34801561018957600080fd5b50610192610551565b60405161019f919061091c565b60405180910390f35b3480156101b457600080fd5b506101bd610575565b6040516101ca9190610746565b60405180910390f35b3480156101df57600080fd5b506101e861057b565b6040516101f59190610746565b60405180910390f35b6102066105cf565b005b34801561021457600080fd5b5061022f600480360381019061022a9190610792565b610647565b60405161023c9190610800565b60405180910390f35b600047905090565b60006003600083815260200190815260200160002060009054906101000a900473ffffffffffffffffffffffffffffffffffffffff169050919050565b60008054906101000a900473ffffffffffffffffffffffffffffffffffffffff1673ffffffffffffffffffffffffffffffffffffffff163373ffffffffffffffffffffffffffffffffffffffff16146102e257600080fd5b60006001805490506102f261057b565b6102fc9190610966565b90506001818154811061031257610311610997565b5b9060005260206000200160009054906101000a900473ffffffffffffffffffffffffffffffffffffffff1673ffffffffffffffffffffffffffffffffffffffff166108fc479081150290604051600060405180830381858888f19350505050158015610382573d6000803e3d6000fd5b506001818154811061039757610396610997565b5b9060005260206000200160009054906101000a900473ffffffffffffffffffffffffffffffffffffffff1660036000600254815260200190815260200160002060006101000a81548173ffffffffffffffffffffffffffffffffffffffff021916908373ffffffffffffffffffffffffffffffffffffffff16021790555060026000815480929190610428906109f5565b9190505550600067ffffffffffffffff81111561044857610447610a3d565b5b6040519080825280602002602001820160405280156104765781602001602082028036833780820191505090505b506001908051906020019061048c929190610686565b5050565b60036020528060005260406000206000915054906101000a900473ffffffffffffffffffffffffffffffffffffffff1681565b6060600180548060200260200160405190810160405280929190818152602001828054801561054757602002820191906000526020600020905b8160009054906101000a900473ffffffffffffffffffffffffffffffffffffffff1673ffffffffffffffffffffffffffffffffffffffff16815260200190600101908083116104fd575b5050505050905090565b60008054906101000a900473ffffffffffffffffffffffffffffffffffffffff1681565b60025481565b60008060009054906101000a900473ffffffffffffffffffffffffffffffffffffffff16426040516020016105b1929190610ad5565b6040516020818303038152906040528051906020012060001c905090565b66038d7ea4c6800034116105e257600080fd5b6001339080600181540180825580915050600190039060005260206000200160009091909190916101000a81548173ffffffffffffffffffffffffffffffffffffffff021916908373ffffffffffffffffffffffffffffffffffffffff160217905550565b6001818154811061065757600080fd5b906000526020600020016000915054906101000a900473ffffffffffffffffffffffffffffffffffffffff1681565b8280548282559060005260206000209081019282156106ff579160200282015b828111156106fe5782518260006101000a81548173ffffffffffffffffffffffffffffffffffffffff021916908373ffffffffffffffffffffffffffffffffffffffff160217905550916020019190600101906106a6565b5b50905061070c9190610710565b5090565b5b80821115610729576000816000905550600101610711565b5090565b6000819050919050565b6107408161072d565b82525050565b600060208201905061075b6000830184610737565b92915050565b600080fd5b61076f8161072d565b811461077a57600080fd5b50565b60008135905061078c81610766565b92915050565b6000602082840312156107a8576107a7610761565b5b60006107b68482850161077d565b91505092915050565b600073ffffffffffffffffffffffffffffffffffffffff82169050919050565b60006107ea826107bf565b9050919050565b6107fa816107df565b82525050565b600060208201905061081560008301846107f1565b92915050565b600081519050919050565b600082825260208201905092915050565b6000819050602082019050919050565b610850816107df565b82525050565b60006108628383610847565b60208301905092915050565b6000602082019050919050565b60006108868261081b565b6108908185610826565b935061089b83610837565b8060005b838110156108cc5781516108b38882610856565b97506108be8361086e565b92505060018101905061089f565b5085935050505092915050565b600060208201905081810360008301526108f3818461087b565b905092915050565b6000610906826107bf565b9050919050565b610916816108fb565b82525050565b6000602082019050610931600083018461090d565b92915050565b7f4e487b7100000000000000000000000000000000000000000000000000000000600052601260045260246000fd5b60006109718261072d565b915061097c8361072d565b92508261098c5761098b610937565b5b828206905092915050565b7f4e487b7100000000000000000000000000000000000000000000000000000000600052603260045260246000fd5b7f4e487b7100000000000000000000000000000000000000000000000000000000600052601160045260246000fd5b6000610a008261072d565b91507fffffffffffffffffffffffffffffffffffffffffffffffffffffffffffffffff8203610a3257610a316109c6565b5b600182019050919050565b7f4e487b7100000000000000000000000000000000000000000000000000000000600052604160045260246000fd5b60008160601b9050919050565b6000610a8482610a6c565b9050919050565b6000610a9682610a79565b9050919050565b610aae610aa9826108fb565b610a8b565b82525050565b6000819050919050565b610acf610aca8261072d565b610ab4565b82525050565b6000610ae18285610a9d565b601482019150610af18284610abe565b602082019150819050939250505056fea2646970667358221220f003e57fab6e6a679ca87d7f589f5fb81ff8b97843cf1e6dc9d9048b42eb213c64736f6c634300080d0033",
					"opcodes": "PUSH1 0x80 PUSH1 0x40 MSTORE CALLVALUE DUP1 ISZERO PUSH2 0x10 JUMPI PUSH1 0x0 DUP1 REVERT JUMPDEST POP CALLER PUSH1 0x0 DUP1 PUSH2 0x100 EXP DUP2 SLOAD DUP2 PUSH20 0xFFFFFFFFFFFFFFFFFFFFFFFFFFFFFFFFFFFFFFFF MUL NOT AND SWAP1 DUP4 PUSH20 0xFFFFFFFFFFFFFFFFFFFFFFFFFFFFFFFFFFFFFFFF AND MUL OR SWAP1 SSTORE POP PUSH1 0x1 PUSH1 0x2 DUP2 SWAP1 SSTORE POP PUSH2 0xB37 DUP1 PUSH2 0x68 PUSH1 0x0 CODECOPY PUSH1 0x0 RETURN INVALID PUSH1 0x80 PUSH1 0x40 MSTORE PUSH1 0x4 CALLDATASIZE LT PUSH2 0x91 JUMPI PUSH1 0x0 CALLDATALOAD PUSH1 0xE0 SHR DUP1 PUSH4 0x8DA5CB5B GT PUSH2 0x59 JUMPI DUP1 PUSH4 0x8DA5CB5B EQ PUSH2 0x17D JUMPI DUP1 PUSH4 0xA32673D5 EQ PUSH2 0x1A8 JUMPI DUP1 PUSH4 0xDBDFF2C1 EQ PUSH2 0x1D3 JUMPI DUP1 PUSH4 0xE97DCB62 EQ PUSH2 0x1FE JUMPI DUP1 PUSH4 0xF71D96CB EQ PUSH2 0x208 JUMPI PUSH2 0x91 JUMP JUMPDEST DUP1 PUSH4 0x12065FE0 EQ PUSH2 0x96 JUMPI DUP1 PUSH4 0x281D098D EQ PUSH2 0xC1 JUMPI DUP1 PUSH4 0x5D495AEA EQ PUSH2 0xFE JUMPI DUP1 PUSH4 0x6D6FE230 EQ PUSH2 0x115 JUMPI DUP1 PUSH4 0x8B5B9CCC EQ PUSH2 0x152 JUMPI JUMPDEST PUSH1 0x0 DUP1 REVERT JUMPDEST CALLVALUE DUP1 ISZERO PUSH2 0xA2 JUMPI PUSH1 0x0 DUP1 REVERT JUMPDEST POP PUSH2 0xAB PUSH2 0x245 JUMP JUMPDEST PUSH1 0x40 MLOAD PUSH2 0xB8 SWAP2 SWAP1 PUSH2 0x746 JUMP JUMPDEST PUSH1 0x40 MLOAD DUP1 SWAP2 SUB SWAP1 RETURN JUMPDEST CALLVALUE DUP1 ISZERO PUSH2 0xCD JUMPI PUSH1 0x0 DUP1 REVERT JUMPDEST POP PUSH2 0xE8 PUSH1 0x4 DUP1 CALLDATASIZE SUB DUP2 ADD SWAP1 PUSH2 0xE3 SWAP2 SWAP1 PUSH2 0x792 JUMP JUMPDEST PUSH2 0x24D JUMP JUMPDEST PUSH1 0x40 MLOAD PUSH2 0xF5 SWAP2 SWAP1 PUSH2 0x800 JUMP JUMPDEST PUSH1 0x40 MLOAD DUP1 SWAP2 SUB SWAP1 RETURN JUMPDEST CALLVALUE DUP1 ISZERO PUSH2 0x10A JUMPI PUSH1 0x0 DUP1 REVERT JUMPDEST POP PUSH2 0x113 PUSH2 0x28A JUMP JUMPDEST STOP JUMPDEST CALLVALUE DUP1 ISZERO PUSH2 0x121 JUMPI PUSH1 0x0 DUP1 REVERT JUMPDEST POP PUSH2 0x13C PUSH1 0x4 DUP1 CALLDATASIZE SUB DUP2 ADD SWAP1 PUSH2 0x137 SWAP2 SWAP1 PUSH2 0x792 JUMP JUMPDEST PUSH2 0x490 JUMP JUMPDEST PUSH1 0x40 MLOAD PUSH2 0x149 SWAP2 SWAP1 PUSH2 0x800 JUMP JUMPDEST PUSH1 0x40 MLOAD DUP1 SWAP2 SUB SWAP1 RETURN JUMPDEST CALLVALUE DUP1 ISZERO PUSH2 0x15E JUMPI PUSH1 0x0 DUP1 REVERT JUMPDEST POP PUSH2 0x167 PUSH2 0x4C3 JUMP JUMPDEST PUSH1 0x40 MLOAD PUSH2 0x174 SWAP2 SWAP1 PUSH2 0x8D9 JUMP JUMPDEST PUSH1 0x40 MLOAD DUP1 SWAP2 SUB SWAP1 RETURN JUMPDEST CALLVALUE DUP1 ISZERO PUSH2 0x189 JUMPI PUSH1 0x0 DUP1 REVERT JUMPDEST POP PUSH2 0x192 PUSH2 0x551 JUMP JUMPDEST PUSH1 0x40 MLOAD PUSH2 0x19F SWAP2 SWAP1 PUSH2 0x91C JUMP JUMPDEST PUSH1 0x40 MLOAD DUP1 SWAP2 SUB SWAP1 RETURN JUMPDEST CALLVALUE DUP1 ISZERO PUSH2 0x1B4 JUMPI PUSH1 0x0 DUP1 REVERT JUMPDEST POP PUSH2 0x1BD PUSH2 0x575 JUMP JUMPDEST PUSH1 0x40 MLOAD PUSH2 0x1CA SWAP2 SWAP1 PUSH2 0x746 JUMP JUMPDEST PUSH1 0x40 MLOAD DUP1 SWAP2 SUB SWAP1 RETURN JUMPDEST CALLVALUE DUP1 ISZERO PUSH2 0x1DF JUMPI PUSH1 0x0 DUP1 REVERT JUMPDEST POP PUSH2 0x1E8 PUSH2 0x57B JUMP JUMPDEST PUSH1 0x40 MLOAD PUSH2 0x1F5 SWAP2 SWAP1 PUSH2 0x746 JUMP JUMPDEST PUSH1 0x40 MLOAD DUP1 SWAP2 SUB SWAP1 RETURN JUMPDEST PUSH2 0x206 PUSH2 0x5CF JUMP JUMPDEST STOP JUMPDEST CALLVALUE DUP1 ISZERO PUSH2 0x214 JUMPI PUSH1 0x0 DUP1 REVERT JUMPDEST POP PUSH2 0x22F PUSH1 0x4 DUP1 CALLDATASIZE SUB DUP2 ADD SWAP1 PUSH2 0x22A SWAP2 SWAP1 PUSH2 0x792 JUMP JUMPDEST PUSH2 0x647 JUMP JUMPDEST PUSH1 0x40 MLOAD PUSH2 0x23C SWAP2 SWAP1 PUSH2 0x800 JUMP JUMPDEST PUSH1 0x40 MLOAD DUP1 SWAP2 SUB SWAP1 RETURN JUMPDEST PUSH1 0x0 SELFBALANCE SWAP1 POP SWAP1 JUMP JUMPDEST PUSH1 0x0 PUSH1 0x3 PUSH1 0x0 DUP4 DUP2 MSTORE PUSH1 0x20 ADD SWAP1 DUP2 MSTORE PUSH1 0x20 ADD PUSH1 0x0 KECCAK256 PUSH1 0x0 SWAP1 SLOAD SWAP1 PUSH2 0x100 EXP SWAP1 DIV PUSH20 0xFFFFFFFFFFFFFFFFFFFFFFFFFFFFFFFFFFFFFFFF AND SWAP1 POP SWAP2 SWAP1 POP JUMP JUMPDEST PUSH1 0x0 DUP1 SLOAD SWAP1 PUSH2 0x100 EXP SWAP1 DIV PUSH20 0xFFFFFFFFFFFFFFFFFFFFFFFFFFFFFFFFFFFFFFFF AND PUSH20 0xFFFFFFFFFFFFFFFFFFFFFFFFFFFFFFFFFFFFFFFF AND CALLER PUSH20 0xFFFFFFFFFFFFFFFFFFFFFFFFFFFFFFFFFFFFFFFF AND EQ PUSH2 0x2E2 JUMPI PUSH1 0x0 DUP1 REVERT JUMPDEST PUSH1 0x0 PUSH1 0x1 DUP1 SLOAD SWAP1 POP PUSH2 0x2F2 PUSH2 0x57B JUMP JUMPDEST PUSH2 0x2FC SWAP2 SWAP1 PUSH2 0x966 JUMP JUMPDEST SWAP1 POP PUSH1 0x1 DUP2 DUP2 SLOAD DUP2 LT PUSH2 0x312 JUMPI PUSH2 0x311 PUSH2 0x997 JUMP JUMPDEST JUMPDEST SWAP1 PUSH1 0x0 MSTORE PUSH1 0x20 PUSH1 0x0 KECCAK256 ADD PUSH1 0x0 SWAP1 SLOAD SWAP1 PUSH2 0x100 EXP SWAP1 DIV PUSH20 0xFFFFFFFFFFFFFFFFFFFFFFFFFFFFFFFFFFFFFFFF AND PUSH20 0xFFFFFFFFFFFFFFFFFFFFFFFFFFFFFFFFFFFFFFFF AND PUSH2 0x8FC SELFBALANCE SWAP1 DUP2 ISZERO MUL SWAP1 PUSH1 0x40 MLOAD PUSH1 0x0 PUSH1 0x40 MLOAD DUP1 DUP4 SUB DUP2 DUP6 DUP9 DUP9 CALL SWAP4 POP POP POP POP ISZERO DUP1 ISZERO PUSH2 0x382 JUMPI RETURNDATASIZE PUSH1 0x0 DUP1 RETURNDATACOPY RETURNDATASIZE PUSH1 0x0 REVERT JUMPDEST POP PUSH1 0x1 DUP2 DUP2 SLOAD DUP2 LT PUSH2 0x397 JUMPI PUSH2 0x396 PUSH2 0x997 JUMP JUMPDEST JUMPDEST SWAP1 PUSH1 0x0 MSTORE PUSH1 0x20 PUSH1 0x0 KECCAK256 ADD PUSH1 0x0 SWAP1 SLOAD SWAP1 PUSH2 0x100 EXP SWAP1 DIV PUSH20 0xFFFFFFFFFFFFFFFFFFFFFFFFFFFFFFFFFFFFFFFF AND PUSH1 0x3 PUSH1 0x0 PUSH1 0x2 SLOAD DUP2 MSTORE PUSH1 0x20 ADD SWAP1 DUP2 MSTORE PUSH1 0x20 ADD PUSH1 0x0 KECCAK256 PUSH1 0x0 PUSH2 0x100 EXP DUP2 SLOAD DUP2 PUSH20 0xFFFFFFFFFFFFFFFFFFFFFFFFFFFFFFFFFFFFFFFF MUL NOT AND SWAP1 DUP4 PUSH20 0xFFFFFFFFFFFFFFFFFFFFFFFFFFFFFFFFFFFFFFFF AND MUL OR SWAP1 SSTORE POP PUSH1 0x2 PUSH1 0x0 DUP2 SLOAD DUP1 SWAP3 SWAP2 SWAP1 PUSH2 0x428 SWAP1 PUSH2 0x9F5 JUMP JUMPDEST SWAP2 SWAP1 POP SSTORE POP PUSH1 0x0 PUSH8 0xFFFFFFFFFFFFFFFF DUP2 GT ISZERO PUSH2 0x448 JUMPI PUSH2 0x447 PUSH2 0xA3D JUMP JUMPDEST JUMPDEST PUSH1 0x40 MLOAD SWAP1 DUP1 DUP3 MSTORE DUP1 PUSH1 0x20 MUL PUSH1 0x20 ADD DUP3 ADD PUSH1 0x40 MSTORE DUP1 ISZERO PUSH2 0x476 JUMPI DUP2 PUSH1 0x20 ADD PUSH1 0x20 DUP3 MUL DUP1 CALLDATASIZE DUP4 CALLDATACOPY DUP1 DUP3 ADD SWAP2 POP POP SWAP1 POP JUMPDEST POP PUSH1 0x1 SWAP1 DUP1 MLOAD SWAP1 PUSH1 0x20 ADD SWAP1 PUSH2 0x48C SWAP3 SWAP2 SWAP1 PUSH2 0x686 JUMP JUMPDEST POP POP JUMP JUMPDEST PUSH1 0x3 PUSH1 0x20 MSTORE DUP1 PUSH1 0x0 MSTORE PUSH1 0x40 PUSH1 0x0 KECCAK256 PUSH1 0x0 SWAP2 POP SLOAD SWAP1 PUSH2 0x100 EXP SWAP1 DIV PUSH20 0xFFFFFFFFFFFFFFFFFFFFFFFFFFFFFFFFFFFFFFFF AND DUP2 JUMP JUMPDEST PUSH1 0x60 PUSH1 0x1 DUP1 SLOAD DUP1 PUSH1 0x20 MUL PUSH1 0x20 ADD PUSH1 0x40 MLOAD SWAP1 DUP2 ADD PUSH1 0x40 MSTORE DUP1 SWAP3 SWAP2 SWAP1 DUP2 DUP2 MSTORE PUSH1 0x20 ADD DUP3 DUP1 SLOAD DUP1 ISZERO PUSH2 0x547 JUMPI PUSH1 0x20 MUL DUP3 ADD SWAP2 SWAP1 PUSH1 0x0 MSTORE PUSH1 0x20 PUSH1 0x0 KECCAK256 SWAP1 JUMPDEST DUP2 PUSH1 0x0 SWAP1 SLOAD SWAP1 PUSH2 0x100 EXP SWAP1 DIV PUSH20 0xFFFFFFFFFFFFFFFFFFFFFFFFFFFFFFFFFFFFFFFF AND PUSH20 0xFFFFFFFFFFFFFFFFFFFFFFFFFFFFFFFFFFFFFFFF AND DUP2 MSTORE PUSH1 0x20 ADD SWAP1 PUSH1 0x1 ADD SWAP1 DUP1 DUP4 GT PUSH2 0x4FD JUMPI JUMPDEST POP POP POP POP POP SWAP1 POP SWAP1 JUMP JUMPDEST PUSH1 0x0 DUP1 SLOAD SWAP1 PUSH2 0x100 EXP SWAP1 DIV PUSH20 0xFFFFFFFFFFFFFFFFFFFFFFFFFFFFFFFFFFFFFFFF AND DUP2 JUMP JUMPDEST PUSH1 0x2 SLOAD DUP2 JUMP JUMPDEST PUSH1 0x0 DUP1 PUSH1 0x0 SWAP1 SLOAD SWAP1 PUSH2 0x100 EXP SWAP1 DIV PUSH20 0xFFFFFFFFFFFFFFFFFFFFFFFFFFFFFFFFFFFFFFFF AND TIMESTAMP PUSH1 0x40 MLOAD PUSH1 0x20 ADD PUSH2 0x5B1 SWAP3 SWAP2 SWAP1 PUSH2 0xAD5 JUMP JUMPDEST PUSH1 0x40 MLOAD PUSH1 0x20 DUP2 DUP4 SUB SUB DUP2 MSTORE SWAP1 PUSH1 0x40 MSTORE DUP1 MLOAD SWAP1 PUSH1 0x20 ADD KECCAK256 PUSH1 0x0 SHR SWAP1 POP SWAP1 JUMP JUMPDEST PUSH7 0x38D7EA4C68000 CALLVALUE GT PUSH2 0x5E2 JUMPI PUSH1 0x0 DUP1 REVERT JUMPDEST PUSH1 0x1 CALLER SWAP1 DUP1 PUSH1 0x1 DUP2 SLOAD ADD DUP1 DUP3 SSTORE DUP1 SWAP2 POP POP PUSH1 0x1 SWAP1 SUB SWAP1 PUSH1 0x0 MSTORE PUSH1 0x20 PUSH1 0x0 KECCAK256 ADD PUSH1 0x0 SWAP1 SWAP2 SWAP1 SWAP2 SWAP1 SWAP2 PUSH2 0x100 EXP DUP2 SLOAD DUP2 PUSH20 0xFFFFFFFFFFFFFFFFFFFFFFFFFFFFFFFFFFFFFFFF MUL NOT AND SWAP1 DUP4 PUSH20 0xFFFFFFFFFFFFFFFFFFFFFFFFFFFFFFFFFFFFFFFF AND MUL OR SWAP1 SSTORE POP JUMP JUMPDEST PUSH1 0x1 DUP2 DUP2 SLOAD DUP2 LT PUSH2 0x657 JUMPI PUSH1 0x0 DUP1 REVERT JUMPDEST SWAP1 PUSH1 0x0 MSTORE PUSH1 0x20 PUSH1 0x0 KECCAK256 ADD PUSH1 0x0 SWAP2 POP SLOAD SWAP1 PUSH2 0x100 EXP SWAP1 DIV PUSH20 0xFFFFFFFFFFFFFFFFFFFFFFFFFFFFFFFFFFFFFFFF AND DUP2 JUMP JUMPDEST DUP3 DUP1 SLOAD DUP3 DUP3 SSTORE SWAP1 PUSH1 0x0 MSTORE PUSH1 0x20 PUSH1 0x0 KECCAK256 SWAP1 DUP2 ADD SWAP3 DUP3 ISZERO PUSH2 0x6FF JUMPI SWAP2 PUSH1 0x20 MUL DUP3 ADD JUMPDEST DUP3 DUP2 GT ISZERO PUSH2 0x6FE JUMPI DUP3 MLOAD DUP3 PUSH1 0x0 PUSH2 0x100 EXP DUP2 SLOAD DUP2 PUSH20 0xFFFFFFFFFFFFFFFFFFFFFFFFFFFFFFFFFFFFFFFF MUL NOT AND SWAP1 DUP4 PUSH20 0xFFFFFFFFFFFFFFFFFFFFFFFFFFFFFFFFFFFFFFFF AND MUL OR SWAP1 SSTORE POP SWAP2 PUSH1 0x20 ADD SWAP2 SWAP1 PUSH1 0x1 ADD SWAP1 PUSH2 0x6A6 JUMP JUMPDEST JUMPDEST POP SWAP1 POP PUSH2 0x70C SWAP2 SWAP1 PUSH2 0x710 JUMP JUMPDEST POP SWAP1 JUMP JUMPDEST JUMPDEST DUP1 DUP3 GT ISZERO PUSH2 0x729 JUMPI PUSH1 0x0 DUP2 PUSH1 0x0 SWAP1 SSTORE POP PUSH1 0x1 ADD PUSH2 0x711 JUMP JUMPDEST POP SWAP1 JUMP JUMPDEST PUSH1 0x0 DUP2 SWAP1 POP SWAP2 SWAP1 POP JUMP JUMPDEST PUSH2 0x740 DUP2 PUSH2 0x72D JUMP JUMPDEST DUP3 MSTORE POP POP JUMP JUMPDEST PUSH1 0x0 PUSH1 0x20 DUP3 ADD SWAP1 POP PUSH2 0x75B PUSH1 0x0 DUP4 ADD DUP5 PUSH2 0x737 JUMP JUMPDEST SWAP3 SWAP2 POP POP JUMP JUMPDEST PUSH1 0x0 DUP1 REVERT JUMPDEST PUSH2 0x76F DUP2 PUSH2 0x72D JUMP JUMPDEST DUP2 EQ PUSH2 0x77A JUMPI PUSH1 0x0 DUP1 REVERT JUMPDEST POP JUMP JUMPDEST PUSH1 0x0 DUP2 CALLDATALOAD SWAP1 POP PUSH2 0x78C DUP2 PUSH2 0x766 JUMP JUMPDEST SWAP3 SWAP2 POP POP JUMP JUMPDEST PUSH1 0x0 PUSH1 0x20 DUP3 DUP5 SUB SLT ISZERO PUSH2 0x7A8 JUMPI PUSH2 0x7A7 PUSH2 0x761 JUMP JUMPDEST JUMPDEST PUSH1 0x0 PUSH2 0x7B6 DUP5 DUP3 DUP6 ADD PUSH2 0x77D JUMP JUMPDEST SWAP2 POP POP SWAP3 SWAP2 POP POP JUMP JUMPDEST PUSH1 0x0 PUSH20 0xFFFFFFFFFFFFFFFFFFFFFFFFFFFFFFFFFFFFFFFF DUP3 AND SWAP1 POP SWAP2 SWAP1 POP JUMP JUMPDEST PUSH1 0x0 PUSH2 0x7EA DUP3 PUSH2 0x7BF JUMP JUMPDEST SWAP1 POP SWAP2 SWAP1 POP JUMP JUMPDEST PUSH2 0x7FA DUP2 PUSH2 0x7DF JUMP JUMPDEST DUP3 MSTORE POP POP JUMP JUMPDEST PUSH1 0x0 PUSH1 0x20 DUP3 ADD SWAP1 POP PUSH2 0x815 PUSH1 0x0 DUP4 ADD DUP5 PUSH2 0x7F1 JUMP JUMPDEST SWAP3 SWAP2 POP POP JUMP JUMPDEST PUSH1 0x0 DUP2 MLOAD SWAP1 POP SWAP2 SWAP1 POP JUMP JUMPDEST PUSH1 0x0 DUP3 DUP3 MSTORE PUSH1 0x20 DUP3 ADD SWAP1 POP SWAP3 SWAP2 POP POP JUMP JUMPDEST PUSH1 0x0 DUP2 SWAP1 POP PUSH1 0x20 DUP3 ADD SWAP1 POP SWAP2 SWAP1 POP JUMP JUMPDEST PUSH2 0x850 DUP2 PUSH2 0x7DF JUMP JUMPDEST DUP3 MSTORE POP POP JUMP JUMPDEST PUSH1 0x0 PUSH2 0x862 DUP4 DUP4 PUSH2 0x847 JUMP JUMPDEST PUSH1 0x20 DUP4 ADD SWAP1 POP SWAP3 SWAP2 POP POP JUMP JUMPDEST PUSH1 0x0 PUSH1 0x20 DUP3 ADD SWAP1 POP SWAP2 SWAP1 POP JUMP JUMPDEST PUSH1 0x0 PUSH2 0x886 DUP3 PUSH2 0x81B JUMP JUMPDEST PUSH2 0x890 DUP2 DUP6 PUSH2 0x826 JUMP JUMPDEST SWAP4 POP PUSH2 0x89B DUP4 PUSH2 0x837 JUMP JUMPDEST DUP1 PUSH1 0x0 JUMPDEST DUP4 DUP2 LT ISZERO PUSH2 0x8CC JUMPI DUP2 MLOAD PUSH2 0x8B3 DUP9 DUP3 PUSH2 0x856 JUMP JUMPDEST SWAP8 POP PUSH2 0x8BE DUP4 PUSH2 0x86E JUMP JUMPDEST SWAP3 POP POP PUSH1 0x1 DUP2 ADD SWAP1 POP PUSH2 0x89F JUMP JUMPDEST POP DUP6 SWAP4 POP POP POP POP SWAP3 SWAP2 POP POP JUMP JUMPDEST PUSH1 0x0 PUSH1 0x20 DUP3 ADD SWAP1 POP DUP2 DUP2 SUB PUSH1 0x0 DUP4 ADD MSTORE PUSH2 0x8F3 DUP2 DUP5 PUSH2 0x87B JUMP JUMPDEST SWAP1 POP SWAP3 SWAP2 POP POP JUMP JUMPDEST PUSH1 0x0 PUSH2 0x906 DUP3 PUSH2 0x7BF JUMP JUMPDEST SWAP1 POP SWAP2 SWAP1 POP JUMP JUMPDEST PUSH2 0x916 DUP2 PUSH2 0x8FB JUMP JUMPDEST DUP3 MSTORE POP POP JUMP JUMPDEST PUSH1 0x0 PUSH1 0x20 DUP3 ADD SWAP1 POP PUSH2 0x931 PUSH1 0x0 DUP4 ADD DUP5 PUSH2 0x90D JUMP JUMPDEST SWAP3 SWAP2 POP POP JUMP JUMPDEST PUSH32 0x4E487B7100000000000000000000000000000000000000000000000000000000 PUSH1 0x0 MSTORE PUSH1 0x12 PUSH1 0x4 MSTORE PUSH1 0x24 PUSH1 0x0 REVERT JUMPDEST PUSH1 0x0 PUSH2 0x971 DUP3 PUSH2 0x72D JUMP JUMPDEST SWAP2 POP PUSH2 0x97C DUP4 PUSH2 0x72D JUMP JUMPDEST SWAP3 POP DUP3 PUSH2 0x98C JUMPI PUSH2 0x98B PUSH2 0x937 JUMP JUMPDEST JUMPDEST DUP3 DUP3 MOD SWAP1 POP SWAP3 SWAP2 POP POP JUMP JUMPDEST PUSH32 0x4E487B7100000000000000000000000000000000000000000000000000000000 PUSH1 0x0 MSTORE PUSH1 0x32 PUSH1 0x4 MSTORE PUSH1 0x24 PUSH1 0x0 REVERT JUMPDEST PUSH32 0x4E487B7100000000000000000000000000000000000000000000000000000000 PUSH1 0x0 MSTORE PUSH1 0x11 PUSH1 0x4 MSTORE PUSH1 0x24 PUSH1 0x0 REVERT JUMPDEST PUSH1 0x0 PUSH2 0xA00 DUP3 PUSH2 0x72D JUMP JUMPDEST SWAP2 POP PUSH32 0xFFFFFFFFFFFFFFFFFFFFFFFFFFFFFFFFFFFFFFFFFFFFFFFFFFFFFFFFFFFFFFFF DUP3 SUB PUSH2 0xA32 JUMPI PUSH2 0xA31 PUSH2 0x9C6 JUMP JUMPDEST JUMPDEST PUSH1 0x1 DUP3 ADD SWAP1 POP SWAP2 SWAP1 POP JUMP JUMPDEST PUSH32 0x4E487B7100000000000000000000000000000000000000000000000000000000 PUSH1 0x0 MSTORE PUSH1 0x41 PUSH1 0x4 MSTORE PUSH1 0x24 PUSH1 0x0 REVERT JUMPDEST PUSH1 0x0 DUP2 PUSH1 0x60 SHL SWAP1 POP SWAP2 SWAP1 POP JUMP JUMPDEST PUSH1 0x0 PUSH2 0xA84 DUP3 PUSH2 0xA6C JUMP JUMPDEST SWAP1 POP SWAP2 SWAP1 POP JUMP JUMPDEST PUSH1 0x0 PUSH2 0xA96 DUP3 PUSH2 0xA79 JUMP JUMPDEST SWAP1 POP SWAP2 SWAP1 POP JUMP JUMPDEST PUSH2 0xAAE PUSH2 0xAA9 DUP3 PUSH2 0x8FB JUMP JUMPDEST PUSH2 0xA8B JUMP JUMPDEST DUP3 MSTORE POP POP JUMP JUMPDEST PUSH1 0x0 DUP2 SWAP1 POP SWAP2 SWAP1 POP JUMP JUMPDEST PUSH2 0xACF PUSH2 0xACA DUP3 PUSH2 0x72D JUMP JUMPDEST PUSH2 0xAB4 JUMP JUMPDEST DUP3 MSTORE POP POP JUMP JUMPDEST PUSH1 0x0 PUSH2 0xAE1 DUP3 DUP6 PUSH2 0xA9D JUMP JUMPDEST PUSH1 0x14 DUP3 ADD SWAP2 POP PUSH2 0xAF1 DUP3 DUP5 PUSH2 0xABE JUMP JUMPDEST PUSH1 0x20 DUP3 ADD SWAP2 POP DUP2 SWAP1 POP SWAP4 SWAP3 POP POP POP JUMP INVALID LOG2 PUSH5 0x6970667358 0x22 SLT KECCAK256 CREATE SUB 0xE5 PUSH32 0xAB6E6A679CA87D7F589F5FB81FF8B97843CF1E6DC9D9048B42EB213C64736F6C PUSH4 0x4300080D STOP CALLER "
				},
				"gasEstimates": {
					"creation": {
						"codeDepositCost": "574200",
						"executionCost": "46986",
						"totalCost": "621186"
					},
					"external": {
						"enter()": "48786",
						"getBalance()": "340",
						"getPlayers()": "infinite",
						"getRandomNumber()": "infinite",
						"getWinnerByLottery(uint256)": "2888",
						"loterryId()": "2451",
						"lotteryHistory(uint256)": "2906",
						"owner()": "2511",
						"pickWinner()": "infinite",
						"players(uint256)": "5044"
					}
				},
				"methodIdentifiers": {
					"enter()": "e97dcb62",
					"getBalance()": "12065fe0",
					"getPlayers()": "8b5b9ccc",
					"getRandomNumber()": "dbdff2c1",
					"getWinnerByLottery(uint256)": "281d098d",
					"loterryId()": "a32673d5",
					"lotteryHistory(uint256)": "6d6fe230",
					"owner()": "8da5cb5b",
					"pickWinner()": "5d495aea",
					"players(uint256)": "f71d96cb"
				}
			},
			"storageLayout": {
				"storage": [
					{
						"astId": 3,
						"contract": "contracts/Lottery.sol:Lottery",
						"label": "owner",
						"offset": 0,
						"slot": "0",
						"type": "t_address"
					},
					{
						"astId": 6,
						"contract": "contracts/Lottery.sol:Lottery",
						"label": "players",
						"offset": 0,
						"slot": "1",
						"type": "t_array(t_address_payable)dyn_storage"
					},
					{
						"astId": 8,
						"contract": "contracts/Lottery.sol:Lottery",
						"label": "loterryId",
						"offset": 0,
						"slot": "2",
						"type": "t_uint256"
					},
					{
						"astId": 12,
						"contract": "contracts/Lottery.sol:Lottery",
						"label": "lotteryHistory",
						"offset": 0,
						"slot": "3",
						"type": "t_mapping(t_uint256,t_address_payable)"
					}
				],
				"types": {
					"t_address": {
						"encoding": "inplace",
						"label": "address",
						"numberOfBytes": "20"
					},
					"t_address_payable": {
						"encoding": "inplace",
						"label": "address payable",
						"numberOfBytes": "20"
					},
					"t_array(t_address_payable)dyn_storage": {
						"base": "t_address_payable",
						"encoding": "dynamic_array",
						"label": "address payable[]",
						"numberOfBytes": "32"
					},
					"t_mapping(t_uint256,t_address_payable)": {
						"encoding": "mapping",
						"key": "t_uint256",
						"label": "mapping(uint256 => address payable)",
						"numberOfBytes": "32",
						"value": "t_address_payable"
					},
					"t_uint256": {
						"encoding": "inplace",
						"label": "uint256",
						"numberOfBytes": "32"
					}
				}
			},
			"userdoc": {
				"kind": "user",
				"methods": {},
				"version": 1
			}
		}
	}
}