{
	"contracts/Lottery.sol": {
		"Lottery": {
			"abi": [
				{
					"inputs": [],
					"stateMutability": "nonpayable",
					"type": "constructor"
				},
				{
					"inputs": [],
					"name": "enter",
					"outputs": [],
					"stateMutability": "payable",
					"type": "function"
				},
				{
					"inputs": [],
					"name": "getBalance",
					"outputs": [
						{
							"internalType": "uint256",
							"name": "",
							"type": "uint256"
						}
					],
					"stateMutability": "view",
					"type": "function"
				},
				{
					"inputs": [],
					"name": "getPlayers",
					"outputs": [
						{
							"internalType": "address payable[]",
							"name": "",
							"type": "address[]"
						}
					],
					"stateMutability": "view",
					"type": "function"
				},
				{
					"inputs": [],
					"name": "getRandomNumber",
					"outputs": [
						{
							"internalType": "uint256",
							"name": "",
							"type": "uint256"
						}
					],
					"stateMutability": "view",
					"type": "function"
				},
				{
					"inputs": [],
					"name": "owner",
					"outputs": [
						{
							"internalType": "address",
							"name": "",
							"type": "address"
						}
					],
					"stateMutability": "view",
					"type": "function"
				},
				{
					"inputs": [],
					"name": "pickWinner",
					"outputs": [],
					"stateMutability": "nonpayable",
					"type": "function"
				},
				{
					"inputs": [
						{
							"internalType": "uint256",
							"name": "",
							"type": "uint256"
						}
					],
					"name": "players",
					"outputs": [
						{
							"internalType": "address payable",
							"name": "",
							"type": "address"
						}
					],
					"stateMutability": "view",
					"type": "function"
				}
			],
			"devdoc": {
				"kind": "dev",
				"methods": {},
				"version": 1
			},
			"evm": {
				"assembly": "    /* \"contracts/Lottery.sol\":28:1017  contract Lottery {... */\n  mstore(0x40, 0x80)\n    /* \"contracts/Lottery.sol\":120:171  constructor() {... */\n  callvalue\n  dup1\n  iszero\n  tag_1\n  jumpi\n  0x00\n  dup1\n  revert\ntag_1:\n  pop\n    /* \"contracts/Lottery.sol\":153:163  msg.sender */\n  caller\n    /* \"contracts/Lottery.sol\":145:150  owner */\n  0x00\n  dup1\n    /* \"contracts/Lottery.sol\":145:163  owner = msg.sender */\n  0x0100\n  exp\n  dup2\n  sload\n  dup2\n  0xffffffffffffffffffffffffffffffffffffffff\n  mul\n  not\n  and\n  swap1\n  dup4\n  0xffffffffffffffffffffffffffffffffffffffff\n  and\n  mul\n  or\n  swap1\n  sstore\n  pop\n    /* \"contracts/Lottery.sol\":28:1017  contract Lottery {... */\n  dataSize(sub_0)\n  dup1\n  dataOffset(sub_0)\n  0x00\n  codecopy\n  0x00\n  return\nstop\n\nsub_0: assembly {\n        /* \"contracts/Lottery.sol\":28:1017  contract Lottery {... */\n      mstore(0x40, 0x80)\n      jumpi(tag_1, lt(calldatasize, 0x04))\n      shr(0xe0, calldataload(0x00))\n      dup1\n      0x8da5cb5b\n      gt\n      tag_9\n      jumpi\n      dup1\n      0x8da5cb5b\n      eq\n      tag_5\n      jumpi\n      dup1\n      0xdbdff2c1\n      eq\n      tag_6\n      jumpi\n      dup1\n      0xe97dcb62\n      eq\n      tag_7\n      jumpi\n      dup1\n      0xf71d96cb\n      eq\n      tag_8\n      jumpi\n      jump(tag_1)\n    tag_9:\n      dup1\n      0x12065fe0\n      eq\n      tag_2\n      jumpi\n      dup1\n      0x5d495aea\n      eq\n      tag_3\n      jumpi\n      dup1\n      0x8b5b9ccc\n      eq\n      tag_4\n      jumpi\n    tag_1:\n      0x00\n      dup1\n      revert\n        /* \"contracts/Lottery.sol\":179:275  function getBalance() public view returns (uint) {... */\n    tag_2:\n      callvalue\n      dup1\n      iszero\n      tag_10\n      jumpi\n      0x00\n      dup1\n      revert\n    tag_10:\n      pop\n      tag_11\n      tag_12\n      jump\t// in\n    tag_11:\n      mload(0x40)\n      tag_13\n      swap2\n      swap1\n      tag_14\n      jump\t// in\n    tag_13:\n      mload(0x40)\n      dup1\n      swap2\n      sub\n      swap1\n      return\n        /* \"contracts/Lottery.sol\":673:926  function pickWinner() public onlyOwner {... */\n    tag_3:\n      callvalue\n      dup1\n      iszero\n      tag_15\n      jumpi\n      0x00\n      dup1\n      revert\n    tag_15:\n      pop\n      tag_16\n      tag_17\n      jump\t// in\n    tag_16:\n      stop\n        /* \"contracts/Lottery.sol\":283:385  function getPlayers() public view returns (address payable[] memory) {... */\n    tag_4:\n      callvalue\n      dup1\n      iszero\n      tag_18\n      jumpi\n      0x00\n      dup1\n      revert\n    tag_18:\n      pop\n      tag_19\n      tag_20\n      jump\t// in\n    tag_19:\n      mload(0x40)\n      tag_21\n      swap2\n      swap1\n      tag_22\n      jump\t// in\n    tag_21:\n      mload(0x40)\n      dup1\n      swap2\n      sub\n      swap1\n      return\n        /* \"contracts/Lottery.sol\":52:72  address public owner */\n    tag_5:\n      callvalue\n      dup1\n      iszero\n      tag_23\n      jumpi\n      0x00\n      dup1\n      revert\n    tag_23:\n      pop\n      tag_24\n      tag_25\n      jump\t// in\n    tag_24:\n      mload(0x40)\n      tag_26\n      swap2\n      swap1\n      tag_27\n      jump\t// in\n    tag_26:\n      mload(0x40)\n      dup1\n      swap2\n      sub\n      swap1\n      return\n        /* \"contracts/Lottery.sol\":530:667  function getRandomNumber() public view returns (uint) {... */\n    tag_6:\n      callvalue\n      dup1\n      iszero\n      tag_28\n      jumpi\n      0x00\n      dup1\n      revert\n    tag_28:\n      pop\n      tag_29\n      tag_30\n      jump\t// in\n    tag_29:\n      mload(0x40)\n      tag_31\n      swap2\n      swap1\n      tag_14\n      jump\t// in\n    tag_31:\n      mload(0x40)\n      dup1\n      swap2\n      sub\n      swap1\n      return\n        /* \"contracts/Lottery.sol\":393:522  function enter () public payable {... */\n    tag_7:\n      tag_32\n      tag_33\n      jump\t// in\n    tag_32:\n      stop\n        /* \"contracts/Lottery.sol\":79:111  address payable[] public players */\n    tag_8:\n      callvalue\n      dup1\n      iszero\n      tag_34\n      jumpi\n      0x00\n      dup1\n      revert\n    tag_34:\n      pop\n      tag_35\n      0x04\n      dup1\n      calldatasize\n      sub\n      dup2\n      add\n      swap1\n      tag_36\n      swap2\n      swap1\n      tag_37\n      jump\t// in\n    tag_36:\n      tag_38\n      jump\t// in\n    tag_35:\n      mload(0x40)\n      tag_39\n      swap2\n      swap1\n      tag_40\n      jump\t// in\n    tag_39:\n      mload(0x40)\n      dup1\n      swap2\n      sub\n      swap1\n      return\n        /* \"contracts/Lottery.sol\":179:275  function getBalance() public view returns (uint) {... */\n    tag_12:\n        /* \"contracts/Lottery.sol\":222:226  uint */\n      0x00\n        /* \"contracts/Lottery.sol\":246:267  address(this).balance */\n      selfbalance\n        /* \"contracts/Lottery.sol\":239:267  return address(this).balance */\n      swap1\n      pop\n        /* \"contracts/Lottery.sol\":179:275  function getBalance() public view returns (uint) {... */\n      swap1\n      jump\t// out\n        /* \"contracts/Lottery.sol\":673:926  function pickWinner() public onlyOwner {... */\n    tag_17:\n        /* \"contracts/Lottery.sol\":988:993  owner */\n      0x00\n      dup1\n      sload\n      swap1\n      0x0100\n      exp\n      swap1\n      div\n      0xffffffffffffffffffffffffffffffffffffffff\n      and\n        /* \"contracts/Lottery.sol\":974:993  msg.sender == owner */\n      0xffffffffffffffffffffffffffffffffffffffff\n      and\n        /* \"contracts/Lottery.sol\":974:984  msg.sender */\n      caller\n        /* \"contracts/Lottery.sol\":974:993  msg.sender == owner */\n      0xffffffffffffffffffffffffffffffffffffffff\n      and\n      eq\n        /* \"contracts/Lottery.sol\":966:994  require(msg.sender == owner) */\n      tag_43\n      jumpi\n      0x00\n      dup1\n      revert\n    tag_43:\n        /* \"contracts/Lottery.sol\":733:743  uint index */\n      0x00\n        /* \"contracts/Lottery.sol\":766:773  players */\n      0x01\n        /* \"contracts/Lottery.sol\":766:780  players.length */\n      dup1\n      sload\n      swap1\n      pop\n        /* \"contracts/Lottery.sol\":746:763  getRandomNumber() */\n      tag_45\n        /* \"contracts/Lottery.sol\":746:761  getRandomNumber */\n      tag_30\n        /* \"contracts/Lottery.sol\":746:763  getRandomNumber() */\n      jump\t// in\n    tag_45:\n        /* \"contracts/Lottery.sol\":746:780  getRandomNumber() % players.length */\n      tag_46\n      swap2\n      swap1\n      tag_47\n      jump\t// in\n    tag_46:\n        /* \"contracts/Lottery.sol\":733:780  uint index = getRandomNumber() % players.length */\n      swap1\n      pop\n        /* \"contracts/Lottery.sol\":791:798  players */\n      0x01\n        /* \"contracts/Lottery.sol\":799:804  index */\n      dup2\n        /* \"contracts/Lottery.sol\":791:805  players[index] */\n      dup2\n      sload\n      dup2\n      lt\n      tag_48\n      jumpi\n      tag_49\n      tag_50\n      jump\t// in\n    tag_49:\n    tag_48:\n      swap1\n      0x00\n      mstore\n      keccak256(0x00, 0x20)\n      add\n      0x00\n      swap1\n      sload\n      swap1\n      0x0100\n      exp\n      swap1\n      div\n      0xffffffffffffffffffffffffffffffffffffffff\n      and\n        /* \"contracts/Lottery.sol\":791:814  players[index].transfer */\n      0xffffffffffffffffffffffffffffffffffffffff\n      and\n        /* \"contracts/Lottery.sol\":791:837  players[index].transfer(address(this).balance) */\n      0x08fc\n        /* \"contracts/Lottery.sol\":815:836  address(this).balance */\n      selfbalance\n        /* \"contracts/Lottery.sol\":791:837  players[index].transfer(address(this).balance) */\n      swap1\n      dup2\n      iszero\n      mul\n      swap1\n      mload(0x40)\n      0x00\n      mload(0x40)\n      dup1\n      dup4\n      sub\n      dup2\n      dup6\n      dup9\n      dup9\n      call\n      swap4\n      pop\n      pop\n      pop\n      pop\n      iszero\n      dup1\n      iszero\n      tag_53\n      jumpi\n      returndatasize\n      0x00\n      dup1\n      returndatacopy\n      revert(0x00, returndatasize)\n    tag_53:\n      pop\n        /* \"contracts/Lottery.sol\":916:917  0 */\n      0x00\n        /* \"contracts/Lottery.sol\":894:918  new address payable[](0) */\n      0xffffffffffffffff\n      dup2\n      gt\n      iszero\n      tag_54\n      jumpi\n      tag_55\n      tag_56\n      jump\t// in\n    tag_55:\n    tag_54:\n      mload(0x40)\n      swap1\n      dup1\n      dup3\n      mstore\n      dup1\n      0x20\n      mul\n      0x20\n      add\n      dup3\n      add\n      0x40\n      mstore\n      dup1\n      iszero\n      tag_57\n      jumpi\n      dup2\n      0x20\n      add\n      0x20\n      dup3\n      mul\n      dup1\n      calldatasize\n      dup4\n      calldatacopy\n      dup1\n      dup3\n      add\n      swap2\n      pop\n      pop\n      swap1\n      pop\n    tag_57:\n      pop\n        /* \"contracts/Lottery.sol\":884:891  players */\n      0x01\n        /* \"contracts/Lottery.sol\":884:918  players = new address payable[](0) */\n      swap1\n      dup1\n      mload\n      swap1\n      0x20\n      add\n      swap1\n      tag_58\n      swap3\n      swap2\n      swap1\n      tag_59\n      jump\t// in\n    tag_58:\n      pop\n        /* \"contracts/Lottery.sol\":712:926  {... */\n      pop\n        /* \"contracts/Lottery.sol\":673:926  function pickWinner() public onlyOwner {... */\n      jump\t// out\n        /* \"contracts/Lottery.sol\":283:385  function getPlayers() public view returns (address payable[] memory) {... */\n    tag_20:\n        /* \"contracts/Lottery.sol\":326:350  address payable[] memory */\n      0x60\n        /* \"contracts/Lottery.sol\":370:377  players */\n      0x01\n        /* \"contracts/Lottery.sol\":363:377  return players */\n      dup1\n      sload\n      dup1\n      0x20\n      mul\n      0x20\n      add\n      mload(0x40)\n      swap1\n      dup2\n      add\n      0x40\n      mstore\n      dup1\n      swap3\n      swap2\n      swap1\n      dup2\n      dup2\n      mstore\n      0x20\n      add\n      dup3\n      dup1\n      sload\n      dup1\n      iszero\n      tag_61\n      jumpi\n      0x20\n      mul\n      dup3\n      add\n      swap2\n      swap1\n      0x00\n      mstore\n      keccak256(0x00, 0x20)\n      swap1\n    tag_62:\n      dup2\n      0x00\n      swap1\n      sload\n      swap1\n      0x0100\n      exp\n      swap1\n      div\n      0xffffffffffffffffffffffffffffffffffffffff\n      and\n      0xffffffffffffffffffffffffffffffffffffffff\n      and\n      dup2\n      mstore\n      0x20\n      add\n      swap1\n      0x01\n      add\n      swap1\n      dup1\n      dup4\n      gt\n      tag_62\n      jumpi\n    tag_61:\n      pop\n      pop\n      pop\n      pop\n      pop\n      swap1\n      pop\n        /* \"contracts/Lottery.sol\":283:385  function getPlayers() public view returns (address payable[] memory) {... */\n      swap1\n      jump\t// out\n        /* \"contracts/Lottery.sol\":52:72  address public owner */\n    tag_25:\n      0x00\n      dup1\n      sload\n      swap1\n      0x0100\n      exp\n      swap1\n      div\n      0xffffffffffffffffffffffffffffffffffffffff\n      and\n      dup2\n      jump\t// out\n        /* \"contracts/Lottery.sol\":530:667  function getRandomNumber() public view returns (uint) {... */\n    tag_30:\n        /* \"contracts/Lottery.sol\":578:582  uint */\n      0x00\n        /* \"contracts/Lottery.sol\":634:639  owner */\n      dup1\n      0x00\n      swap1\n      sload\n      swap1\n      0x0100\n      exp\n      swap1\n      div\n      0xffffffffffffffffffffffffffffffffffffffff\n      and\n        /* \"contracts/Lottery.sol\":641:656  block.timestamp */\n      timestamp\n        /* \"contracts/Lottery.sol\":617:657  abi.encodePacked(owner, block.timestamp) */\n      add(0x20, mload(0x40))\n      tag_64\n      swap3\n      swap2\n      swap1\n      tag_65\n      jump\t// in\n    tag_64:\n      mload(0x40)\n      0x20\n      dup2\n      dup4\n      sub\n      sub\n      dup2\n      mstore\n      swap1\n      0x40\n      mstore\n        /* \"contracts/Lottery.sol\":607:658  keccak256(abi.encodePacked(owner, block.timestamp)) */\n      dup1\n      mload\n      swap1\n      0x20\n      add\n      keccak256\n        /* \"contracts/Lottery.sol\":602:659  uint(keccak256(abi.encodePacked(owner, block.timestamp))) */\n      0x00\n      shr\n        /* \"contracts/Lottery.sol\":595:659  return uint(keccak256(abi.encodePacked(owner, block.timestamp))) */\n      swap1\n      pop\n        /* \"contracts/Lottery.sol\":530:667  function getRandomNumber() public view returns (uint) {... */\n      swap1\n      jump\t// out\n        /* \"contracts/Lottery.sol\":393:522  function enter () public payable {... */\n    tag_33:\n        /* \"contracts/Lottery.sol\":457:467  .001 ether */\n      0x038d7ea4c68000\n        /* \"contracts/Lottery.sol\":445:454  msg.value */\n      callvalue\n        /* \"contracts/Lottery.sol\":445:467  msg.value > .001 ether */\n      gt\n        /* \"contracts/Lottery.sol\":437:468  require(msg.value > .001 ether) */\n      tag_67\n      jumpi\n      0x00\n      dup1\n      revert\n    tag_67:\n        /* \"contracts/Lottery.sol\":481:488  players */\n      0x01\n        /* \"contracts/Lottery.sol\":502:512  msg.sender */\n      caller\n        /* \"contracts/Lottery.sol\":481:514  players.push(payable(msg.sender)) */\n      swap1\n      dup1\n      0x01\n      dup2\n      sload\n      add\n      dup1\n      dup3\n      sstore\n      dup1\n      swap2\n      pop\n      pop\n      0x01\n      swap1\n      sub\n      swap1\n      0x00\n      mstore\n      keccak256(0x00, 0x20)\n      add\n      0x00\n      swap1\n      swap2\n      swap1\n      swap2\n      swap1\n      swap2\n      0x0100\n      exp\n      dup2\n      sload\n      dup2\n      0xffffffffffffffffffffffffffffffffffffffff\n      mul\n      not\n      and\n      swap1\n      dup4\n      0xffffffffffffffffffffffffffffffffffffffff\n      and\n      mul\n      or\n      swap1\n      sstore\n      pop\n        /* \"contracts/Lottery.sol\":393:522  function enter () public payable {... */\n      jump\t// out\n        /* \"contracts/Lottery.sol\":79:111  address payable[] public players */\n    tag_38:\n      0x01\n      dup2\n      dup2\n      sload\n      dup2\n      lt\n      tag_69\n      jumpi\n      0x00\n      dup1\n      revert\n    tag_69:\n      swap1\n      0x00\n      mstore\n      keccak256(0x00, 0x20)\n      add\n      0x00\n      swap2\n      pop\n      sload\n      swap1\n      0x0100\n      exp\n      swap1\n      div\n      0xffffffffffffffffffffffffffffffffffffffff\n      and\n      dup2\n      jump\t// out\n    tag_59:\n      dup3\n      dup1\n      sload\n      dup3\n      dup3\n      sstore\n      swap1\n      0x00\n      mstore\n      keccak256(0x00, 0x20)\n      swap1\n      dup2\n      add\n      swap3\n      dup3\n      iszero\n      tag_71\n      jumpi\n      swap2\n      0x20\n      mul\n      dup3\n      add\n    tag_72:\n      dup3\n      dup2\n      gt\n      iszero\n      tag_73\n      jumpi\n      dup3\n      mload\n      dup3\n      exp(0x0100, 0x00)\n      dup2\n      sload\n      dup2\n      0xffffffffffffffffffffffffffffffffffffffff\n      mul\n      not\n      and\n      swap1\n      dup4\n      0xffffffffffffffffffffffffffffffffffffffff\n      and\n      mul\n      or\n      swap1\n      sstore\n      pop\n      swap2\n      0x20\n      add\n      swap2\n      swap1\n      0x01\n      add\n      swap1\n      jump(tag_72)\n    tag_73:\n    tag_71:\n      pop\n      swap1\n      pop\n      tag_74\n      swap2\n      swap1\n      tag_75\n      jump\t// in\n    tag_74:\n      pop\n      swap1\n      jump\t// out\n    tag_75:\n    tag_76:\n      dup1\n      dup3\n      gt\n      iszero\n      tag_77\n      jumpi\n      0x00\n      dup2\n      0x00\n      swap1\n      sstore\n      pop\n      0x01\n      add\n      jump(tag_76)\n    tag_77:\n      pop\n      swap1\n      jump\t// out\n        /* \"#utility.yul\":7:84   */\n    tag_78:\n        /* \"#utility.yul\":44:51   */\n      0x00\n        /* \"#utility.yul\":73:78   */\n      dup2\n        /* \"#utility.yul\":62:78   */\n      swap1\n      pop\n        /* \"#utility.yul\":7:84   */\n      swap2\n      swap1\n      pop\n      jump\t// out\n        /* \"#utility.yul\":90:208   */\n    tag_79:\n        /* \"#utility.yul\":177:201   */\n      tag_107\n        /* \"#utility.yul\":195:200   */\n      dup2\n        /* \"#utility.yul\":177:201   */\n      tag_78\n      jump\t// in\n    tag_107:\n        /* \"#utility.yul\":172:175   */\n      dup3\n        /* \"#utility.yul\":165:202   */\n      mstore\n        /* \"#utility.yul\":90:208   */\n      pop\n      pop\n      jump\t// out\n        /* \"#utility.yul\":214:436   */\n    tag_14:\n        /* \"#utility.yul\":307:311   */\n      0x00\n        /* \"#utility.yul\":345:347   */\n      0x20\n        /* \"#utility.yul\":334:343   */\n      dup3\n        /* \"#utility.yul\":330:348   */\n      add\n        /* \"#utility.yul\":322:348   */\n      swap1\n      pop\n        /* \"#utility.yul\":358:429   */\n      tag_109\n        /* \"#utility.yul\":426:427   */\n      0x00\n        /* \"#utility.yul\":415:424   */\n      dup4\n        /* \"#utility.yul\":411:428   */\n      add\n        /* \"#utility.yul\":402:408   */\n      dup5\n        /* \"#utility.yul\":358:429   */\n      tag_79\n      jump\t// in\n    tag_109:\n        /* \"#utility.yul\":214:436   */\n      swap3\n      swap2\n      pop\n      pop\n      jump\t// out\n        /* \"#utility.yul\":442:564   */\n    tag_80:\n        /* \"#utility.yul\":517:523   */\n      0x00\n        /* \"#utility.yul\":551:556   */\n      dup2\n        /* \"#utility.yul\":545:557   */\n      mload\n        /* \"#utility.yul\":535:557   */\n      swap1\n      pop\n        /* \"#utility.yul\":442:564   */\n      swap2\n      swap1\n      pop\n      jump\t// out\n        /* \"#utility.yul\":570:762   */\n    tag_81:\n        /* \"#utility.yul\":677:688   */\n      0x00\n        /* \"#utility.yul\":711:717   */\n      dup3\n        /* \"#utility.yul\":706:709   */\n      dup3\n        /* \"#utility.yul\":699:718   */\n      mstore\n        /* \"#utility.yul\":751:755   */\n      0x20\n        /* \"#utility.yul\":746:749   */\n      dup3\n        /* \"#utility.yul\":742:756   */\n      add\n        /* \"#utility.yul\":727:756   */\n      swap1\n      pop\n        /* \"#utility.yul\":570:762   */\n      swap3\n      swap2\n      pop\n      pop\n      jump\t// out\n        /* \"#utility.yul\":768:908   */\n    tag_82:\n        /* \"#utility.yul\":843:847   */\n      0x00\n        /* \"#utility.yul\":866:869   */\n      dup2\n        /* \"#utility.yul\":858:869   */\n      swap1\n      pop\n        /* \"#utility.yul\":896:900   */\n      0x20\n        /* \"#utility.yul\":891:894   */\n      dup3\n        /* \"#utility.yul\":887:901   */\n      add\n        /* \"#utility.yul\":879:901   */\n      swap1\n      pop\n        /* \"#utility.yul\":768:908   */\n      swap2\n      swap1\n      pop\n      jump\t// out\n        /* \"#utility.yul\":914:1040   */\n    tag_83:\n        /* \"#utility.yul\":951:958   */\n      0x00\n        /* \"#utility.yul\":991:1033   */\n      0xffffffffffffffffffffffffffffffffffffffff\n        /* \"#utility.yul\":984:989   */\n      dup3\n        /* \"#utility.yul\":980:1034   */\n      and\n        /* \"#utility.yul\":969:1034   */\n      swap1\n      pop\n        /* \"#utility.yul\":914:1040   */\n      swap2\n      swap1\n      pop\n      jump\t// out\n        /* \"#utility.yul\":1046:1150   */\n    tag_84:\n        /* \"#utility.yul\":1091:1098   */\n      0x00\n        /* \"#utility.yul\":1120:1144   */\n      tag_115\n        /* \"#utility.yul\":1138:1143   */\n      dup3\n        /* \"#utility.yul\":1120:1144   */\n      tag_83\n      jump\t// in\n    tag_115:\n        /* \"#utility.yul\":1109:1144   */\n      swap1\n      pop\n        /* \"#utility.yul\":1046:1150   */\n      swap2\n      swap1\n      pop\n      jump\t// out\n        /* \"#utility.yul\":1156:1288   */\n    tag_85:\n        /* \"#utility.yul\":1249:1281   */\n      tag_117\n        /* \"#utility.yul\":1275:1280   */\n      dup2\n        /* \"#utility.yul\":1249:1281   */\n      tag_84\n      jump\t// in\n    tag_117:\n        /* \"#utility.yul\":1244:1247   */\n      dup3\n        /* \"#utility.yul\":1237:1282   */\n      mstore\n        /* \"#utility.yul\":1156:1288   */\n      pop\n      pop\n      jump\t// out\n        /* \"#utility.yul\":1294:1505   */\n    tag_86:\n        /* \"#utility.yul\":1379:1389   */\n      0x00\n        /* \"#utility.yul\":1400:1462   */\n      tag_119\n        /* \"#utility.yul\":1458:1461   */\n      dup4\n        /* \"#utility.yul\":1450:1456   */\n      dup4\n        /* \"#utility.yul\":1400:1462   */\n      tag_85\n      jump\t// in\n    tag_119:\n        /* \"#utility.yul\":1494:1498   */\n      0x20\n        /* \"#utility.yul\":1489:1492   */\n      dup4\n        /* \"#utility.yul\":1485:1499   */\n      add\n        /* \"#utility.yul\":1471:1499   */\n      swap1\n      pop\n        /* \"#utility.yul\":1294:1505   */\n      swap3\n      swap2\n      pop\n      pop\n      jump\t// out\n        /* \"#utility.yul\":1511:1632   */\n    tag_87:\n        /* \"#utility.yul\":1589:1593   */\n      0x00\n        /* \"#utility.yul\":1621:1625   */\n      0x20\n        /* \"#utility.yul\":1616:1619   */\n      dup3\n        /* \"#utility.yul\":1612:1626   */\n      add\n        /* \"#utility.yul\":1604:1626   */\n      swap1\n      pop\n        /* \"#utility.yul\":1511:1632   */\n      swap2\n      swap1\n      pop\n      jump\t// out\n        /* \"#utility.yul\":1684:2480   */\n    tag_88:\n        /* \"#utility.yul\":1819:1822   */\n      0x00\n        /* \"#utility.yul\":1848:1910   */\n      tag_122\n        /* \"#utility.yul\":1904:1909   */\n      dup3\n        /* \"#utility.yul\":1848:1910   */\n      tag_80\n      jump\t// in\n    tag_122:\n        /* \"#utility.yul\":1926:2020   */\n      tag_123\n        /* \"#utility.yul\":2013:2019   */\n      dup2\n        /* \"#utility.yul\":2008:2011   */\n      dup6\n        /* \"#utility.yul\":1926:2020   */\n      tag_81\n      jump\t// in\n    tag_123:\n        /* \"#utility.yul\":1919:2020   */\n      swap4\n      pop\n        /* \"#utility.yul\":2044:2108   */\n      tag_124\n        /* \"#utility.yul\":2102:2107   */\n      dup4\n        /* \"#utility.yul\":2044:2108   */\n      tag_82\n      jump\t// in\n    tag_124:\n        /* \"#utility.yul\":2131:2138   */\n      dup1\n        /* \"#utility.yul\":2162:2163   */\n      0x00\n        /* \"#utility.yul\":2147:2455   */\n    tag_125:\n        /* \"#utility.yul\":2172:2178   */\n      dup4\n        /* \"#utility.yul\":2169:2170   */\n      dup2\n        /* \"#utility.yul\":2166:2179   */\n      lt\n        /* \"#utility.yul\":2147:2455   */\n      iszero\n      tag_127\n      jumpi\n        /* \"#utility.yul\":2248:2254   */\n      dup2\n        /* \"#utility.yul\":2242:2255   */\n      mload\n        /* \"#utility.yul\":2275:2354   */\n      tag_128\n        /* \"#utility.yul\":2350:2353   */\n      dup9\n        /* \"#utility.yul\":2335:2348   */\n      dup3\n        /* \"#utility.yul\":2275:2354   */\n      tag_86\n      jump\t// in\n    tag_128:\n        /* \"#utility.yul\":2268:2354   */\n      swap8\n      pop\n        /* \"#utility.yul\":2377:2445   */\n      tag_129\n        /* \"#utility.yul\":2438:2444   */\n      dup4\n        /* \"#utility.yul\":2377:2445   */\n      tag_87\n      jump\t// in\n    tag_129:\n        /* \"#utility.yul\":2367:2445   */\n      swap3\n      pop\n        /* \"#utility.yul\":2207:2455   */\n      pop\n        /* \"#utility.yul\":2194:2195   */\n      0x01\n        /* \"#utility.yul\":2191:2192   */\n      dup2\n        /* \"#utility.yul\":2187:2196   */\n      add\n        /* \"#utility.yul\":2182:2196   */\n      swap1\n      pop\n        /* \"#utility.yul\":2147:2455   */\n      jump(tag_125)\n    tag_127:\n        /* \"#utility.yul\":2151:2165   */\n      pop\n        /* \"#utility.yul\":2471:2474   */\n      dup6\n        /* \"#utility.yul\":2464:2474   */\n      swap4\n      pop\n        /* \"#utility.yul\":1824:2480   */\n      pop\n      pop\n      pop\n        /* \"#utility.yul\":1684:2480   */\n      swap3\n      swap2\n      pop\n      pop\n      jump\t// out\n        /* \"#utility.yul\":2486:2891   */\n    tag_22:\n        /* \"#utility.yul\":2645:2649   */\n      0x00\n        /* \"#utility.yul\":2683:2685   */\n      0x20\n        /* \"#utility.yul\":2672:2681   */\n      dup3\n        /* \"#utility.yul\":2668:2686   */\n      add\n        /* \"#utility.yul\":2660:2686   */\n      swap1\n      pop\n        /* \"#utility.yul\":2732:2741   */\n      dup2\n        /* \"#utility.yul\":2726:2730   */\n      dup2\n        /* \"#utility.yul\":2722:2742   */\n      sub\n        /* \"#utility.yul\":2718:2719   */\n      0x00\n        /* \"#utility.yul\":2707:2716   */\n      dup4\n        /* \"#utility.yul\":2703:2720   */\n      add\n        /* \"#utility.yul\":2696:2743   */\n      mstore\n        /* \"#utility.yul\":2760:2884   */\n      tag_131\n        /* \"#utility.yul\":2879:2883   */\n      dup2\n        /* \"#utility.yul\":2870:2876   */\n      dup5\n        /* \"#utility.yul\":2760:2884   */\n      tag_88\n      jump\t// in\n    tag_131:\n        /* \"#utility.yul\":2752:2884   */\n      swap1\n      pop\n        /* \"#utility.yul\":2486:2891   */\n      swap3\n      swap2\n      pop\n      pop\n      jump\t// out\n        /* \"#utility.yul\":2897:2993   */\n    tag_89:\n        /* \"#utility.yul\":2934:2941   */\n      0x00\n        /* \"#utility.yul\":2963:2987   */\n      tag_133\n        /* \"#utility.yul\":2981:2986   */\n      dup3\n        /* \"#utility.yul\":2963:2987   */\n      tag_83\n      jump\t// in\n    tag_133:\n        /* \"#utility.yul\":2952:2987   */\n      swap1\n      pop\n        /* \"#utility.yul\":2897:2993   */\n      swap2\n      swap1\n      pop\n      jump\t// out\n        /* \"#utility.yul\":2999:3117   */\n    tag_90:\n        /* \"#utility.yul\":3086:3110   */\n      tag_135\n        /* \"#utility.yul\":3104:3109   */\n      dup2\n        /* \"#utility.yul\":3086:3110   */\n      tag_89\n      jump\t// in\n    tag_135:\n        /* \"#utility.yul\":3081:3084   */\n      dup3\n        /* \"#utility.yul\":3074:3111   */\n      mstore\n        /* \"#utility.yul\":2999:3117   */\n      pop\n      pop\n      jump\t// out\n        /* \"#utility.yul\":3123:3345   */\n    tag_27:\n        /* \"#utility.yul\":3216:3220   */\n      0x00\n        /* \"#utility.yul\":3254:3256   */\n      0x20\n        /* \"#utility.yul\":3243:3252   */\n      dup3\n        /* \"#utility.yul\":3239:3257   */\n      add\n        /* \"#utility.yul\":3231:3257   */\n      swap1\n      pop\n        /* \"#utility.yul\":3267:3338   */\n      tag_137\n        /* \"#utility.yul\":3335:3336   */\n      0x00\n        /* \"#utility.yul\":3324:3333   */\n      dup4\n        /* \"#utility.yul\":3320:3337   */\n      add\n        /* \"#utility.yul\":3311:3317   */\n      dup5\n        /* \"#utility.yul\":3267:3338   */\n      tag_90\n      jump\t// in\n    tag_137:\n        /* \"#utility.yul\":3123:3345   */\n      swap3\n      swap2\n      pop\n      pop\n      jump\t// out\n        /* \"#utility.yul\":3432:3549   */\n    tag_92:\n        /* \"#utility.yul\":3541:3542   */\n      0x00\n        /* \"#utility.yul\":3538:3539   */\n      dup1\n        /* \"#utility.yul\":3531:3543   */\n      revert\n        /* \"#utility.yul\":3678:3800   */\n    tag_94:\n        /* \"#utility.yul\":3751:3775   */\n      tag_142\n        /* \"#utility.yul\":3769:3774   */\n      dup2\n        /* \"#utility.yul\":3751:3775   */\n      tag_78\n      jump\t// in\n    tag_142:\n        /* \"#utility.yul\":3744:3749   */\n      dup2\n        /* \"#utility.yul\":3741:3776   */\n      eq\n        /* \"#utility.yul\":3731:3794   */\n      tag_143\n      jumpi\n        /* \"#utility.yul\":3790:3791   */\n      0x00\n        /* \"#utility.yul\":3787:3788   */\n      dup1\n        /* \"#utility.yul\":3780:3792   */\n      revert\n        /* \"#utility.yul\":3731:3794   */\n    tag_143:\n        /* \"#utility.yul\":3678:3800   */\n      pop\n      jump\t// out\n        /* \"#utility.yul\":3806:3945   */\n    tag_95:\n        /* \"#utility.yul\":3852:3857   */\n      0x00\n        /* \"#utility.yul\":3890:3896   */\n      dup2\n        /* \"#utility.yul\":3877:3897   */\n      calldataload\n        /* \"#utility.yul\":3868:3897   */\n      swap1\n      pop\n        /* \"#utility.yul\":3906:3939   */\n      tag_145\n        /* \"#utility.yul\":3933:3938   */\n      dup2\n        /* \"#utility.yul\":3906:3939   */\n      tag_94\n      jump\t// in\n    tag_145:\n        /* \"#utility.yul\":3806:3945   */\n      swap3\n      swap2\n      pop\n      pop\n      jump\t// out\n        /* \"#utility.yul\":3951:4280   */\n    tag_37:\n        /* \"#utility.yul\":4010:4016   */\n      0x00\n        /* \"#utility.yul\":4059:4061   */\n      0x20\n        /* \"#utility.yul\":4047:4056   */\n      dup3\n        /* \"#utility.yul\":4038:4045   */\n      dup5\n        /* \"#utility.yul\":4034:4057   */\n      sub\n        /* \"#utility.yul\":4030:4062   */\n      slt\n        /* \"#utility.yul\":4027:4146   */\n      iszero\n      tag_147\n      jumpi\n        /* \"#utility.yul\":4065:4144   */\n      tag_148\n      tag_92\n      jump\t// in\n    tag_148:\n        /* \"#utility.yul\":4027:4146   */\n    tag_147:\n        /* \"#utility.yul\":4185:4186   */\n      0x00\n        /* \"#utility.yul\":4210:4263   */\n      tag_149\n        /* \"#utility.yul\":4255:4262   */\n      dup5\n        /* \"#utility.yul\":4246:4252   */\n      dup3\n        /* \"#utility.yul\":4235:4244   */\n      dup6\n        /* \"#utility.yul\":4231:4253   */\n      add\n        /* \"#utility.yul\":4210:4263   */\n      tag_95\n      jump\t// in\n    tag_149:\n        /* \"#utility.yul\":4200:4263   */\n      swap2\n      pop\n        /* \"#utility.yul\":4156:4273   */\n      pop\n        /* \"#utility.yul\":3951:4280   */\n      swap3\n      swap2\n      pop\n      pop\n      jump\t// out\n        /* \"#utility.yul\":4286:4428   */\n    tag_96:\n        /* \"#utility.yul\":4389:4421   */\n      tag_151\n        /* \"#utility.yul\":4415:4420   */\n      dup2\n        /* \"#utility.yul\":4389:4421   */\n      tag_84\n      jump\t// in\n    tag_151:\n        /* \"#utility.yul\":4384:4387   */\n      dup3\n        /* \"#utility.yul\":4377:4422   */\n      mstore\n        /* \"#utility.yul\":4286:4428   */\n      pop\n      pop\n      jump\t// out\n        /* \"#utility.yul\":4434:4688   */\n    tag_40:\n        /* \"#utility.yul\":4543:4547   */\n      0x00\n        /* \"#utility.yul\":4581:4583   */\n      0x20\n        /* \"#utility.yul\":4570:4579   */\n      dup3\n        /* \"#utility.yul\":4566:4584   */\n      add\n        /* \"#utility.yul\":4558:4584   */\n      swap1\n      pop\n        /* \"#utility.yul\":4594:4681   */\n      tag_153\n        /* \"#utility.yul\":4678:4679   */\n      0x00\n        /* \"#utility.yul\":4667:4676   */\n      dup4\n        /* \"#utility.yul\":4663:4680   */\n      add\n        /* \"#utility.yul\":4654:4660   */\n      dup5\n        /* \"#utility.yul\":4594:4681   */\n      tag_96\n      jump\t// in\n    tag_153:\n        /* \"#utility.yul\":4434:4688   */\n      swap3\n      swap2\n      pop\n      pop\n      jump\t// out\n        /* \"#utility.yul\":4694:4874   */\n    tag_97:\n        /* \"#utility.yul\":4742:4819   */\n      0x4e487b7100000000000000000000000000000000000000000000000000000000\n        /* \"#utility.yul\":4739:4740   */\n      0x00\n        /* \"#utility.yul\":4732:4820   */\n      mstore\n        /* \"#utility.yul\":4839:4843   */\n      0x12\n        /* \"#utility.yul\":4836:4837   */\n      0x04\n        /* \"#utility.yul\":4829:4844   */\n      mstore\n        /* \"#utility.yul\":4863:4867   */\n      0x24\n        /* \"#utility.yul\":4860:4861   */\n      0x00\n        /* \"#utility.yul\":4853:4868   */\n      revert\n        /* \"#utility.yul\":4880:5056   */\n    tag_47:\n        /* \"#utility.yul\":4912:4913   */\n      0x00\n        /* \"#utility.yul\":4929:4949   */\n      tag_156\n        /* \"#utility.yul\":4947:4948   */\n      dup3\n        /* \"#utility.yul\":4929:4949   */\n      tag_78\n      jump\t// in\n    tag_156:\n        /* \"#utility.yul\":4924:4949   */\n      swap2\n      pop\n        /* \"#utility.yul\":4963:4983   */\n      tag_157\n        /* \"#utility.yul\":4981:4982   */\n      dup4\n        /* \"#utility.yul\":4963:4983   */\n      tag_78\n      jump\t// in\n    tag_157:\n        /* \"#utility.yul\":4958:4983   */\n      swap3\n      pop\n        /* \"#utility.yul\":5002:5003   */\n      dup3\n        /* \"#utility.yul\":4992:5027   */\n      tag_158\n      jumpi\n        /* \"#utility.yul\":5007:5025   */\n      tag_159\n      tag_97\n      jump\t// in\n    tag_159:\n        /* \"#utility.yul\":4992:5027   */\n    tag_158:\n        /* \"#utility.yul\":5048:5049   */\n      dup3\n        /* \"#utility.yul\":5045:5046   */\n      dup3\n        /* \"#utility.yul\":5041:5050   */\n      mod\n        /* \"#utility.yul\":5036:5050   */\n      swap1\n      pop\n        /* \"#utility.yul\":4880:5056   */\n      swap3\n      swap2\n      pop\n      pop\n      jump\t// out\n        /* \"#utility.yul\":5062:5242   */\n    tag_50:\n        /* \"#utility.yul\":5110:5187   */\n      0x4e487b7100000000000000000000000000000000000000000000000000000000\n        /* \"#utility.yul\":5107:5108   */\n      0x00\n        /* \"#utility.yul\":5100:5188   */\n      mstore\n        /* \"#utility.yul\":5207:5211   */\n      0x32\n        /* \"#utility.yul\":5204:5205   */\n      0x04\n        /* \"#utility.yul\":5197:5212   */\n      mstore\n        /* \"#utility.yul\":5231:5235   */\n      0x24\n        /* \"#utility.yul\":5228:5229   */\n      0x00\n        /* \"#utility.yul\":5221:5236   */\n      revert\n        /* \"#utility.yul\":5248:5428   */\n    tag_56:\n        /* \"#utility.yul\":5296:5373   */\n      0x4e487b7100000000000000000000000000000000000000000000000000000000\n        /* \"#utility.yul\":5293:5294   */\n      0x00\n        /* \"#utility.yul\":5286:5374   */\n      mstore\n        /* \"#utility.yul\":5393:5397   */\n      0x41\n        /* \"#utility.yul\":5390:5391   */\n      0x04\n        /* \"#utility.yul\":5383:5398   */\n      mstore\n        /* \"#utility.yul\":5417:5421   */\n      0x24\n        /* \"#utility.yul\":5414:5415   */\n      0x00\n        /* \"#utility.yul\":5407:5422   */\n      revert\n        /* \"#utility.yul\":5434:5528   */\n    tag_98:\n        /* \"#utility.yul\":5467:5475   */\n      0x00\n        /* \"#utility.yul\":5515:5520   */\n      dup2\n        /* \"#utility.yul\":5511:5513   */\n      0x60\n        /* \"#utility.yul\":5507:5521   */\n      shl\n        /* \"#utility.yul\":5486:5521   */\n      swap1\n      pop\n        /* \"#utility.yul\":5434:5528   */\n      swap2\n      swap1\n      pop\n      jump\t// out\n        /* \"#utility.yul\":5534:5628   */\n    tag_99:\n        /* \"#utility.yul\":5573:5580   */\n      0x00\n        /* \"#utility.yul\":5602:5622   */\n      tag_164\n        /* \"#utility.yul\":5616:5621   */\n      dup3\n        /* \"#utility.yul\":5602:5622   */\n      tag_98\n      jump\t// in\n    tag_164:\n        /* \"#utility.yul\":5591:5622   */\n      swap1\n      pop\n        /* \"#utility.yul\":5534:5628   */\n      swap2\n      swap1\n      pop\n      jump\t// out\n        /* \"#utility.yul\":5634:5734   */\n    tag_100:\n        /* \"#utility.yul\":5673:5680   */\n      0x00\n        /* \"#utility.yul\":5702:5728   */\n      tag_166\n        /* \"#utility.yul\":5722:5727   */\n      dup3\n        /* \"#utility.yul\":5702:5728   */\n      tag_99\n      jump\t// in\n    tag_166:\n        /* \"#utility.yul\":5691:5728   */\n      swap1\n      pop\n        /* \"#utility.yul\":5634:5734   */\n      swap2\n      swap1\n      pop\n      jump\t// out\n        /* \"#utility.yul\":5740:5897   */\n    tag_101:\n        /* \"#utility.yul\":5845:5890   */\n      tag_168\n        /* \"#utility.yul\":5865:5889   */\n      tag_169\n        /* \"#utility.yul\":5883:5888   */\n      dup3\n        /* \"#utility.yul\":5865:5889   */\n      tag_89\n      jump\t// in\n    tag_169:\n        /* \"#utility.yul\":5845:5890   */\n      tag_100\n      jump\t// in\n    tag_168:\n        /* \"#utility.yul\":5840:5843   */\n      dup3\n        /* \"#utility.yul\":5833:5891   */\n      mstore\n        /* \"#utility.yul\":5740:5897   */\n      pop\n      pop\n      jump\t// out\n        /* \"#utility.yul\":5903:5982   */\n    tag_102:\n        /* \"#utility.yul\":5942:5949   */\n      0x00\n        /* \"#utility.yul\":5971:5976   */\n      dup2\n        /* \"#utility.yul\":5960:5976   */\n      swap1\n      pop\n        /* \"#utility.yul\":5903:5982   */\n      swap2\n      swap1\n      pop\n      jump\t// out\n        /* \"#utility.yul\":5988:6145   */\n    tag_103:\n        /* \"#utility.yul\":6093:6138   */\n      tag_172\n        /* \"#utility.yul\":6113:6137   */\n      tag_173\n        /* \"#utility.yul\":6131:6136   */\n      dup3\n        /* \"#utility.yul\":6113:6137   */\n      tag_78\n      jump\t// in\n    tag_173:\n        /* \"#utility.yul\":6093:6138   */\n      tag_102\n      jump\t// in\n    tag_172:\n        /* \"#utility.yul\":6088:6091   */\n      dup3\n        /* \"#utility.yul\":6081:6139   */\n      mstore\n        /* \"#utility.yul\":5988:6145   */\n      pop\n      pop\n      jump\t// out\n        /* \"#utility.yul\":6151:6548   */\n    tag_65:\n        /* \"#utility.yul\":6291:6294   */\n      0x00\n        /* \"#utility.yul\":6306:6381   */\n      tag_175\n        /* \"#utility.yul\":6377:6380   */\n      dup3\n        /* \"#utility.yul\":6368:6374   */\n      dup6\n        /* \"#utility.yul\":6306:6381   */\n      tag_101\n      jump\t// in\n    tag_175:\n        /* \"#utility.yul\":6406:6408   */\n      0x14\n        /* \"#utility.yul\":6401:6404   */\n      dup3\n        /* \"#utility.yul\":6397:6409   */\n      add\n        /* \"#utility.yul\":6390:6409   */\n      swap2\n      pop\n        /* \"#utility.yul\":6419:6494   */\n      tag_176\n        /* \"#utility.yul\":6490:6493   */\n      dup3\n        /* \"#utility.yul\":6481:6487   */\n      dup5\n        /* \"#utility.yul\":6419:6494   */\n      tag_103\n      jump\t// in\n    tag_176:\n        /* \"#utility.yul\":6519:6521   */\n      0x20\n        /* \"#utility.yul\":6514:6517   */\n      dup3\n        /* \"#utility.yul\":6510:6522   */\n      add\n        /* \"#utility.yul\":6503:6522   */\n      swap2\n      pop\n        /* \"#utility.yul\":6539:6542   */\n      dup2\n        /* \"#utility.yul\":6532:6542   */\n      swap1\n      pop\n        /* \"#utility.yul\":6151:6548   */\n      swap4\n      swap3\n      pop\n      pop\n      pop\n      jump\t// out\n\n    auxdata: 0xa2646970667358221220603b891143f0d546a2390e87db81cfcad5f94bfe123332504874898e28ebffca64736f6c634300080d0033\n}\n",
				"bytecode": {
					"linkReferences": {},
					"object": "608060405234801561001057600080fd5b50336000806101000a81548173ffffffffffffffffffffffffffffffffffffffff021916908373ffffffffffffffffffffffffffffffffffffffff1602179055506108da806100606000396000f3fe6080604052600436106100705760003560e01c80638da5cb5b1161004e5780638da5cb5b146100e2578063dbdff2c11461010d578063e97dcb6214610138578063f71d96cb1461014257610070565b806312065fe0146100755780635d495aea146100a05780638b5b9ccc146100b7575b600080fd5b34801561008157600080fd5b5061008a61017f565b6040516100979190610560565b60405180910390f35b3480156100ac57600080fd5b506100b5610187565b005b3480156100c357600080fd5b506100cc6102e3565b6040516100d9919061066b565b60405180910390f35b3480156100ee57600080fd5b506100f7610371565b60405161010491906106ae565b60405180910390f35b34801561011957600080fd5b50610122610395565b60405161012f9190610560565b60405180910390f35b6101406103e9565b005b34801561014e57600080fd5b50610169600480360381019061016491906106fa565b610461565b6040516101769190610736565b60405180910390f35b600047905090565b60008054906101000a900473ffffffffffffffffffffffffffffffffffffffff1673ffffffffffffffffffffffffffffffffffffffff163373ffffffffffffffffffffffffffffffffffffffff16146101df57600080fd5b60006001805490506101ef610395565b6101f99190610780565b90506001818154811061020f5761020e6107b1565b5b9060005260206000200160009054906101000a900473ffffffffffffffffffffffffffffffffffffffff1673ffffffffffffffffffffffffffffffffffffffff166108fc479081150290604051600060405180830381858888f1935050505015801561027f573d6000803e3d6000fd5b50600067ffffffffffffffff81111561029b5761029a6107e0565b5b6040519080825280602002602001820160405280156102c95781602001602082028036833780820191505090505b50600190805190602001906102df9291906104a0565b5050565b6060600180548060200260200160405190810160405280929190818152602001828054801561036757602002820191906000526020600020905b8160009054906101000a900473ffffffffffffffffffffffffffffffffffffffff1673ffffffffffffffffffffffffffffffffffffffff168152602001906001019080831161031d575b5050505050905090565b60008054906101000a900473ffffffffffffffffffffffffffffffffffffffff1681565b60008060009054906101000a900473ffffffffffffffffffffffffffffffffffffffff16426040516020016103cb929190610878565b6040516020818303038152906040528051906020012060001c905090565b66038d7ea4c6800034116103fc57600080fd5b6001339080600181540180825580915050600190039060005260206000200160009091909190916101000a81548173ffffffffffffffffffffffffffffffffffffffff021916908373ffffffffffffffffffffffffffffffffffffffff160217905550565b6001818154811061047157600080fd5b906000526020600020016000915054906101000a900473ffffffffffffffffffffffffffffffffffffffff1681565b828054828255906000526020600020908101928215610519579160200282015b828111156105185782518260006101000a81548173ffffffffffffffffffffffffffffffffffffffff021916908373ffffffffffffffffffffffffffffffffffffffff160217905550916020019190600101906104c0565b5b509050610526919061052a565b5090565b5b8082111561054357600081600090555060010161052b565b5090565b6000819050919050565b61055a81610547565b82525050565b60006020820190506105756000830184610551565b92915050565b600081519050919050565b600082825260208201905092915050565b6000819050602082019050919050565b600073ffffffffffffffffffffffffffffffffffffffff82169050919050565b60006105d2826105a7565b9050919050565b6105e2816105c7565b82525050565b60006105f483836105d9565b60208301905092915050565b6000602082019050919050565b60006106188261057b565b6106228185610586565b935061062d83610597565b8060005b8381101561065e57815161064588826105e8565b975061065083610600565b925050600181019050610631565b5085935050505092915050565b60006020820190508181036000830152610685818461060d565b905092915050565b6000610698826105a7565b9050919050565b6106a88161068d565b82525050565b60006020820190506106c3600083018461069f565b92915050565b600080fd5b6106d781610547565b81146106e257600080fd5b50565b6000813590506106f4816106ce565b92915050565b6000602082840312156107105761070f6106c9565b5b600061071e848285016106e5565b91505092915050565b610730816105c7565b82525050565b600060208201905061074b6000830184610727565b92915050565b7f4e487b7100000000000000000000000000000000000000000000000000000000600052601260045260246000fd5b600061078b82610547565b915061079683610547565b9250826107a6576107a5610751565b5b828206905092915050565b7f4e487b7100000000000000000000000000000000000000000000000000000000600052603260045260246000fd5b7f4e487b7100000000000000000000000000000000000000000000000000000000600052604160045260246000fd5b60008160601b9050919050565b60006108278261080f565b9050919050565b60006108398261081c565b9050919050565b61085161084c8261068d565b61082e565b82525050565b6000819050919050565b61087261086d82610547565b610857565b82525050565b60006108848285610840565b6014820191506108948284610861565b602082019150819050939250505056fea2646970667358221220603b891143f0d546a2390e87db81cfcad5f94bfe123332504874898e28ebffca64736f6c634300080d0033",
					"opcodes": "PUSH1 0x80 PUSH1 0x40 MSTORE CALLVALUE DUP1 ISZERO PUSH2 0x10 JUMPI PUSH1 0x0 DUP1 REVERT JUMPDEST POP CALLER PUSH1 0x0 DUP1 PUSH2 0x100 EXP DUP2 SLOAD DUP2 PUSH20 0xFFFFFFFFFFFFFFFFFFFFFFFFFFFFFFFFFFFFFFFF MUL NOT AND SWAP1 DUP4 PUSH20 0xFFFFFFFFFFFFFFFFFFFFFFFFFFFFFFFFFFFFFFFF AND MUL OR SWAP1 SSTORE POP PUSH2 0x8DA DUP1 PUSH2 0x60 PUSH1 0x0 CODECOPY PUSH1 0x0 RETURN INVALID PUSH1 0x80 PUSH1 0x40 MSTORE PUSH1 0x4 CALLDATASIZE LT PUSH2 0x70 JUMPI PUSH1 0x0 CALLDATALOAD PUSH1 0xE0 SHR DUP1 PUSH4 0x8DA5CB5B GT PUSH2 0x4E JUMPI DUP1 PUSH4 0x8DA5CB5B EQ PUSH2 0xE2 JUMPI DUP1 PUSH4 0xDBDFF2C1 EQ PUSH2 0x10D JUMPI DUP1 PUSH4 0xE97DCB62 EQ PUSH2 0x138 JUMPI DUP1 PUSH4 0xF71D96CB EQ PUSH2 0x142 JUMPI PUSH2 0x70 JUMP JUMPDEST DUP1 PUSH4 0x12065FE0 EQ PUSH2 0x75 JUMPI DUP1 PUSH4 0x5D495AEA EQ PUSH2 0xA0 JUMPI DUP1 PUSH4 0x8B5B9CCC EQ PUSH2 0xB7 JUMPI JUMPDEST PUSH1 0x0 DUP1 REVERT JUMPDEST CALLVALUE DUP1 ISZERO PUSH2 0x81 JUMPI PUSH1 0x0 DUP1 REVERT JUMPDEST POP PUSH2 0x8A PUSH2 0x17F JUMP JUMPDEST PUSH1 0x40 MLOAD PUSH2 0x97 SWAP2 SWAP1 PUSH2 0x560 JUMP JUMPDEST PUSH1 0x40 MLOAD DUP1 SWAP2 SUB SWAP1 RETURN JUMPDEST CALLVALUE DUP1 ISZERO PUSH2 0xAC JUMPI PUSH1 0x0 DUP1 REVERT JUMPDEST POP PUSH2 0xB5 PUSH2 0x187 JUMP JUMPDEST STOP JUMPDEST CALLVALUE DUP1 ISZERO PUSH2 0xC3 JUMPI PUSH1 0x0 DUP1 REVERT JUMPDEST POP PUSH2 0xCC PUSH2 0x2E3 JUMP JUMPDEST PUSH1 0x40 MLOAD PUSH2 0xD9 SWAP2 SWAP1 PUSH2 0x66B JUMP JUMPDEST PUSH1 0x40 MLOAD DUP1 SWAP2 SUB SWAP1 RETURN JUMPDEST CALLVALUE DUP1 ISZERO PUSH2 0xEE JUMPI PUSH1 0x0 DUP1 REVERT JUMPDEST POP PUSH2 0xF7 PUSH2 0x371 JUMP JUMPDEST PUSH1 0x40 MLOAD PUSH2 0x104 SWAP2 SWAP1 PUSH2 0x6AE JUMP JUMPDEST PUSH1 0x40 MLOAD DUP1 SWAP2 SUB SWAP1 RETURN JUMPDEST CALLVALUE DUP1 ISZERO PUSH2 0x119 JUMPI PUSH1 0x0 DUP1 REVERT JUMPDEST POP PUSH2 0x122 PUSH2 0x395 JUMP JUMPDEST PUSH1 0x40 MLOAD PUSH2 0x12F SWAP2 SWAP1 PUSH2 0x560 JUMP JUMPDEST PUSH1 0x40 MLOAD DUP1 SWAP2 SUB SWAP1 RETURN JUMPDEST PUSH2 0x140 PUSH2 0x3E9 JUMP JUMPDEST STOP JUMPDEST CALLVALUE DUP1 ISZERO PUSH2 0x14E JUMPI PUSH1 0x0 DUP1 REVERT JUMPDEST POP PUSH2 0x169 PUSH1 0x4 DUP1 CALLDATASIZE SUB DUP2 ADD SWAP1 PUSH2 0x164 SWAP2 SWAP1 PUSH2 0x6FA JUMP JUMPDEST PUSH2 0x461 JUMP JUMPDEST PUSH1 0x40 MLOAD PUSH2 0x176 SWAP2 SWAP1 PUSH2 0x736 JUMP JUMPDEST PUSH1 0x40 MLOAD DUP1 SWAP2 SUB SWAP1 RETURN JUMPDEST PUSH1 0x0 SELFBALANCE SWAP1 POP SWAP1 JUMP JUMPDEST PUSH1 0x0 DUP1 SLOAD SWAP1 PUSH2 0x100 EXP SWAP1 DIV PUSH20 0xFFFFFFFFFFFFFFFFFFFFFFFFFFFFFFFFFFFFFFFF AND PUSH20 0xFFFFFFFFFFFFFFFFFFFFFFFFFFFFFFFFFFFFFFFF AND CALLER PUSH20 0xFFFFFFFFFFFFFFFFFFFFFFFFFFFFFFFFFFFFFFFF AND EQ PUSH2 0x1DF JUMPI PUSH1 0x0 DUP1 REVERT JUMPDEST PUSH1 0x0 PUSH1 0x1 DUP1 SLOAD SWAP1 POP PUSH2 0x1EF PUSH2 0x395 JUMP JUMPDEST PUSH2 0x1F9 SWAP2 SWAP1 PUSH2 0x780 JUMP JUMPDEST SWAP1 POP PUSH1 0x1 DUP2 DUP2 SLOAD DUP2 LT PUSH2 0x20F JUMPI PUSH2 0x20E PUSH2 0x7B1 JUMP JUMPDEST JUMPDEST SWAP1 PUSH1 0x0 MSTORE PUSH1 0x20 PUSH1 0x0 KECCAK256 ADD PUSH1 0x0 SWAP1 SLOAD SWAP1 PUSH2 0x100 EXP SWAP1 DIV PUSH20 0xFFFFFFFFFFFFFFFFFFFFFFFFFFFFFFFFFFFFFFFF AND PUSH20 0xFFFFFFFFFFFFFFFFFFFFFFFFFFFFFFFFFFFFFFFF AND PUSH2 0x8FC SELFBALANCE SWAP1 DUP2 ISZERO MUL SWAP1 PUSH1 0x40 MLOAD PUSH1 0x0 PUSH1 0x40 MLOAD DUP1 DUP4 SUB DUP2 DUP6 DUP9 DUP9 CALL SWAP4 POP POP POP POP ISZERO DUP1 ISZERO PUSH2 0x27F JUMPI RETURNDATASIZE PUSH1 0x0 DUP1 RETURNDATACOPY RETURNDATASIZE PUSH1 0x0 REVERT JUMPDEST POP PUSH1 0x0 PUSH8 0xFFFFFFFFFFFFFFFF DUP2 GT ISZERO PUSH2 0x29B JUMPI PUSH2 0x29A PUSH2 0x7E0 JUMP JUMPDEST JUMPDEST PUSH1 0x40 MLOAD SWAP1 DUP1 DUP3 MSTORE DUP1 PUSH1 0x20 MUL PUSH1 0x20 ADD DUP3 ADD PUSH1 0x40 MSTORE DUP1 ISZERO PUSH2 0x2C9 JUMPI DUP2 PUSH1 0x20 ADD PUSH1 0x20 DUP3 MUL DUP1 CALLDATASIZE DUP4 CALLDATACOPY DUP1 DUP3 ADD SWAP2 POP POP SWAP1 POP JUMPDEST POP PUSH1 0x1 SWAP1 DUP1 MLOAD SWAP1 PUSH1 0x20 ADD SWAP1 PUSH2 0x2DF SWAP3 SWAP2 SWAP1 PUSH2 0x4A0 JUMP JUMPDEST POP POP JUMP JUMPDEST PUSH1 0x60 PUSH1 0x1 DUP1 SLOAD DUP1 PUSH1 0x20 MUL PUSH1 0x20 ADD PUSH1 0x40 MLOAD SWAP1 DUP2 ADD PUSH1 0x40 MSTORE DUP1 SWAP3 SWAP2 SWAP1 DUP2 DUP2 MSTORE PUSH1 0x20 ADD DUP3 DUP1 SLOAD DUP1 ISZERO PUSH2 0x367 JUMPI PUSH1 0x20 MUL DUP3 ADD SWAP2 SWAP1 PUSH1 0x0 MSTORE PUSH1 0x20 PUSH1 0x0 KECCAK256 SWAP1 JUMPDEST DUP2 PUSH1 0x0 SWAP1 SLOAD SWAP1 PUSH2 0x100 EXP SWAP1 DIV PUSH20 0xFFFFFFFFFFFFFFFFFFFFFFFFFFFFFFFFFFFFFFFF AND PUSH20 0xFFFFFFFFFFFFFFFFFFFFFFFFFFFFFFFFFFFFFFFF AND DUP2 MSTORE PUSH1 0x20 ADD SWAP1 PUSH1 0x1 ADD SWAP1 DUP1 DUP4 GT PUSH2 0x31D JUMPI JUMPDEST POP POP POP POP POP SWAP1 POP SWAP1 JUMP JUMPDEST PUSH1 0x0 DUP1 SLOAD SWAP1 PUSH2 0x100 EXP SWAP1 DIV PUSH20 0xFFFFFFFFFFFFFFFFFFFFFFFFFFFFFFFFFFFFFFFF AND DUP2 JUMP JUMPDEST PUSH1 0x0 DUP1 PUSH1 0x0 SWAP1 SLOAD SWAP1 PUSH2 0x100 EXP SWAP1 DIV PUSH20 0xFFFFFFFFFFFFFFFFFFFFFFFFFFFFFFFFFFFFFFFF AND TIMESTAMP PUSH1 0x40 MLOAD PUSH1 0x20 ADD PUSH2 0x3CB SWAP3 SWAP2 SWAP1 PUSH2 0x878 JUMP JUMPDEST PUSH1 0x40 MLOAD PUSH1 0x20 DUP2 DUP4 SUB SUB DUP2 MSTORE SWAP1 PUSH1 0x40 MSTORE DUP1 MLOAD SWAP1 PUSH1 0x20 ADD KECCAK256 PUSH1 0x0 SHR SWAP1 POP SWAP1 JUMP JUMPDEST PUSH7 0x38D7EA4C68000 CALLVALUE GT PUSH2 0x3FC JUMPI PUSH1 0x0 DUP1 REVERT JUMPDEST PUSH1 0x1 CALLER SWAP1 DUP1 PUSH1 0x1 DUP2 SLOAD ADD DUP1 DUP3 SSTORE DUP1 SWAP2 POP POP PUSH1 0x1 SWAP1 SUB SWAP1 PUSH1 0x0 MSTORE PUSH1 0x20 PUSH1 0x0 KECCAK256 ADD PUSH1 0x0 SWAP1 SWAP2 SWAP1 SWAP2 SWAP1 SWAP2 PUSH2 0x100 EXP DUP2 SLOAD DUP2 PUSH20 0xFFFFFFFFFFFFFFFFFFFFFFFFFFFFFFFFFFFFFFFF MUL NOT AND SWAP1 DUP4 PUSH20 0xFFFFFFFFFFFFFFFFFFFFFFFFFFFFFFFFFFFFFFFF AND MUL OR SWAP1 SSTORE POP JUMP JUMPDEST PUSH1 0x1 DUP2 DUP2 SLOAD DUP2 LT PUSH2 0x471 JUMPI PUSH1 0x0 DUP1 REVERT JUMPDEST SWAP1 PUSH1 0x0 MSTORE PUSH1 0x20 PUSH1 0x0 KECCAK256 ADD PUSH1 0x0 SWAP2 POP SLOAD SWAP1 PUSH2 0x100 EXP SWAP1 DIV PUSH20 0xFFFFFFFFFFFFFFFFFFFFFFFFFFFFFFFFFFFFFFFF AND DUP2 JUMP JUMPDEST DUP3 DUP1 SLOAD DUP3 DUP3 SSTORE SWAP1 PUSH1 0x0 MSTORE PUSH1 0x20 PUSH1 0x0 KECCAK256 SWAP1 DUP2 ADD SWAP3 DUP3 ISZERO PUSH2 0x519 JUMPI SWAP2 PUSH1 0x20 MUL DUP3 ADD JUMPDEST DUP3 DUP2 GT ISZERO PUSH2 0x518 JUMPI DUP3 MLOAD DUP3 PUSH1 0x0 PUSH2 0x100 EXP DUP2 SLOAD DUP2 PUSH20 0xFFFFFFFFFFFFFFFFFFFFFFFFFFFFFFFFFFFFFFFF MUL NOT AND SWAP1 DUP4 PUSH20 0xFFFFFFFFFFFFFFFFFFFFFFFFFFFFFFFFFFFFFFFF AND MUL OR SWAP1 SSTORE POP SWAP2 PUSH1 0x20 ADD SWAP2 SWAP1 PUSH1 0x1 ADD SWAP1 PUSH2 0x4C0 JUMP JUMPDEST JUMPDEST POP SWAP1 POP PUSH2 0x526 SWAP2 SWAP1 PUSH2 0x52A JUMP JUMPDEST POP SWAP1 JUMP JUMPDEST JUMPDEST DUP1 DUP3 GT ISZERO PUSH2 0x543 JUMPI PUSH1 0x0 DUP2 PUSH1 0x0 SWAP1 SSTORE POP PUSH1 0x1 ADD PUSH2 0x52B JUMP JUMPDEST POP SWAP1 JUMP JUMPDEST PUSH1 0x0 DUP2 SWAP1 POP SWAP2 SWAP1 POP JUMP JUMPDEST PUSH2 0x55A DUP2 PUSH2 0x547 JUMP JUMPDEST DUP3 MSTORE POP POP JUMP JUMPDEST PUSH1 0x0 PUSH1 0x20 DUP3 ADD SWAP1 POP PUSH2 0x575 PUSH1 0x0 DUP4 ADD DUP5 PUSH2 0x551 JUMP JUMPDEST SWAP3 SWAP2 POP POP JUMP JUMPDEST PUSH1 0x0 DUP2 MLOAD SWAP1 POP SWAP2 SWAP1 POP JUMP JUMPDEST PUSH1 0x0 DUP3 DUP3 MSTORE PUSH1 0x20 DUP3 ADD SWAP1 POP SWAP3 SWAP2 POP POP JUMP JUMPDEST PUSH1 0x0 DUP2 SWAP1 POP PUSH1 0x20 DUP3 ADD SWAP1 POP SWAP2 SWAP1 POP JUMP JUMPDEST PUSH1 0x0 PUSH20 0xFFFFFFFFFFFFFFFFFFFFFFFFFFFFFFFFFFFFFFFF DUP3 AND SWAP1 POP SWAP2 SWAP1 POP JUMP JUMPDEST PUSH1 0x0 PUSH2 0x5D2 DUP3 PUSH2 0x5A7 JUMP JUMPDEST SWAP1 POP SWAP2 SWAP1 POP JUMP JUMPDEST PUSH2 0x5E2 DUP2 PUSH2 0x5C7 JUMP JUMPDEST DUP3 MSTORE POP POP JUMP JUMPDEST PUSH1 0x0 PUSH2 0x5F4 DUP4 DUP4 PUSH2 0x5D9 JUMP JUMPDEST PUSH1 0x20 DUP4 ADD SWAP1 POP SWAP3 SWAP2 POP POP JUMP JUMPDEST PUSH1 0x0 PUSH1 0x20 DUP3 ADD SWAP1 POP SWAP2 SWAP1 POP JUMP JUMPDEST PUSH1 0x0 PUSH2 0x618 DUP3 PUSH2 0x57B JUMP JUMPDEST PUSH2 0x622 DUP2 DUP6 PUSH2 0x586 JUMP JUMPDEST SWAP4 POP PUSH2 0x62D DUP4 PUSH2 0x597 JUMP JUMPDEST DUP1 PUSH1 0x0 JUMPDEST DUP4 DUP2 LT ISZERO PUSH2 0x65E JUMPI DUP2 MLOAD PUSH2 0x645 DUP9 DUP3 PUSH2 0x5E8 JUMP JUMPDEST SWAP8 POP PUSH2 0x650 DUP4 PUSH2 0x600 JUMP JUMPDEST SWAP3 POP POP PUSH1 0x1 DUP2 ADD SWAP1 POP PUSH2 0x631 JUMP JUMPDEST POP DUP6 SWAP4 POP POP POP POP SWAP3 SWAP2 POP POP JUMP JUMPDEST PUSH1 0x0 PUSH1 0x20 DUP3 ADD SWAP1 POP DUP2 DUP2 SUB PUSH1 0x0 DUP4 ADD MSTORE PUSH2 0x685 DUP2 DUP5 PUSH2 0x60D JUMP JUMPDEST SWAP1 POP SWAP3 SWAP2 POP POP JUMP JUMPDEST PUSH1 0x0 PUSH2 0x698 DUP3 PUSH2 0x5A7 JUMP JUMPDEST SWAP1 POP SWAP2 SWAP1 POP JUMP JUMPDEST PUSH2 0x6A8 DUP2 PUSH2 0x68D JUMP JUMPDEST DUP3 MSTORE POP POP JUMP JUMPDEST PUSH1 0x0 PUSH1 0x20 DUP3 ADD SWAP1 POP PUSH2 0x6C3 PUSH1 0x0 DUP4 ADD DUP5 PUSH2 0x69F JUMP JUMPDEST SWAP3 SWAP2 POP POP JUMP JUMPDEST PUSH1 0x0 DUP1 REVERT JUMPDEST PUSH2 0x6D7 DUP2 PUSH2 0x547 JUMP JUMPDEST DUP2 EQ PUSH2 0x6E2 JUMPI PUSH1 0x0 DUP1 REVERT JUMPDEST POP JUMP JUMPDEST PUSH1 0x0 DUP2 CALLDATALOAD SWAP1 POP PUSH2 0x6F4 DUP2 PUSH2 0x6CE JUMP JUMPDEST SWAP3 SWAP2 POP POP JUMP JUMPDEST PUSH1 0x0 PUSH1 0x20 DUP3 DUP5 SUB SLT ISZERO PUSH2 0x710 JUMPI PUSH2 0x70F PUSH2 0x6C9 JUMP JUMPDEST JUMPDEST PUSH1 0x0 PUSH2 0x71E DUP5 DUP3 DUP6 ADD PUSH2 0x6E5 JUMP JUMPDEST SWAP2 POP POP SWAP3 SWAP2 POP POP JUMP JUMPDEST PUSH2 0x730 DUP2 PUSH2 0x5C7 JUMP JUMPDEST DUP3 MSTORE POP POP JUMP JUMPDEST PUSH1 0x0 PUSH1 0x20 DUP3 ADD SWAP1 POP PUSH2 0x74B PUSH1 0x0 DUP4 ADD DUP5 PUSH2 0x727 JUMP JUMPDEST SWAP3 SWAP2 POP POP JUMP JUMPDEST PUSH32 0x4E487B7100000000000000000000000000000000000000000000000000000000 PUSH1 0x0 MSTORE PUSH1 0x12 PUSH1 0x4 MSTORE PUSH1 0x24 PUSH1 0x0 REVERT JUMPDEST PUSH1 0x0 PUSH2 0x78B DUP3 PUSH2 0x547 JUMP JUMPDEST SWAP2 POP PUSH2 0x796 DUP4 PUSH2 0x547 JUMP JUMPDEST SWAP3 POP DUP3 PUSH2 0x7A6 JUMPI PUSH2 0x7A5 PUSH2 0x751 JUMP JUMPDEST JUMPDEST DUP3 DUP3 MOD SWAP1 POP SWAP3 SWAP2 POP POP JUMP JUMPDEST PUSH32 0x4E487B7100000000000000000000000000000000000000000000000000000000 PUSH1 0x0 MSTORE PUSH1 0x32 PUSH1 0x4 MSTORE PUSH1 0x24 PUSH1 0x0 REVERT JUMPDEST PUSH32 0x4E487B7100000000000000000000000000000000000000000000000000000000 PUSH1 0x0 MSTORE PUSH1 0x41 PUSH1 0x4 MSTORE PUSH1 0x24 PUSH1 0x0 REVERT JUMPDEST PUSH1 0x0 DUP2 PUSH1 0x60 SHL SWAP1 POP SWAP2 SWAP1 POP JUMP JUMPDEST PUSH1 0x0 PUSH2 0x827 DUP3 PUSH2 0x80F JUMP JUMPDEST SWAP1 POP SWAP2 SWAP1 POP JUMP JUMPDEST PUSH1 0x0 PUSH2 0x839 DUP3 PUSH2 0x81C JUMP JUMPDEST SWAP1 POP SWAP2 SWAP1 POP JUMP JUMPDEST PUSH2 0x851 PUSH2 0x84C DUP3 PUSH2 0x68D JUMP JUMPDEST PUSH2 0x82E JUMP JUMPDEST DUP3 MSTORE POP POP JUMP JUMPDEST PUSH1 0x0 DUP2 SWAP1 POP SWAP2 SWAP1 POP JUMP JUMPDEST PUSH2 0x872 PUSH2 0x86D DUP3 PUSH2 0x547 JUMP JUMPDEST PUSH2 0x857 JUMP JUMPDEST DUP3 MSTORE POP POP JUMP JUMPDEST PUSH1 0x0 PUSH2 0x884 DUP3 DUP6 PUSH2 0x840 JUMP JUMPDEST PUSH1 0x14 DUP3 ADD SWAP2 POP PUSH2 0x894 DUP3 DUP5 PUSH2 0x861 JUMP JUMPDEST PUSH1 0x20 DUP3 ADD SWAP2 POP DUP2 SWAP1 POP SWAP4 SWAP3 POP POP POP JUMP INVALID LOG2 PUSH5 0x6970667358 0x22 SLT KECCAK256 PUSH1 0x3B DUP10 GT NUMBER CREATE 0xD5 CHAINID LOG2 CODECOPY 0xE DUP8 0xDB DUP2 0xCF 0xCA 0xD5 0xF9 0x4B INVALID SLT CALLER ORIGIN POP BASEFEE PUSH21 0x898E28EBFFCA64736F6C634300080D003300000000 "
				},
				"gasEstimates": {
					"creation": {
						"codeDepositCost": "453200",
						"executionCost": "24752",
						"totalCost": "477952"
					},
					"external": {
						"enter()": "48764",
						"getBalance()": "340",
						"getPlayers()": "infinite",
						"getRandomNumber()": "infinite",
						"owner()": "2511",
						"pickWinner()": "infinite",
						"players(uint256)": "5022"
					}
				},
				"methodIdentifiers": {
					"enter()": "e97dcb62",
					"getBalance()": "12065fe0",
					"getPlayers()": "8b5b9ccc",
					"getRandomNumber()": "dbdff2c1",
					"owner()": "8da5cb5b",
					"pickWinner()": "5d495aea",
					"players(uint256)": "f71d96cb"
				}
			},
			"userdoc": {
				"kind": "user",
				"methods": {},
				"version": 1
			}
		}
	}
}