{
	"contracts/RandomNumber.sol": {
		"RandomNumber": {
			"abi": [
				{
					"inputs": [],
					"stateMutability": "nonpayable",
					"type": "constructor"
				},
				{
					"inputs": [],
					"name": "getRandomNumber",
					"outputs": [
						{
							"internalType": "bytes32",
							"name": "requestId",
							"type": "bytes32"
						}
					],
					"stateMutability": "nonpayable",
					"type": "function"
				},
				{
					"inputs": [],
					"name": "randomResult",
					"outputs": [
						{
							"internalType": "uint256",
							"name": "",
							"type": "uint256"
						}
					],
					"stateMutability": "view",
					"type": "function"
				},
				{
					"inputs": [
						{
							"internalType": "bytes32",
							"name": "requestId",
							"type": "bytes32"
						},
						{
							"internalType": "uint256",
							"name": "randomness",
							"type": "uint256"
						}
					],
					"name": "rawFulfillRandomness",
					"outputs": [],
					"stateMutability": "nonpayable",
					"type": "function"
				}
			],
			"devdoc": {
				"kind": "dev",
				"methods": {},
				"version": 1
			},
			"evm": {
				"assembly": "    /* \"contracts/RandomNumber.sol\":123:1020  contract RandomNumber is VRFConsumerBase {... */\n  mstore(0x40, 0xc0)\n    /* \"contracts/RandomNumber.sol\":300:638  constructor()... */\n  callvalue\n  dup1\n  iszero\n  tag_1\n  jumpi\n  0x00\n  dup1\n  revert\ntag_1:\n  pop\n    /* \"contracts/RandomNumber.sol\":351:393  0x6168499c0cFfCaCD319c818142124B7A15E857ab */\n  0x6168499c0cffcacd319c818142124b7a15e857ab\n    /* \"contracts/RandomNumber.sol\":426:468  0x01BE23585060835E02B77ef475b0Cc51aA1e0709 */\n  0x01be23585060835e02b77ef475b0cc51aa1e0709\n    /* \"@chainlink/contracts/src/v0.8/VRFConsumerBase.sol\":9323:9338  _vrfCoordinator */\n  dup2\n    /* \"@chainlink/contracts/src/v0.8/VRFConsumerBase.sol\":9306:9338  vrfCoordinator = _vrfCoordinator */\n  0xffffffffffffffffffffffffffffffffffffffff\n  and\n  0xa0\n  dup2\n  0xffffffffffffffffffffffffffffffffffffffff\n  and\n  dup2\n  mstore\n  pop\n  pop\n    /* \"@chainlink/contracts/src/v0.8/VRFConsumerBase.sol\":9370:9375  _link */\n  dup1\n    /* \"@chainlink/contracts/src/v0.8/VRFConsumerBase.sol\":9344:9376  LINK = LinkTokenInterface(_link) */\n  0xffffffffffffffffffffffffffffffffffffffff\n  and\n  0x80\n  dup2\n  0xffffffffffffffffffffffffffffffffffffffff\n  and\n  dup2\n  mstore\n  pop\n  pop\n    /* \"@chainlink/contracts/src/v0.8/VRFConsumerBase.sol\":9248:9381  constructor(address _vrfCoordinator, address _link) {... */\n  pop\n  pop\n    /* \"contracts/RandomNumber.sol\":526:592  0xd89b2bf150e3b9e13446986e571fb9cab24b13cea0a43ea20a6049a85cc807cc */\n  0xd89b2bf150e3b9e13446986e571fb9cab24b13cea0a43ea20a6049a85cc807cc\n    /* \"contracts/RandomNumber.sol\":516:592  keyHash = 0xd89b2bf150e3b9e13446986e571fb9cab24b13cea0a43ea20a6049a85cc807cc */\n  0x00\n  shl\n    /* \"contracts/RandomNumber.sol\":516:523  keyHash */\n  0x01\n    /* \"contracts/RandomNumber.sol\":516:592  keyHash = 0xd89b2bf150e3b9e13446986e571fb9cab24b13cea0a43ea20a6049a85cc807cc */\n  dup2\n  swap1\n  sstore\n  pop\n    /* \"contracts/RandomNumber.sol\":612:626  0.1 * 10 ** 18 */\n  0x016345785d8a0000\n    /* \"contracts/RandomNumber.sol\":606:609  fee */\n  0x02\n    /* \"contracts/RandomNumber.sol\":606:626  fee = 0.1 * 10 ** 18 */\n  dup2\n  swap1\n  sstore\n  pop\n    /* \"contracts/RandomNumber.sol\":123:1020  contract RandomNumber is VRFConsumerBase {... */\n  mload(0x80)\n  mload(0xa0)\n  codecopy(0x00, dataOffset(sub_0), dataSize(sub_0))\n  0x00\n  assignImmutable(\"0x6dbb33232cde86c8a04f90a8bed9fc1c5ef520188a14538d96eb100d69bc2a94\")\n  0x00\n  assignImmutable(\"0xb2219b801710730437d0358146c829b62297a059eceaa0b40b27aea2daecf595\")\n  return(0x00, dataSize(sub_0))\nstop\n\nsub_0: assembly {\n        /* \"contracts/RandomNumber.sol\":123:1020  contract RandomNumber is VRFConsumerBase {... */\n      mstore(0x40, 0x80)\n      callvalue\n      dup1\n      iszero\n      tag_1\n      jumpi\n      0x00\n      dup1\n      revert\n    tag_1:\n      pop\n      jumpi(tag_2, lt(calldatasize, 0x04))\n      shr(0xe0, calldataload(0x00))\n      dup1\n      0x42619f66\n      eq\n      tag_3\n      jumpi\n      dup1\n      0x94985ddd\n      eq\n      tag_4\n      jumpi\n      dup1\n      0xdbdff2c1\n      eq\n      tag_5\n      jumpi\n    tag_2:\n      0x00\n      dup1\n      revert\n        /* \"contracts/RandomNumber.sol\":269:293  uint public randomResult */\n    tag_3:\n      tag_6\n      tag_7\n      jump\t// in\n    tag_6:\n      mload(0x40)\n      tag_8\n      swap2\n      swap1\n      tag_9\n      jump\t// in\n    tag_8:\n      mload(0x40)\n      dup1\n      swap2\n      sub\n      swap1\n      return\n        /* \"@chainlink/contracts/src/v0.8/VRFConsumerBase.sol\":9576:9783  function rawFulfillRandomness(bytes32 requestId, uint256 randomness) external {... */\n    tag_4:\n      tag_10\n      0x04\n      dup1\n      calldatasize\n      sub\n      dup2\n      add\n      swap1\n      tag_11\n      swap2\n      swap1\n      tag_12\n      jump\t// in\n    tag_11:\n      tag_13\n      jump\t// in\n    tag_10:\n      stop\n        /* \"contracts/RandomNumber.sol\":648:888  function getRandomNumber() public returns (bytes32 requestId) {... */\n    tag_5:\n      tag_14\n      tag_15\n      jump\t// in\n    tag_14:\n      mload(0x40)\n      tag_16\n      swap2\n      swap1\n      tag_17\n      jump\t// in\n    tag_16:\n      mload(0x40)\n      dup1\n      swap2\n      sub\n      swap1\n      return\n        /* \"contracts/RandomNumber.sol\":269:293  uint public randomResult */\n    tag_7:\n      sload(0x03)\n      dup2\n      jump\t// out\n        /* \"@chainlink/contracts/src/v0.8/VRFConsumerBase.sol\":9576:9783  function rawFulfillRandomness(bytes32 requestId, uint256 randomness) external {... */\n    tag_13:\n        /* \"@chainlink/contracts/src/v0.8/VRFConsumerBase.sol\":9682:9696  vrfCoordinator */\n      immutable(\"0x6dbb33232cde86c8a04f90a8bed9fc1c5ef520188a14538d96eb100d69bc2a94\")\n        /* \"@chainlink/contracts/src/v0.8/VRFConsumerBase.sol\":9668:9696  msg.sender == vrfCoordinator */\n      0xffffffffffffffffffffffffffffffffffffffff\n      and\n        /* \"@chainlink/contracts/src/v0.8/VRFConsumerBase.sol\":9668:9678  msg.sender */\n      caller\n        /* \"@chainlink/contracts/src/v0.8/VRFConsumerBase.sol\":9668:9696  msg.sender == vrfCoordinator */\n      0xffffffffffffffffffffffffffffffffffffffff\n      and\n      eq\n        /* \"@chainlink/contracts/src/v0.8/VRFConsumerBase.sol\":9660:9732  require(msg.sender == vrfCoordinator, \"Only VRFCoordinator can fulfill\") */\n      tag_19\n      jumpi\n      mload(0x40)\n      0x08c379a000000000000000000000000000000000000000000000000000000000\n      dup2\n      mstore\n      0x04\n      add\n      tag_20\n      swap1\n      tag_21\n      jump\t// in\n    tag_20:\n      mload(0x40)\n      dup1\n      swap2\n      sub\n      swap1\n      revert\n    tag_19:\n        /* \"@chainlink/contracts/src/v0.8/VRFConsumerBase.sol\":9738:9778  fulfillRandomness(requestId, randomness) */\n      tag_22\n        /* \"@chainlink/contracts/src/v0.8/VRFConsumerBase.sol\":9756:9765  requestId */\n      dup3\n        /* \"@chainlink/contracts/src/v0.8/VRFConsumerBase.sol\":9767:9777  randomness */\n      dup3\n        /* \"@chainlink/contracts/src/v0.8/VRFConsumerBase.sol\":9738:9755  fulfillRandomness */\n      tag_23\n        /* \"@chainlink/contracts/src/v0.8/VRFConsumerBase.sol\":9738:9778  fulfillRandomness(requestId, randomness) */\n      jump\t// in\n    tag_22:\n        /* \"@chainlink/contracts/src/v0.8/VRFConsumerBase.sol\":9576:9783  function rawFulfillRandomness(bytes32 requestId, uint256 randomness) external {... */\n      pop\n      pop\n      jump\t// out\n        /* \"contracts/RandomNumber.sol\":648:888  function getRandomNumber() public returns (bytes32 requestId) {... */\n    tag_15:\n        /* \"contracts/RandomNumber.sol\":691:708  bytes32 requestId */\n      0x00\n        /* \"contracts/RandomNumber.sol\":761:764  fee */\n      sload(0x02)\n        /* \"contracts/RandomNumber.sol\":728:732  LINK */\n      immutable(\"0xb2219b801710730437d0358146c829b62297a059eceaa0b40b27aea2daecf595\")\n        /* \"contracts/RandomNumber.sol\":728:742  LINK.balanceOf */\n      0xffffffffffffffffffffffffffffffffffffffff\n      and\n      0x70a08231\n        /* \"contracts/RandomNumber.sol\":751:755  this */\n      address\n        /* \"contracts/RandomNumber.sol\":728:757  LINK.balanceOf(address(this)) */\n      mload(0x40)\n      dup3\n      0xffffffff\n      and\n      0xe0\n      shl\n      dup2\n      mstore\n      0x04\n      add\n      tag_25\n      swap2\n      swap1\n      tag_26\n      jump\t// in\n    tag_25:\n      0x20\n      mload(0x40)\n      dup1\n      dup4\n      sub\n      dup2\n      dup7\n      gas\n      staticcall\n      iszero\n      dup1\n      iszero\n      tag_28\n      jumpi\n      returndatasize\n      0x00\n      dup1\n      returndatacopy\n      revert(0x00, returndatasize)\n    tag_28:\n      pop\n      pop\n      pop\n      pop\n      mload(0x40)\n      returndatasize\n      not(0x1f)\n      0x1f\n      dup3\n      add\n      and\n      dup3\n      add\n      dup1\n      0x40\n      mstore\n      pop\n      dup2\n      add\n      swap1\n      tag_29\n      swap2\n      swap1\n      tag_30\n      jump\t// in\n    tag_29:\n        /* \"contracts/RandomNumber.sol\":728:764  LINK.balanceOf(address(this)) >= fee */\n      lt\n      iszero\n        /* \"contracts/RandomNumber.sol\":720:796  require(LINK.balanceOf(address(this)) >= fee, \"Not enough LINK in contract\") */\n      tag_31\n      jumpi\n      mload(0x40)\n      0x08c379a000000000000000000000000000000000000000000000000000000000\n      dup2\n      mstore\n      0x04\n      add\n      tag_32\n      swap1\n      tag_33\n      jump\t// in\n    tag_32:\n      mload(0x40)\n      dup1\n      swap2\n      sub\n      swap1\n      revert\n    tag_31:\n        /* \"contracts/RandomNumber.sol\":850:881  requestRandomness(keyHash, fee) */\n      tag_34\n        /* \"contracts/RandomNumber.sol\":868:875  keyHash */\n      sload(0x01)\n        /* \"contracts/RandomNumber.sol\":877:880  fee */\n      sload(0x02)\n        /* \"contracts/RandomNumber.sol\":850:867  requestRandomness */\n      tag_35\n        /* \"contracts/RandomNumber.sol\":850:881  requestRandomness(keyHash, fee) */\n      jump\t// in\n    tag_34:\n        /* \"contracts/RandomNumber.sol\":843:881  return requestRandomness(keyHash, fee) */\n      swap1\n      pop\n        /* \"contracts/RandomNumber.sol\":648:888  function getRandomNumber() public returns (bytes32 requestId) {... */\n      swap1\n      jump\t// out\n        /* \"contracts/RandomNumber.sol\":894:1018  function fulfillRandomness (bytes32 requestId, uint randomness) internal override {... */\n    tag_23:\n        /* \"contracts/RandomNumber.sol\":1001:1011  randomness */\n      dup1\n        /* \"contracts/RandomNumber.sol\":986:998  randomResult */\n      0x03\n        /* \"contracts/RandomNumber.sol\":986:1011  randomResult = randomness */\n      dup2\n      swap1\n      sstore\n      pop\n        /* \"contracts/RandomNumber.sol\":894:1018  function fulfillRandomness (bytes32 requestId, uint randomness) internal override {... */\n      pop\n      pop\n      jump\t// out\n        /* \"@chainlink/contracts/src/v0.8/VRFConsumerBase.sol\":7732:8752  function requestRandomness(bytes32 _keyHash, uint256 _fee) internal returns (bytes32 requestId) {... */\n    tag_35:\n        /* \"@chainlink/contracts/src/v0.8/VRFConsumerBase.sol\":7809:7826  bytes32 requestId */\n      0x00\n        /* \"@chainlink/contracts/src/v0.8/VRFConsumerBase.sol\":7834:7838  LINK */\n      immutable(\"0xb2219b801710730437d0358146c829b62297a059eceaa0b40b27aea2daecf595\")\n        /* \"@chainlink/contracts/src/v0.8/VRFConsumerBase.sol\":7834:7854  LINK.transferAndCall */\n      0xffffffffffffffffffffffffffffffffffffffff\n      and\n      0x4000aea0\n        /* \"@chainlink/contracts/src/v0.8/VRFConsumerBase.sol\":7855:7869  vrfCoordinator */\n      immutable(\"0x6dbb33232cde86c8a04f90a8bed9fc1c5ef520188a14538d96eb100d69bc2a94\")\n        /* \"@chainlink/contracts/src/v0.8/VRFConsumerBase.sol\":7871:7875  _fee */\n      dup5\n        /* \"@chainlink/contracts/src/v0.8/VRFConsumerBase.sol\":7888:7896  _keyHash */\n      dup7\n        /* \"@chainlink/contracts/src/v0.8/VRFConsumerBase.sol\":6589:6590  0 */\n      0x00\n        /* \"@chainlink/contracts/src/v0.8/VRFConsumerBase.sol\":7877:7920  abi.encode(_keyHash, USER_SEED_PLACEHOLDER) */\n      add(0x20, mload(0x40))\n      tag_38\n      swap3\n      swap2\n      swap1\n      tag_39\n      jump\t// in\n    tag_38:\n      mload(0x40)\n      0x20\n      dup2\n      dup4\n      sub\n      sub\n      dup2\n      mstore\n      swap1\n      0x40\n      mstore\n        /* \"@chainlink/contracts/src/v0.8/VRFConsumerBase.sol\":7834:7921  LINK.transferAndCall(vrfCoordinator, _fee, abi.encode(_keyHash, USER_SEED_PLACEHOLDER)) */\n      mload(0x40)\n      dup5\n      0xffffffff\n      and\n      0xe0\n      shl\n      dup2\n      mstore\n      0x04\n      add\n      tag_40\n      swap4\n      swap3\n      swap2\n      swap1\n      tag_41\n      jump\t// in\n    tag_40:\n      0x20\n      mload(0x40)\n      dup1\n      dup4\n      sub\n      dup2\n      0x00\n      dup8\n      gas\n      call\n      iszero\n      dup1\n      iszero\n      tag_43\n      jumpi\n      returndatasize\n      0x00\n      dup1\n      returndatacopy\n      revert(0x00, returndatasize)\n    tag_43:\n      pop\n      pop\n      pop\n      pop\n      mload(0x40)\n      returndatasize\n      not(0x1f)\n      0x1f\n      dup3\n      add\n      and\n      dup3\n      add\n      dup1\n      0x40\n      mstore\n      pop\n      dup2\n      add\n      swap1\n      tag_44\n      swap2\n      swap1\n      tag_45\n      jump\t// in\n    tag_44:\n      pop\n        /* \"@chainlink/contracts/src/v0.8/VRFConsumerBase.sol\":8152:8167  uint256 vRFSeed */\n      0x00\n        /* \"@chainlink/contracts/src/v0.8/VRFConsumerBase.sol\":8170:8252  makeVRFInputSeed(_keyHash, USER_SEED_PLACEHOLDER, address(this), nonces[_keyHash]) */\n      tag_46\n        /* \"@chainlink/contracts/src/v0.8/VRFConsumerBase.sol\":8187:8195  _keyHash */\n      dup5\n        /* \"@chainlink/contracts/src/v0.8/VRFConsumerBase.sol\":6589:6590  0 */\n      0x00\n        /* \"@chainlink/contracts/src/v0.8/VRFConsumerBase.sol\":8228:8232  this */\n      address\n        /* \"@chainlink/contracts/src/v0.8/VRFConsumerBase.sol\":8235:8241  nonces */\n      0x00\n        /* \"@chainlink/contracts/src/v0.8/VRFConsumerBase.sol\":8235:8251  nonces[_keyHash] */\n      dup1\n        /* \"@chainlink/contracts/src/v0.8/VRFConsumerBase.sol\":8242:8250  _keyHash */\n      dup10\n        /* \"@chainlink/contracts/src/v0.8/VRFConsumerBase.sol\":8235:8251  nonces[_keyHash] */\n      dup2\n      mstore\n      0x20\n      add\n      swap1\n      dup2\n      mstore\n      0x20\n      add\n      0x00\n      keccak256\n      sload\n        /* \"@chainlink/contracts/src/v0.8/VRFConsumerBase.sol\":8170:8186  makeVRFInputSeed */\n      tag_47\n        /* \"@chainlink/contracts/src/v0.8/VRFConsumerBase.sol\":8170:8252  makeVRFInputSeed(_keyHash, USER_SEED_PLACEHOLDER, address(this), nonces[_keyHash]) */\n      jump\t// in\n    tag_46:\n        /* \"@chainlink/contracts/src/v0.8/VRFConsumerBase.sol\":8152:8252  uint256 vRFSeed = makeVRFInputSeed(_keyHash, USER_SEED_PLACEHOLDER, address(this), nonces[_keyHash]) */\n      swap1\n      pop\n        /* \"@chainlink/contracts/src/v0.8/VRFConsumerBase.sol\":8701:8702  1 */\n      0x01\n        /* \"@chainlink/contracts/src/v0.8/VRFConsumerBase.sol\":8682:8688  nonces */\n      0x00\n        /* \"@chainlink/contracts/src/v0.8/VRFConsumerBase.sol\":8682:8698  nonces[_keyHash] */\n      dup1\n        /* \"@chainlink/contracts/src/v0.8/VRFConsumerBase.sol\":8689:8697  _keyHash */\n      dup7\n        /* \"@chainlink/contracts/src/v0.8/VRFConsumerBase.sol\":8682:8698  nonces[_keyHash] */\n      dup2\n      mstore\n      0x20\n      add\n      swap1\n      dup2\n      mstore\n      0x20\n      add\n      0x00\n      keccak256\n      sload\n        /* \"@chainlink/contracts/src/v0.8/VRFConsumerBase.sol\":8682:8702  nonces[_keyHash] + 1 */\n      tag_48\n      swap2\n      swap1\n      tag_49\n      jump\t// in\n    tag_48:\n        /* \"@chainlink/contracts/src/v0.8/VRFConsumerBase.sol\":8663:8669  nonces */\n      0x00\n        /* \"@chainlink/contracts/src/v0.8/VRFConsumerBase.sol\":8663:8679  nonces[_keyHash] */\n      dup1\n        /* \"@chainlink/contracts/src/v0.8/VRFConsumerBase.sol\":8670:8678  _keyHash */\n      dup7\n        /* \"@chainlink/contracts/src/v0.8/VRFConsumerBase.sol\":8663:8679  nonces[_keyHash] */\n      dup2\n      mstore\n      0x20\n      add\n      swap1\n      dup2\n      mstore\n      0x20\n      add\n      0x00\n      keccak256\n        /* \"@chainlink/contracts/src/v0.8/VRFConsumerBase.sol\":8663:8702  nonces[_keyHash] = nonces[_keyHash] + 1 */\n      dup2\n      swap1\n      sstore\n      pop\n        /* \"@chainlink/contracts/src/v0.8/VRFConsumerBase.sol\":8715:8747  makeRequestId(_keyHash, vRFSeed) */\n      tag_50\n        /* \"@chainlink/contracts/src/v0.8/VRFConsumerBase.sol\":8729:8737  _keyHash */\n      dup5\n        /* \"@chainlink/contracts/src/v0.8/VRFConsumerBase.sol\":8739:8746  vRFSeed */\n      dup3\n        /* \"@chainlink/contracts/src/v0.8/VRFConsumerBase.sol\":8715:8728  makeRequestId */\n      tag_51\n        /* \"@chainlink/contracts/src/v0.8/VRFConsumerBase.sol\":8715:8747  makeRequestId(_keyHash, vRFSeed) */\n      jump\t// in\n    tag_50:\n        /* \"@chainlink/contracts/src/v0.8/VRFConsumerBase.sol\":8708:8747  return makeRequestId(_keyHash, vRFSeed) */\n      swap2\n      pop\n      pop\n        /* \"@chainlink/contracts/src/v0.8/VRFConsumerBase.sol\":7732:8752  function requestRandomness(bytes32 _keyHash, uint256 _fee) internal returns (bytes32 requestId) {... */\n      swap3\n      swap2\n      pop\n      pop\n      jump\t// out\n        /* \"@chainlink/contracts/src/v0.8/VRFRequestIDBase.sol\":796:1036  function makeVRFInputSeed(... */\n    tag_47:\n        /* \"@chainlink/contracts/src/v0.8/VRFRequestIDBase.sol\":938:945  uint256 */\n      0x00\n        /* \"@chainlink/contracts/src/v0.8/VRFRequestIDBase.sol\":989:997  _keyHash */\n      dup5\n        /* \"@chainlink/contracts/src/v0.8/VRFRequestIDBase.sol\":999:1008  _userSeed */\n      dup5\n        /* \"@chainlink/contracts/src/v0.8/VRFRequestIDBase.sol\":1010:1020  _requester */\n      dup5\n        /* \"@chainlink/contracts/src/v0.8/VRFRequestIDBase.sol\":1022:1028  _nonce */\n      dup5\n        /* \"@chainlink/contracts/src/v0.8/VRFRequestIDBase.sol\":978:1029  abi.encode(_keyHash, _userSeed, _requester, _nonce) */\n      add(0x20, mload(0x40))\n      tag_53\n      swap5\n      swap4\n      swap3\n      swap2\n      swap1\n      tag_54\n      jump\t// in\n    tag_53:\n      mload(0x40)\n      0x20\n      dup2\n      dup4\n      sub\n      sub\n      dup2\n      mstore\n      swap1\n      0x40\n      mstore\n        /* \"@chainlink/contracts/src/v0.8/VRFRequestIDBase.sol\":968:1030  keccak256(abi.encode(_keyHash, _userSeed, _requester, _nonce)) */\n      dup1\n      mload\n      swap1\n      0x20\n      add\n      keccak256\n        /* \"@chainlink/contracts/src/v0.8/VRFRequestIDBase.sol\":960:1031  uint256(keccak256(abi.encode(_keyHash, _userSeed, _requester, _nonce))) */\n      0x00\n      shr\n        /* \"@chainlink/contracts/src/v0.8/VRFRequestIDBase.sol\":953:1031  return uint256(keccak256(abi.encode(_keyHash, _userSeed, _requester, _nonce))) */\n      swap1\n      pop\n        /* \"@chainlink/contracts/src/v0.8/VRFRequestIDBase.sol\":796:1036  function makeVRFInputSeed(... */\n      swap5\n      swap4\n      pop\n      pop\n      pop\n      pop\n      jump\t// out\n        /* \"@chainlink/contracts/src/v0.8/VRFRequestIDBase.sol\":1416:1582  function makeRequestId(bytes32 _keyHash, uint256 _vRFInputSeed) internal pure returns (bytes32) {... */\n    tag_51:\n        /* \"@chainlink/contracts/src/v0.8/VRFRequestIDBase.sol\":1503:1510  bytes32 */\n      0x00\n        /* \"@chainlink/contracts/src/v0.8/VRFRequestIDBase.sol\":1552:1560  _keyHash */\n      dup3\n        /* \"@chainlink/contracts/src/v0.8/VRFRequestIDBase.sol\":1562:1575  _vRFInputSeed */\n      dup3\n        /* \"@chainlink/contracts/src/v0.8/VRFRequestIDBase.sol\":1535:1576  abi.encodePacked(_keyHash, _vRFInputSeed) */\n      add(0x20, mload(0x40))\n      tag_56\n      swap3\n      swap2\n      swap1\n      tag_57\n      jump\t// in\n    tag_56:\n      mload(0x40)\n      0x20\n      dup2\n      dup4\n      sub\n      sub\n      dup2\n      mstore\n      swap1\n      0x40\n      mstore\n        /* \"@chainlink/contracts/src/v0.8/VRFRequestIDBase.sol\":1525:1577  keccak256(abi.encodePacked(_keyHash, _vRFInputSeed)) */\n      dup1\n      mload\n      swap1\n      0x20\n      add\n      keccak256\n        /* \"@chainlink/contracts/src/v0.8/VRFRequestIDBase.sol\":1518:1577  return keccak256(abi.encodePacked(_keyHash, _vRFInputSeed)) */\n      swap1\n      pop\n        /* \"@chainlink/contracts/src/v0.8/VRFRequestIDBase.sol\":1416:1582  function makeRequestId(bytes32 _keyHash, uint256 _vRFInputSeed) internal pure returns (bytes32) {... */\n      swap3\n      swap2\n      pop\n      pop\n      jump\t// out\n        /* \"#utility.yul\":7:84   */\n    tag_58:\n        /* \"#utility.yul\":44:51   */\n      0x00\n        /* \"#utility.yul\":73:78   */\n      dup2\n        /* \"#utility.yul\":62:78   */\n      swap1\n      pop\n        /* \"#utility.yul\":7:84   */\n      swap2\n      swap1\n      pop\n      jump\t// out\n        /* \"#utility.yul\":90:208   */\n    tag_59:\n        /* \"#utility.yul\":177:201   */\n      tag_94\n        /* \"#utility.yul\":195:200   */\n      dup2\n        /* \"#utility.yul\":177:201   */\n      tag_58\n      jump\t// in\n    tag_94:\n        /* \"#utility.yul\":172:175   */\n      dup3\n        /* \"#utility.yul\":165:202   */\n      mstore\n        /* \"#utility.yul\":90:208   */\n      pop\n      pop\n      jump\t// out\n        /* \"#utility.yul\":214:436   */\n    tag_9:\n        /* \"#utility.yul\":307:311   */\n      0x00\n        /* \"#utility.yul\":345:347   */\n      0x20\n        /* \"#utility.yul\":334:343   */\n      dup3\n        /* \"#utility.yul\":330:348   */\n      add\n        /* \"#utility.yul\":322:348   */\n      swap1\n      pop\n        /* \"#utility.yul\":358:429   */\n      tag_96\n        /* \"#utility.yul\":426:427   */\n      0x00\n        /* \"#utility.yul\":415:424   */\n      dup4\n        /* \"#utility.yul\":411:428   */\n      add\n        /* \"#utility.yul\":402:408   */\n      dup5\n        /* \"#utility.yul\":358:429   */\n      tag_59\n      jump\t// in\n    tag_96:\n        /* \"#utility.yul\":214:436   */\n      swap3\n      swap2\n      pop\n      pop\n      jump\t// out\n        /* \"#utility.yul\":523:640   */\n    tag_61:\n        /* \"#utility.yul\":632:633   */\n      0x00\n        /* \"#utility.yul\":629:630   */\n      dup1\n        /* \"#utility.yul\":622:634   */\n      revert\n        /* \"#utility.yul\":769:846   */\n    tag_63:\n        /* \"#utility.yul\":806:813   */\n      0x00\n        /* \"#utility.yul\":835:840   */\n      dup2\n        /* \"#utility.yul\":824:840   */\n      swap1\n      pop\n        /* \"#utility.yul\":769:846   */\n      swap2\n      swap1\n      pop\n      jump\t// out\n        /* \"#utility.yul\":852:974   */\n    tag_64:\n        /* \"#utility.yul\":925:949   */\n      tag_102\n        /* \"#utility.yul\":943:948   */\n      dup2\n        /* \"#utility.yul\":925:949   */\n      tag_63\n      jump\t// in\n    tag_102:\n        /* \"#utility.yul\":918:923   */\n      dup2\n        /* \"#utility.yul\":915:950   */\n      eq\n        /* \"#utility.yul\":905:968   */\n      tag_103\n      jumpi\n        /* \"#utility.yul\":964:965   */\n      0x00\n        /* \"#utility.yul\":961:962   */\n      dup1\n        /* \"#utility.yul\":954:966   */\n      revert\n        /* \"#utility.yul\":905:968   */\n    tag_103:\n        /* \"#utility.yul\":852:974   */\n      pop\n      jump\t// out\n        /* \"#utility.yul\":980:1119   */\n    tag_65:\n        /* \"#utility.yul\":1026:1031   */\n      0x00\n        /* \"#utility.yul\":1064:1070   */\n      dup2\n        /* \"#utility.yul\":1051:1071   */\n      calldataload\n        /* \"#utility.yul\":1042:1071   */\n      swap1\n      pop\n        /* \"#utility.yul\":1080:1113   */\n      tag_105\n        /* \"#utility.yul\":1107:1112   */\n      dup2\n        /* \"#utility.yul\":1080:1113   */\n      tag_64\n      jump\t// in\n    tag_105:\n        /* \"#utility.yul\":980:1119   */\n      swap3\n      swap2\n      pop\n      pop\n      jump\t// out\n        /* \"#utility.yul\":1125:1247   */\n    tag_66:\n        /* \"#utility.yul\":1198:1222   */\n      tag_107\n        /* \"#utility.yul\":1216:1221   */\n      dup2\n        /* \"#utility.yul\":1198:1222   */\n      tag_58\n      jump\t// in\n    tag_107:\n        /* \"#utility.yul\":1191:1196   */\n      dup2\n        /* \"#utility.yul\":1188:1223   */\n      eq\n        /* \"#utility.yul\":1178:1241   */\n      tag_108\n      jumpi\n        /* \"#utility.yul\":1237:1238   */\n      0x00\n        /* \"#utility.yul\":1234:1235   */\n      dup1\n        /* \"#utility.yul\":1227:1239   */\n      revert\n        /* \"#utility.yul\":1178:1241   */\n    tag_108:\n        /* \"#utility.yul\":1125:1247   */\n      pop\n      jump\t// out\n        /* \"#utility.yul\":1253:1392   */\n    tag_67:\n        /* \"#utility.yul\":1299:1304   */\n      0x00\n        /* \"#utility.yul\":1337:1343   */\n      dup2\n        /* \"#utility.yul\":1324:1344   */\n      calldataload\n        /* \"#utility.yul\":1315:1344   */\n      swap1\n      pop\n        /* \"#utility.yul\":1353:1386   */\n      tag_110\n        /* \"#utility.yul\":1380:1385   */\n      dup2\n        /* \"#utility.yul\":1353:1386   */\n      tag_66\n      jump\t// in\n    tag_110:\n        /* \"#utility.yul\":1253:1392   */\n      swap3\n      swap2\n      pop\n      pop\n      jump\t// out\n        /* \"#utility.yul\":1398:1872   */\n    tag_12:\n        /* \"#utility.yul\":1466:1472   */\n      0x00\n        /* \"#utility.yul\":1474:1480   */\n      dup1\n        /* \"#utility.yul\":1523:1525   */\n      0x40\n        /* \"#utility.yul\":1511:1520   */\n      dup4\n        /* \"#utility.yul\":1502:1509   */\n      dup6\n        /* \"#utility.yul\":1498:1521   */\n      sub\n        /* \"#utility.yul\":1494:1526   */\n      slt\n        /* \"#utility.yul\":1491:1610   */\n      iszero\n      tag_112\n      jumpi\n        /* \"#utility.yul\":1529:1608   */\n      tag_113\n      tag_61\n      jump\t// in\n    tag_113:\n        /* \"#utility.yul\":1491:1610   */\n    tag_112:\n        /* \"#utility.yul\":1649:1650   */\n      0x00\n        /* \"#utility.yul\":1674:1727   */\n      tag_114\n        /* \"#utility.yul\":1719:1726   */\n      dup6\n        /* \"#utility.yul\":1710:1716   */\n      dup3\n        /* \"#utility.yul\":1699:1708   */\n      dup7\n        /* \"#utility.yul\":1695:1717   */\n      add\n        /* \"#utility.yul\":1674:1727   */\n      tag_65\n      jump\t// in\n    tag_114:\n        /* \"#utility.yul\":1664:1727   */\n      swap3\n      pop\n        /* \"#utility.yul\":1620:1737   */\n      pop\n        /* \"#utility.yul\":1776:1778   */\n      0x20\n        /* \"#utility.yul\":1802:1855   */\n      tag_115\n        /* \"#utility.yul\":1847:1854   */\n      dup6\n        /* \"#utility.yul\":1838:1844   */\n      dup3\n        /* \"#utility.yul\":1827:1836   */\n      dup7\n        /* \"#utility.yul\":1823:1845   */\n      add\n        /* \"#utility.yul\":1802:1855   */\n      tag_67\n      jump\t// in\n    tag_115:\n        /* \"#utility.yul\":1792:1855   */\n      swap2\n      pop\n        /* \"#utility.yul\":1747:1865   */\n      pop\n        /* \"#utility.yul\":1398:1872   */\n      swap3\n      pop\n      swap3\n      swap1\n      pop\n      jump\t// out\n        /* \"#utility.yul\":1878:1996   */\n    tag_68:\n        /* \"#utility.yul\":1965:1989   */\n      tag_117\n        /* \"#utility.yul\":1983:1988   */\n      dup2\n        /* \"#utility.yul\":1965:1989   */\n      tag_63\n      jump\t// in\n    tag_117:\n        /* \"#utility.yul\":1960:1963   */\n      dup3\n        /* \"#utility.yul\":1953:1990   */\n      mstore\n        /* \"#utility.yul\":1878:1996   */\n      pop\n      pop\n      jump\t// out\n        /* \"#utility.yul\":2002:2224   */\n    tag_17:\n        /* \"#utility.yul\":2095:2099   */\n      0x00\n        /* \"#utility.yul\":2133:2135   */\n      0x20\n        /* \"#utility.yul\":2122:2131   */\n      dup3\n        /* \"#utility.yul\":2118:2136   */\n      add\n        /* \"#utility.yul\":2110:2136   */\n      swap1\n      pop\n        /* \"#utility.yul\":2146:2217   */\n      tag_119\n        /* \"#utility.yul\":2214:2215   */\n      0x00\n        /* \"#utility.yul\":2203:2212   */\n      dup4\n        /* \"#utility.yul\":2199:2216   */\n      add\n        /* \"#utility.yul\":2190:2196   */\n      dup5\n        /* \"#utility.yul\":2146:2217   */\n      tag_68\n      jump\t// in\n    tag_119:\n        /* \"#utility.yul\":2002:2224   */\n      swap3\n      swap2\n      pop\n      pop\n      jump\t// out\n        /* \"#utility.yul\":2230:2399   */\n    tag_69:\n        /* \"#utility.yul\":2314:2325   */\n      0x00\n        /* \"#utility.yul\":2348:2354   */\n      dup3\n        /* \"#utility.yul\":2343:2346   */\n      dup3\n        /* \"#utility.yul\":2336:2355   */\n      mstore\n        /* \"#utility.yul\":2388:2392   */\n      0x20\n        /* \"#utility.yul\":2383:2386   */\n      dup3\n        /* \"#utility.yul\":2379:2393   */\n      add\n        /* \"#utility.yul\":2364:2393   */\n      swap1\n      pop\n        /* \"#utility.yul\":2230:2399   */\n      swap3\n      swap2\n      pop\n      pop\n      jump\t// out\n        /* \"#utility.yul\":2405:2586   */\n    tag_70:\n        /* \"#utility.yul\":2545:2578   */\n      0x4f6e6c7920565246436f6f7264696e61746f722063616e2066756c66696c6c00\n        /* \"#utility.yul\":2541:2542   */\n      0x00\n        /* \"#utility.yul\":2533:2539   */\n      dup3\n        /* \"#utility.yul\":2529:2543   */\n      add\n        /* \"#utility.yul\":2522:2579   */\n      mstore\n        /* \"#utility.yul\":2405:2586   */\n      pop\n      jump\t// out\n        /* \"#utility.yul\":2592:2958   */\n    tag_71:\n        /* \"#utility.yul\":2734:2737   */\n      0x00\n        /* \"#utility.yul\":2755:2822   */\n      tag_123\n        /* \"#utility.yul\":2819:2821   */\n      0x1f\n        /* \"#utility.yul\":2814:2817   */\n      dup4\n        /* \"#utility.yul\":2755:2822   */\n      tag_69\n      jump\t// in\n    tag_123:\n        /* \"#utility.yul\":2748:2822   */\n      swap2\n      pop\n        /* \"#utility.yul\":2831:2924   */\n      tag_124\n        /* \"#utility.yul\":2920:2923   */\n      dup3\n        /* \"#utility.yul\":2831:2924   */\n      tag_70\n      jump\t// in\n    tag_124:\n        /* \"#utility.yul\":2949:2951   */\n      0x20\n        /* \"#utility.yul\":2944:2947   */\n      dup3\n        /* \"#utility.yul\":2940:2952   */\n      add\n        /* \"#utility.yul\":2933:2952   */\n      swap1\n      pop\n        /* \"#utility.yul\":2592:2958   */\n      swap2\n      swap1\n      pop\n      jump\t// out\n        /* \"#utility.yul\":2964:3383   */\n    tag_21:\n        /* \"#utility.yul\":3130:3134   */\n      0x00\n        /* \"#utility.yul\":3168:3170   */\n      0x20\n        /* \"#utility.yul\":3157:3166   */\n      dup3\n        /* \"#utility.yul\":3153:3171   */\n      add\n        /* \"#utility.yul\":3145:3171   */\n      swap1\n      pop\n        /* \"#utility.yul\":3217:3226   */\n      dup2\n        /* \"#utility.yul\":3211:3215   */\n      dup2\n        /* \"#utility.yul\":3207:3227   */\n      sub\n        /* \"#utility.yul\":3203:3204   */\n      0x00\n        /* \"#utility.yul\":3192:3201   */\n      dup4\n        /* \"#utility.yul\":3188:3205   */\n      add\n        /* \"#utility.yul\":3181:3228   */\n      mstore\n        /* \"#utility.yul\":3245:3376   */\n      tag_126\n        /* \"#utility.yul\":3371:3375   */\n      dup2\n        /* \"#utility.yul\":3245:3376   */\n      tag_71\n      jump\t// in\n    tag_126:\n        /* \"#utility.yul\":3237:3376   */\n      swap1\n      pop\n        /* \"#utility.yul\":2964:3383   */\n      swap2\n      swap1\n      pop\n      jump\t// out\n        /* \"#utility.yul\":3389:3515   */\n    tag_72:\n        /* \"#utility.yul\":3426:3433   */\n      0x00\n        /* \"#utility.yul\":3466:3508   */\n      0xffffffffffffffffffffffffffffffffffffffff\n        /* \"#utility.yul\":3459:3464   */\n      dup3\n        /* \"#utility.yul\":3455:3509   */\n      and\n        /* \"#utility.yul\":3444:3509   */\n      swap1\n      pop\n        /* \"#utility.yul\":3389:3515   */\n      swap2\n      swap1\n      pop\n      jump\t// out\n        /* \"#utility.yul\":3521:3617   */\n    tag_73:\n        /* \"#utility.yul\":3558:3565   */\n      0x00\n        /* \"#utility.yul\":3587:3611   */\n      tag_129\n        /* \"#utility.yul\":3605:3610   */\n      dup3\n        /* \"#utility.yul\":3587:3611   */\n      tag_72\n      jump\t// in\n    tag_129:\n        /* \"#utility.yul\":3576:3611   */\n      swap1\n      pop\n        /* \"#utility.yul\":3521:3617   */\n      swap2\n      swap1\n      pop\n      jump\t// out\n        /* \"#utility.yul\":3623:3741   */\n    tag_74:\n        /* \"#utility.yul\":3710:3734   */\n      tag_131\n        /* \"#utility.yul\":3728:3733   */\n      dup2\n        /* \"#utility.yul\":3710:3734   */\n      tag_73\n      jump\t// in\n    tag_131:\n        /* \"#utility.yul\":3705:3708   */\n      dup3\n        /* \"#utility.yul\":3698:3735   */\n      mstore\n        /* \"#utility.yul\":3623:3741   */\n      pop\n      pop\n      jump\t// out\n        /* \"#utility.yul\":3747:3969   */\n    tag_26:\n        /* \"#utility.yul\":3840:3844   */\n      0x00\n        /* \"#utility.yul\":3878:3880   */\n      0x20\n        /* \"#utility.yul\":3867:3876   */\n      dup3\n        /* \"#utility.yul\":3863:3881   */\n      add\n        /* \"#utility.yul\":3855:3881   */\n      swap1\n      pop\n        /* \"#utility.yul\":3891:3962   */\n      tag_133\n        /* \"#utility.yul\":3959:3960   */\n      0x00\n        /* \"#utility.yul\":3948:3957   */\n      dup4\n        /* \"#utility.yul\":3944:3961   */\n      add\n        /* \"#utility.yul\":3935:3941   */\n      dup5\n        /* \"#utility.yul\":3891:3962   */\n      tag_74\n      jump\t// in\n    tag_133:\n        /* \"#utility.yul\":3747:3969   */\n      swap3\n      swap2\n      pop\n      pop\n      jump\t// out\n        /* \"#utility.yul\":3975:4118   */\n    tag_75:\n        /* \"#utility.yul\":4032:4037   */\n      0x00\n        /* \"#utility.yul\":4063:4069   */\n      dup2\n        /* \"#utility.yul\":4057:4070   */\n      mload\n        /* \"#utility.yul\":4048:4070   */\n      swap1\n      pop\n        /* \"#utility.yul\":4079:4112   */\n      tag_135\n        /* \"#utility.yul\":4106:4111   */\n      dup2\n        /* \"#utility.yul\":4079:4112   */\n      tag_66\n      jump\t// in\n    tag_135:\n        /* \"#utility.yul\":3975:4118   */\n      swap3\n      swap2\n      pop\n      pop\n      jump\t// out\n        /* \"#utility.yul\":4124:4475   */\n    tag_30:\n        /* \"#utility.yul\":4194:4200   */\n      0x00\n        /* \"#utility.yul\":4243:4245   */\n      0x20\n        /* \"#utility.yul\":4231:4240   */\n      dup3\n        /* \"#utility.yul\":4222:4229   */\n      dup5\n        /* \"#utility.yul\":4218:4241   */\n      sub\n        /* \"#utility.yul\":4214:4246   */\n      slt\n        /* \"#utility.yul\":4211:4330   */\n      iszero\n      tag_137\n      jumpi\n        /* \"#utility.yul\":4249:4328   */\n      tag_138\n      tag_61\n      jump\t// in\n    tag_138:\n        /* \"#utility.yul\":4211:4330   */\n    tag_137:\n        /* \"#utility.yul\":4369:4370   */\n      0x00\n        /* \"#utility.yul\":4394:4458   */\n      tag_139\n        /* \"#utility.yul\":4450:4457   */\n      dup5\n        /* \"#utility.yul\":4441:4447   */\n      dup3\n        /* \"#utility.yul\":4430:4439   */\n      dup6\n        /* \"#utility.yul\":4426:4448   */\n      add\n        /* \"#utility.yul\":4394:4458   */\n      tag_75\n      jump\t// in\n    tag_139:\n        /* \"#utility.yul\":4384:4458   */\n      swap2\n      pop\n        /* \"#utility.yul\":4340:4468   */\n      pop\n        /* \"#utility.yul\":4124:4475   */\n      swap3\n      swap2\n      pop\n      pop\n      jump\t// out\n        /* \"#utility.yul\":4481:4658   */\n    tag_76:\n        /* \"#utility.yul\":4621:4650   */\n      0x4e6f7420656e6f756768204c494e4b20696e20636f6e74726163740000000000\n        /* \"#utility.yul\":4617:4618   */\n      0x00\n        /* \"#utility.yul\":4609:4615   */\n      dup3\n        /* \"#utility.yul\":4605:4619   */\n      add\n        /* \"#utility.yul\":4598:4651   */\n      mstore\n        /* \"#utility.yul\":4481:4658   */\n      pop\n      jump\t// out\n        /* \"#utility.yul\":4664:5030   */\n    tag_77:\n        /* \"#utility.yul\":4806:4809   */\n      0x00\n        /* \"#utility.yul\":4827:4894   */\n      tag_142\n        /* \"#utility.yul\":4891:4893   */\n      0x1b\n        /* \"#utility.yul\":4886:4889   */\n      dup4\n        /* \"#utility.yul\":4827:4894   */\n      tag_69\n      jump\t// in\n    tag_142:\n        /* \"#utility.yul\":4820:4894   */\n      swap2\n      pop\n        /* \"#utility.yul\":4903:4996   */\n      tag_143\n        /* \"#utility.yul\":4992:4995   */\n      dup3\n        /* \"#utility.yul\":4903:4996   */\n      tag_76\n      jump\t// in\n    tag_143:\n        /* \"#utility.yul\":5021:5023   */\n      0x20\n        /* \"#utility.yul\":5016:5019   */\n      dup3\n        /* \"#utility.yul\":5012:5024   */\n      add\n        /* \"#utility.yul\":5005:5024   */\n      swap1\n      pop\n        /* \"#utility.yul\":4664:5030   */\n      swap2\n      swap1\n      pop\n      jump\t// out\n        /* \"#utility.yul\":5036:5455   */\n    tag_33:\n        /* \"#utility.yul\":5202:5206   */\n      0x00\n        /* \"#utility.yul\":5240:5242   */\n      0x20\n        /* \"#utility.yul\":5229:5238   */\n      dup3\n        /* \"#utility.yul\":5225:5243   */\n      add\n        /* \"#utility.yul\":5217:5243   */\n      swap1\n      pop\n        /* \"#utility.yul\":5289:5298   */\n      dup2\n        /* \"#utility.yul\":5283:5287   */\n      dup2\n        /* \"#utility.yul\":5279:5299   */\n      sub\n        /* \"#utility.yul\":5275:5276   */\n      0x00\n        /* \"#utility.yul\":5264:5273   */\n      dup4\n        /* \"#utility.yul\":5260:5277   */\n      add\n        /* \"#utility.yul\":5253:5300   */\n      mstore\n        /* \"#utility.yul\":5317:5448   */\n      tag_145\n        /* \"#utility.yul\":5443:5447   */\n      dup2\n        /* \"#utility.yul\":5317:5448   */\n      tag_77\n      jump\t// in\n    tag_145:\n        /* \"#utility.yul\":5309:5448   */\n      swap1\n      pop\n        /* \"#utility.yul\":5036:5455   */\n      swap2\n      swap1\n      pop\n      jump\t// out\n        /* \"#utility.yul\":5461:5793   */\n    tag_39:\n        /* \"#utility.yul\":5582:5586   */\n      0x00\n        /* \"#utility.yul\":5620:5622   */\n      0x40\n        /* \"#utility.yul\":5609:5618   */\n      dup3\n        /* \"#utility.yul\":5605:5623   */\n      add\n        /* \"#utility.yul\":5597:5623   */\n      swap1\n      pop\n        /* \"#utility.yul\":5633:5704   */\n      tag_147\n        /* \"#utility.yul\":5701:5702   */\n      0x00\n        /* \"#utility.yul\":5690:5699   */\n      dup4\n        /* \"#utility.yul\":5686:5703   */\n      add\n        /* \"#utility.yul\":5677:5683   */\n      dup6\n        /* \"#utility.yul\":5633:5704   */\n      tag_68\n      jump\t// in\n    tag_147:\n        /* \"#utility.yul\":5714:5786   */\n      tag_148\n        /* \"#utility.yul\":5782:5784   */\n      0x20\n        /* \"#utility.yul\":5771:5780   */\n      dup4\n        /* \"#utility.yul\":5767:5785   */\n      add\n        /* \"#utility.yul\":5758:5764   */\n      dup5\n        /* \"#utility.yul\":5714:5786   */\n      tag_59\n      jump\t// in\n    tag_148:\n        /* \"#utility.yul\":5461:5793   */\n      swap4\n      swap3\n      pop\n      pop\n      pop\n      jump\t// out\n        /* \"#utility.yul\":5799:5897   */\n    tag_78:\n        /* \"#utility.yul\":5850:5856   */\n      0x00\n        /* \"#utility.yul\":5884:5889   */\n      dup2\n        /* \"#utility.yul\":5878:5890   */\n      mload\n        /* \"#utility.yul\":5868:5890   */\n      swap1\n      pop\n        /* \"#utility.yul\":5799:5897   */\n      swap2\n      swap1\n      pop\n      jump\t// out\n        /* \"#utility.yul\":5903:6071   */\n    tag_79:\n        /* \"#utility.yul\":5986:5997   */\n      0x00\n        /* \"#utility.yul\":6020:6026   */\n      dup3\n        /* \"#utility.yul\":6015:6018   */\n      dup3\n        /* \"#utility.yul\":6008:6027   */\n      mstore\n        /* \"#utility.yul\":6060:6064   */\n      0x20\n        /* \"#utility.yul\":6055:6058   */\n      dup3\n        /* \"#utility.yul\":6051:6065   */\n      add\n        /* \"#utility.yul\":6036:6065   */\n      swap1\n      pop\n        /* \"#utility.yul\":5903:6071   */\n      swap3\n      swap2\n      pop\n      pop\n      jump\t// out\n        /* \"#utility.yul\":6077:6384   */\n    tag_80:\n        /* \"#utility.yul\":6145:6146   */\n      0x00\n        /* \"#utility.yul\":6155:6268   */\n    tag_152:\n        /* \"#utility.yul\":6169:6175   */\n      dup4\n        /* \"#utility.yul\":6166:6167   */\n      dup2\n        /* \"#utility.yul\":6163:6176   */\n      lt\n        /* \"#utility.yul\":6155:6268   */\n      iszero\n      tag_154\n      jumpi\n        /* \"#utility.yul\":6254:6255   */\n      dup1\n        /* \"#utility.yul\":6249:6252   */\n      dup3\n        /* \"#utility.yul\":6245:6256   */\n      add\n        /* \"#utility.yul\":6239:6257   */\n      mload\n        /* \"#utility.yul\":6235:6236   */\n      dup2\n        /* \"#utility.yul\":6230:6233   */\n      dup5\n        /* \"#utility.yul\":6226:6237   */\n      add\n        /* \"#utility.yul\":6219:6258   */\n      mstore\n        /* \"#utility.yul\":6191:6193   */\n      0x20\n        /* \"#utility.yul\":6188:6189   */\n      dup2\n        /* \"#utility.yul\":6184:6194   */\n      add\n        /* \"#utility.yul\":6179:6194   */\n      swap1\n      pop\n        /* \"#utility.yul\":6155:6268   */\n      jump(tag_152)\n    tag_154:\n        /* \"#utility.yul\":6286:6292   */\n      dup4\n        /* \"#utility.yul\":6283:6284   */\n      dup2\n        /* \"#utility.yul\":6280:6293   */\n      gt\n        /* \"#utility.yul\":6277:6378   */\n      iszero\n      tag_155\n      jumpi\n        /* \"#utility.yul\":6366:6367   */\n      0x00\n        /* \"#utility.yul\":6357:6363   */\n      dup5\n        /* \"#utility.yul\":6352:6355   */\n      dup5\n        /* \"#utility.yul\":6348:6364   */\n      add\n        /* \"#utility.yul\":6341:6368   */\n      mstore\n        /* \"#utility.yul\":6277:6378   */\n    tag_155:\n        /* \"#utility.yul\":6126:6384   */\n      pop\n        /* \"#utility.yul\":6077:6384   */\n      pop\n      pop\n      pop\n      jump\t// out\n        /* \"#utility.yul\":6390:6492   */\n    tag_81:\n        /* \"#utility.yul\":6431:6437   */\n      0x00\n        /* \"#utility.yul\":6482:6484   */\n      0x1f\n        /* \"#utility.yul\":6478:6485   */\n      not\n        /* \"#utility.yul\":6473:6475   */\n      0x1f\n        /* \"#utility.yul\":6466:6471   */\n      dup4\n        /* \"#utility.yul\":6462:6476   */\n      add\n        /* \"#utility.yul\":6458:6486   */\n      and\n        /* \"#utility.yul\":6448:6486   */\n      swap1\n      pop\n        /* \"#utility.yul\":6390:6492   */\n      swap2\n      swap1\n      pop\n      jump\t// out\n        /* \"#utility.yul\":6498:6858   */\n    tag_82:\n        /* \"#utility.yul\":6584:6587   */\n      0x00\n        /* \"#utility.yul\":6612:6650   */\n      tag_158\n        /* \"#utility.yul\":6644:6649   */\n      dup3\n        /* \"#utility.yul\":6612:6650   */\n      tag_78\n      jump\t// in\n    tag_158:\n        /* \"#utility.yul\":6666:6736   */\n      tag_159\n        /* \"#utility.yul\":6729:6735   */\n      dup2\n        /* \"#utility.yul\":6724:6727   */\n      dup6\n        /* \"#utility.yul\":6666:6736   */\n      tag_79\n      jump\t// in\n    tag_159:\n        /* \"#utility.yul\":6659:6736   */\n      swap4\n      pop\n        /* \"#utility.yul\":6745:6797   */\n      tag_160\n        /* \"#utility.yul\":6790:6796   */\n      dup2\n        /* \"#utility.yul\":6785:6788   */\n      dup6\n        /* \"#utility.yul\":6778:6782   */\n      0x20\n        /* \"#utility.yul\":6771:6776   */\n      dup7\n        /* \"#utility.yul\":6767:6783   */\n      add\n        /* \"#utility.yul\":6745:6797   */\n      tag_80\n      jump\t// in\n    tag_160:\n        /* \"#utility.yul\":6822:6851   */\n      tag_161\n        /* \"#utility.yul\":6844:6850   */\n      dup2\n        /* \"#utility.yul\":6822:6851   */\n      tag_81\n      jump\t// in\n    tag_161:\n        /* \"#utility.yul\":6817:6820   */\n      dup5\n        /* \"#utility.yul\":6813:6852   */\n      add\n        /* \"#utility.yul\":6806:6852   */\n      swap2\n      pop\n        /* \"#utility.yul\":6588:6858   */\n      pop\n        /* \"#utility.yul\":6498:6858   */\n      swap3\n      swap2\n      pop\n      pop\n      jump\t// out\n        /* \"#utility.yul\":6864:7393   */\n    tag_41:\n        /* \"#utility.yul\":7031:7035   */\n      0x00\n        /* \"#utility.yul\":7069:7071   */\n      0x60\n        /* \"#utility.yul\":7058:7067   */\n      dup3\n        /* \"#utility.yul\":7054:7072   */\n      add\n        /* \"#utility.yul\":7046:7072   */\n      swap1\n      pop\n        /* \"#utility.yul\":7082:7153   */\n      tag_163\n        /* \"#utility.yul\":7150:7151   */\n      0x00\n        /* \"#utility.yul\":7139:7148   */\n      dup4\n        /* \"#utility.yul\":7135:7152   */\n      add\n        /* \"#utility.yul\":7126:7132   */\n      dup7\n        /* \"#utility.yul\":7082:7153   */\n      tag_74\n      jump\t// in\n    tag_163:\n        /* \"#utility.yul\":7163:7235   */\n      tag_164\n        /* \"#utility.yul\":7231:7233   */\n      0x20\n        /* \"#utility.yul\":7220:7229   */\n      dup4\n        /* \"#utility.yul\":7216:7234   */\n      add\n        /* \"#utility.yul\":7207:7213   */\n      dup6\n        /* \"#utility.yul\":7163:7235   */\n      tag_59\n      jump\t// in\n    tag_164:\n        /* \"#utility.yul\":7282:7291   */\n      dup2\n        /* \"#utility.yul\":7276:7280   */\n      dup2\n        /* \"#utility.yul\":7272:7292   */\n      sub\n        /* \"#utility.yul\":7267:7269   */\n      0x40\n        /* \"#utility.yul\":7256:7265   */\n      dup4\n        /* \"#utility.yul\":7252:7270   */\n      add\n        /* \"#utility.yul\":7245:7293   */\n      mstore\n        /* \"#utility.yul\":7310:7386   */\n      tag_165\n        /* \"#utility.yul\":7381:7385   */\n      dup2\n        /* \"#utility.yul\":7372:7378   */\n      dup5\n        /* \"#utility.yul\":7310:7386   */\n      tag_82\n      jump\t// in\n    tag_165:\n        /* \"#utility.yul\":7302:7386   */\n      swap1\n      pop\n        /* \"#utility.yul\":6864:7393   */\n      swap5\n      swap4\n      pop\n      pop\n      pop\n      pop\n      jump\t// out\n        /* \"#utility.yul\":7399:7489   */\n    tag_83:\n        /* \"#utility.yul\":7433:7440   */\n      0x00\n        /* \"#utility.yul\":7476:7481   */\n      dup2\n        /* \"#utility.yul\":7469:7482   */\n      iszero\n        /* \"#utility.yul\":7462:7483   */\n      iszero\n        /* \"#utility.yul\":7451:7483   */\n      swap1\n      pop\n        /* \"#utility.yul\":7399:7489   */\n      swap2\n      swap1\n      pop\n      jump\t// out\n        /* \"#utility.yul\":7495:7611   */\n    tag_84:\n        /* \"#utility.yul\":7565:7586   */\n      tag_168\n        /* \"#utility.yul\":7580:7585   */\n      dup2\n        /* \"#utility.yul\":7565:7586   */\n      tag_83\n      jump\t// in\n    tag_168:\n        /* \"#utility.yul\":7558:7563   */\n      dup2\n        /* \"#utility.yul\":7555:7587   */\n      eq\n        /* \"#utility.yul\":7545:7605   */\n      tag_169\n      jumpi\n        /* \"#utility.yul\":7601:7602   */\n      0x00\n        /* \"#utility.yul\":7598:7599   */\n      dup1\n        /* \"#utility.yul\":7591:7603   */\n      revert\n        /* \"#utility.yul\":7545:7605   */\n    tag_169:\n        /* \"#utility.yul\":7495:7611   */\n      pop\n      jump\t// out\n        /* \"#utility.yul\":7617:7754   */\n    tag_85:\n        /* \"#utility.yul\":7671:7676   */\n      0x00\n        /* \"#utility.yul\":7702:7708   */\n      dup2\n        /* \"#utility.yul\":7696:7709   */\n      mload\n        /* \"#utility.yul\":7687:7709   */\n      swap1\n      pop\n        /* \"#utility.yul\":7718:7748   */\n      tag_171\n        /* \"#utility.yul\":7742:7747   */\n      dup2\n        /* \"#utility.yul\":7718:7748   */\n      tag_84\n      jump\t// in\n    tag_171:\n        /* \"#utility.yul\":7617:7754   */\n      swap3\n      swap2\n      pop\n      pop\n      jump\t// out\n        /* \"#utility.yul\":7760:8105   */\n    tag_45:\n        /* \"#utility.yul\":7827:7833   */\n      0x00\n        /* \"#utility.yul\":7876:7878   */\n      0x20\n        /* \"#utility.yul\":7864:7873   */\n      dup3\n        /* \"#utility.yul\":7855:7862   */\n      dup5\n        /* \"#utility.yul\":7851:7874   */\n      sub\n        /* \"#utility.yul\":7847:7879   */\n      slt\n        /* \"#utility.yul\":7844:7963   */\n      iszero\n      tag_173\n      jumpi\n        /* \"#utility.yul\":7882:7961   */\n      tag_174\n      tag_61\n      jump\t// in\n    tag_174:\n        /* \"#utility.yul\":7844:7963   */\n    tag_173:\n        /* \"#utility.yul\":8002:8003   */\n      0x00\n        /* \"#utility.yul\":8027:8088   */\n      tag_175\n        /* \"#utility.yul\":8080:8087   */\n      dup5\n        /* \"#utility.yul\":8071:8077   */\n      dup3\n        /* \"#utility.yul\":8060:8069   */\n      dup6\n        /* \"#utility.yul\":8056:8078   */\n      add\n        /* \"#utility.yul\":8027:8088   */\n      tag_85\n      jump\t// in\n    tag_175:\n        /* \"#utility.yul\":8017:8088   */\n      swap2\n      pop\n        /* \"#utility.yul\":7973:8098   */\n      pop\n        /* \"#utility.yul\":7760:8105   */\n      swap3\n      swap2\n      pop\n      pop\n      jump\t// out\n        /* \"#utility.yul\":8111:8291   */\n    tag_86:\n        /* \"#utility.yul\":8159:8236   */\n      0x4e487b7100000000000000000000000000000000000000000000000000000000\n        /* \"#utility.yul\":8156:8157   */\n      0x00\n        /* \"#utility.yul\":8149:8237   */\n      mstore\n        /* \"#utility.yul\":8256:8260   */\n      0x11\n        /* \"#utility.yul\":8253:8254   */\n      0x04\n        /* \"#utility.yul\":8246:8261   */\n      mstore\n        /* \"#utility.yul\":8280:8284   */\n      0x24\n        /* \"#utility.yul\":8277:8278   */\n      0x00\n        /* \"#utility.yul\":8270:8285   */\n      revert\n        /* \"#utility.yul\":8297:8602   */\n    tag_49:\n        /* \"#utility.yul\":8337:8340   */\n      0x00\n        /* \"#utility.yul\":8356:8376   */\n      tag_178\n        /* \"#utility.yul\":8374:8375   */\n      dup3\n        /* \"#utility.yul\":8356:8376   */\n      tag_58\n      jump\t// in\n    tag_178:\n        /* \"#utility.yul\":8351:8376   */\n      swap2\n      pop\n        /* \"#utility.yul\":8390:8410   */\n      tag_179\n        /* \"#utility.yul\":8408:8409   */\n      dup4\n        /* \"#utility.yul\":8390:8410   */\n      tag_58\n      jump\t// in\n    tag_179:\n        /* \"#utility.yul\":8385:8410   */\n      swap3\n      pop\n        /* \"#utility.yul\":8544:8545   */\n      dup3\n        /* \"#utility.yul\":8476:8542   */\n      0xffffffffffffffffffffffffffffffffffffffffffffffffffffffffffffffff\n        /* \"#utility.yul\":8472:8546   */\n      sub\n        /* \"#utility.yul\":8469:8470   */\n      dup3\n        /* \"#utility.yul\":8466:8547   */\n      gt\n        /* \"#utility.yul\":8463:8570   */\n      iszero\n      tag_180\n      jumpi\n        /* \"#utility.yul\":8550:8568   */\n      tag_181\n      tag_86\n      jump\t// in\n    tag_181:\n        /* \"#utility.yul\":8463:8570   */\n    tag_180:\n        /* \"#utility.yul\":8594:8595   */\n      dup3\n        /* \"#utility.yul\":8591:8592   */\n      dup3\n        /* \"#utility.yul\":8587:8596   */\n      add\n        /* \"#utility.yul\":8580:8596   */\n      swap1\n      pop\n        /* \"#utility.yul\":8297:8602   */\n      swap3\n      swap2\n      pop\n      pop\n      jump\t// out\n        /* \"#utility.yul\":8608:9161   */\n    tag_54:\n        /* \"#utility.yul\":8785:8789   */\n      0x00\n        /* \"#utility.yul\":8823:8826   */\n      0x80\n        /* \"#utility.yul\":8812:8821   */\n      dup3\n        /* \"#utility.yul\":8808:8827   */\n      add\n        /* \"#utility.yul\":8800:8827   */\n      swap1\n      pop\n        /* \"#utility.yul\":8837:8908   */\n      tag_183\n        /* \"#utility.yul\":8905:8906   */\n      0x00\n        /* \"#utility.yul\":8894:8903   */\n      dup4\n        /* \"#utility.yul\":8890:8907   */\n      add\n        /* \"#utility.yul\":8881:8887   */\n      dup8\n        /* \"#utility.yul\":8837:8908   */\n      tag_68\n      jump\t// in\n    tag_183:\n        /* \"#utility.yul\":8918:8990   */\n      tag_184\n        /* \"#utility.yul\":8986:8988   */\n      0x20\n        /* \"#utility.yul\":8975:8984   */\n      dup4\n        /* \"#utility.yul\":8971:8989   */\n      add\n        /* \"#utility.yul\":8962:8968   */\n      dup7\n        /* \"#utility.yul\":8918:8990   */\n      tag_59\n      jump\t// in\n    tag_184:\n        /* \"#utility.yul\":9000:9072   */\n      tag_185\n        /* \"#utility.yul\":9068:9070   */\n      0x40\n        /* \"#utility.yul\":9057:9066   */\n      dup4\n        /* \"#utility.yul\":9053:9071   */\n      add\n        /* \"#utility.yul\":9044:9050   */\n      dup6\n        /* \"#utility.yul\":9000:9072   */\n      tag_74\n      jump\t// in\n    tag_185:\n        /* \"#utility.yul\":9082:9154   */\n      tag_186\n        /* \"#utility.yul\":9150:9152   */\n      0x60\n        /* \"#utility.yul\":9139:9148   */\n      dup4\n        /* \"#utility.yul\":9135:9153   */\n      add\n        /* \"#utility.yul\":9126:9132   */\n      dup5\n        /* \"#utility.yul\":9082:9154   */\n      tag_59\n      jump\t// in\n    tag_186:\n        /* \"#utility.yul\":8608:9161   */\n      swap6\n      swap5\n      pop\n      pop\n      pop\n      pop\n      pop\n      jump\t// out\n        /* \"#utility.yul\":9167:9246   */\n    tag_87:\n        /* \"#utility.yul\":9206:9213   */\n      0x00\n        /* \"#utility.yul\":9235:9240   */\n      dup2\n        /* \"#utility.yul\":9224:9240   */\n      swap1\n      pop\n        /* \"#utility.yul\":9167:9246   */\n      swap2\n      swap1\n      pop\n      jump\t// out\n        /* \"#utility.yul\":9252:9409   */\n    tag_88:\n        /* \"#utility.yul\":9357:9402   */\n      tag_189\n        /* \"#utility.yul\":9377:9401   */\n      tag_190\n        /* \"#utility.yul\":9395:9400   */\n      dup3\n        /* \"#utility.yul\":9377:9401   */\n      tag_63\n      jump\t// in\n    tag_190:\n        /* \"#utility.yul\":9357:9402   */\n      tag_87\n      jump\t// in\n    tag_189:\n        /* \"#utility.yul\":9352:9355   */\n      dup3\n        /* \"#utility.yul\":9345:9403   */\n      mstore\n        /* \"#utility.yul\":9252:9409   */\n      pop\n      pop\n      jump\t// out\n        /* \"#utility.yul\":9415:9494   */\n    tag_89:\n        /* \"#utility.yul\":9454:9461   */\n      0x00\n        /* \"#utility.yul\":9483:9488   */\n      dup2\n        /* \"#utility.yul\":9472:9488   */\n      swap1\n      pop\n        /* \"#utility.yul\":9415:9494   */\n      swap2\n      swap1\n      pop\n      jump\t// out\n        /* \"#utility.yul\":9500:9657   */\n    tag_90:\n        /* \"#utility.yul\":9605:9650   */\n      tag_193\n        /* \"#utility.yul\":9625:9649   */\n      tag_194\n        /* \"#utility.yul\":9643:9648   */\n      dup3\n        /* \"#utility.yul\":9625:9649   */\n      tag_58\n      jump\t// in\n    tag_194:\n        /* \"#utility.yul\":9605:9650   */\n      tag_89\n      jump\t// in\n    tag_193:\n        /* \"#utility.yul\":9600:9603   */\n      dup3\n        /* \"#utility.yul\":9593:9651   */\n      mstore\n        /* \"#utility.yul\":9500:9657   */\n      pop\n      pop\n      jump\t// out\n        /* \"#utility.yul\":9663:10060   */\n    tag_57:\n        /* \"#utility.yul\":9803:9806   */\n      0x00\n        /* \"#utility.yul\":9818:9893   */\n      tag_196\n        /* \"#utility.yul\":9889:9892   */\n      dup3\n        /* \"#utility.yul\":9880:9886   */\n      dup6\n        /* \"#utility.yul\":9818:9893   */\n      tag_88\n      jump\t// in\n    tag_196:\n        /* \"#utility.yul\":9918:9920   */\n      0x20\n        /* \"#utility.yul\":9913:9916   */\n      dup3\n        /* \"#utility.yul\":9909:9921   */\n      add\n        /* \"#utility.yul\":9902:9921   */\n      swap2\n      pop\n        /* \"#utility.yul\":9931:10006   */\n      tag_197\n        /* \"#utility.yul\":10002:10005   */\n      dup3\n        /* \"#utility.yul\":9993:9999   */\n      dup5\n        /* \"#utility.yul\":9931:10006   */\n      tag_90\n      jump\t// in\n    tag_197:\n        /* \"#utility.yul\":10031:10033   */\n      0x20\n        /* \"#utility.yul\":10026:10029   */\n      dup3\n        /* \"#utility.yul\":10022:10034   */\n      add\n        /* \"#utility.yul\":10015:10034   */\n      swap2\n      pop\n        /* \"#utility.yul\":10051:10054   */\n      dup2\n        /* \"#utility.yul\":10044:10054   */\n      swap1\n      pop\n        /* \"#utility.yul\":9663:10060   */\n      swap4\n      swap3\n      pop\n      pop\n      pop\n      jump\t// out\n\n    auxdata: 0xa2646970667358221220c4431c717c4c60e7f3c2bb40a57b4a696a750005ac249dd2e7bd15116fe7c10f64736f6c634300080d0033\n}\n",
				"bytecode": {
					"linkReferences": {},
					"object": "60c060405234801561001057600080fd5b50736168499c0cffcacd319c818142124b7a15e857ab7301be23585060835e02b77ef475b0cc51aa1e07098173ffffffffffffffffffffffffffffffffffffffff1660a08173ffffffffffffffffffffffffffffffffffffffff16815250508073ffffffffffffffffffffffffffffffffffffffff1660808173ffffffffffffffffffffffffffffffffffffffff168152505050507fd89b2bf150e3b9e13446986e571fb9cab24b13cea0a43ea20a6049a85cc807cc60001b60018190555067016345785d8a000060028190555060805160a05161095c6101106000396000818160a6015261027e0152600081816101470152610242015261095c6000f3fe608060405234801561001057600080fd5b50600436106100415760003560e01c806342619f661461004657806394985ddd14610064578063dbdff2c114610080575b600080fd5b61004e61009e565b60405161005b9190610416565b60405180910390f35b61007e60048036038101906100799190610498565b6100a4565b005b610088610140565b60405161009591906104e7565b60405180910390f35b60035481565b7f000000000000000000000000000000000000000000000000000000000000000073ffffffffffffffffffffffffffffffffffffffff163373ffffffffffffffffffffffffffffffffffffffff1614610132576040517f08c379a00000000000000000000000000000000000000000000000000000000081526004016101299061055f565b60405180910390fd5b61013c8282610233565b5050565b60006002547f000000000000000000000000000000000000000000000000000000000000000073ffffffffffffffffffffffffffffffffffffffff166370a08231306040518263ffffffff1660e01b815260040161019e91906105c0565b602060405180830381865afa1580156101bb573d6000803e3d6000fd5b505050506040513d601f19601f820116820180604052508101906101df91906105f0565b1015610220576040517f08c379a000000000000000000000000000000000000000000000000000000000815260040161021790610669565b60405180910390fd5b61022e60015460025461023e565b905090565b806003819055505050565b60007f000000000000000000000000000000000000000000000000000000000000000073ffffffffffffffffffffffffffffffffffffffff16634000aea07f0000000000000000000000000000000000000000000000000000000000000000848660006040516020016102b2929190610689565b6040516020818303038152906040526040518463ffffffff1660e01b81526004016102df9392919061074b565b6020604051808303816000875af11580156102fe573d6000803e3d6000fd5b505050506040513d601f19601f8201168201806040525081019061032291906107c1565b506000610344846000306000808981526020019081526020016000205461038e565b9050600160008086815260200190815260200160002054610365919061081d565b6000808681526020019081526020016000208190555061038584826103ca565b91505092915050565b6000848484846040516020016103a79493929190610873565b6040516020818303038152906040528051906020012060001c9050949350505050565b600082826040516020016103df9291906108fa565b60405160208183030381529060405280519060200120905092915050565b6000819050919050565b610410816103fd565b82525050565b600060208201905061042b6000830184610407565b92915050565b600080fd5b6000819050919050565b61044981610436565b811461045457600080fd5b50565b60008135905061046681610440565b92915050565b610475816103fd565b811461048057600080fd5b50565b6000813590506104928161046c565b92915050565b600080604083850312156104af576104ae610431565b5b60006104bd85828601610457565b92505060206104ce85828601610483565b9150509250929050565b6104e181610436565b82525050565b60006020820190506104fc60008301846104d8565b92915050565b600082825260208201905092915050565b7f4f6e6c7920565246436f6f7264696e61746f722063616e2066756c66696c6c00600082015250565b6000610549601f83610502565b915061055482610513565b602082019050919050565b600060208201905081810360008301526105788161053c565b9050919050565b600073ffffffffffffffffffffffffffffffffffffffff82169050919050565b60006105aa8261057f565b9050919050565b6105ba8161059f565b82525050565b60006020820190506105d560008301846105b1565b92915050565b6000815190506105ea8161046c565b92915050565b60006020828403121561060657610605610431565b5b6000610614848285016105db565b91505092915050565b7f4e6f7420656e6f756768204c494e4b20696e20636f6e74726163740000000000600082015250565b6000610653601b83610502565b915061065e8261061d565b602082019050919050565b6000602082019050818103600083015261068281610646565b9050919050565b600060408201905061069e60008301856104d8565b6106ab6020830184610407565b9392505050565b600081519050919050565b600082825260208201905092915050565b60005b838110156106ec5780820151818401526020810190506106d1565b838111156106fb576000848401525b50505050565b6000601f19601f8301169050919050565b600061071d826106b2565b61072781856106bd565b93506107378185602086016106ce565b61074081610701565b840191505092915050565b600060608201905061076060008301866105b1565b61076d6020830185610407565b818103604083015261077f8184610712565b9050949350505050565b60008115159050919050565b61079e81610789565b81146107a957600080fd5b50565b6000815190506107bb81610795565b92915050565b6000602082840312156107d7576107d6610431565b5b60006107e5848285016107ac565b91505092915050565b7f4e487b7100000000000000000000000000000000000000000000000000000000600052601160045260246000fd5b6000610828826103fd565b9150610833836103fd565b9250827fffffffffffffffffffffffffffffffffffffffffffffffffffffffffffffffff03821115610868576108676107ee565b5b828201905092915050565b600060808201905061088860008301876104d8565b6108956020830186610407565b6108a260408301856105b1565b6108af6060830184610407565b95945050505050565b6000819050919050565b6108d36108ce82610436565b6108b8565b82525050565b6000819050919050565b6108f46108ef826103fd565b6108d9565b82525050565b600061090682856108c2565b60208201915061091682846108e3565b602082019150819050939250505056fea2646970667358221220c4431c717c4c60e7f3c2bb40a57b4a696a750005ac249dd2e7bd15116fe7c10f64736f6c634300080d0033",
					"opcodes": "PUSH1 0xC0 PUSH1 0x40 MSTORE CALLVALUE DUP1 ISZERO PUSH2 0x10 JUMPI PUSH1 0x0 DUP1 REVERT JUMPDEST POP PUSH20 0x6168499C0CFFCACD319C818142124B7A15E857AB PUSH20 0x1BE23585060835E02B77EF475B0CC51AA1E0709 DUP2 PUSH20 0xFFFFFFFFFFFFFFFFFFFFFFFFFFFFFFFFFFFFFFFF AND PUSH1 0xA0 DUP2 PUSH20 0xFFFFFFFFFFFFFFFFFFFFFFFFFFFFFFFFFFFFFFFF AND DUP2 MSTORE POP POP DUP1 PUSH20 0xFFFFFFFFFFFFFFFFFFFFFFFFFFFFFFFFFFFFFFFF AND PUSH1 0x80 DUP2 PUSH20 0xFFFFFFFFFFFFFFFFFFFFFFFFFFFFFFFFFFFFFFFF AND DUP2 MSTORE POP POP POP POP PUSH32 0xD89B2BF150E3B9E13446986E571FB9CAB24B13CEA0A43EA20A6049A85CC807CC PUSH1 0x0 SHL PUSH1 0x1 DUP2 SWAP1 SSTORE POP PUSH8 0x16345785D8A0000 PUSH1 0x2 DUP2 SWAP1 SSTORE POP PUSH1 0x80 MLOAD PUSH1 0xA0 MLOAD PUSH2 0x95C PUSH2 0x110 PUSH1 0x0 CODECOPY PUSH1 0x0 DUP2 DUP2 PUSH1 0xA6 ADD MSTORE PUSH2 0x27E ADD MSTORE PUSH1 0x0 DUP2 DUP2 PUSH2 0x147 ADD MSTORE PUSH2 0x242 ADD MSTORE PUSH2 0x95C PUSH1 0x0 RETURN INVALID PUSH1 0x80 PUSH1 0x40 MSTORE CALLVALUE DUP1 ISZERO PUSH2 0x10 JUMPI PUSH1 0x0 DUP1 REVERT JUMPDEST POP PUSH1 0x4 CALLDATASIZE LT PUSH2 0x41 JUMPI PUSH1 0x0 CALLDATALOAD PUSH1 0xE0 SHR DUP1 PUSH4 0x42619F66 EQ PUSH2 0x46 JUMPI DUP1 PUSH4 0x94985DDD EQ PUSH2 0x64 JUMPI DUP1 PUSH4 0xDBDFF2C1 EQ PUSH2 0x80 JUMPI JUMPDEST PUSH1 0x0 DUP1 REVERT JUMPDEST PUSH2 0x4E PUSH2 0x9E JUMP JUMPDEST PUSH1 0x40 MLOAD PUSH2 0x5B SWAP2 SWAP1 PUSH2 0x416 JUMP JUMPDEST PUSH1 0x40 MLOAD DUP1 SWAP2 SUB SWAP1 RETURN JUMPDEST PUSH2 0x7E PUSH1 0x4 DUP1 CALLDATASIZE SUB DUP2 ADD SWAP1 PUSH2 0x79 SWAP2 SWAP1 PUSH2 0x498 JUMP JUMPDEST PUSH2 0xA4 JUMP JUMPDEST STOP JUMPDEST PUSH2 0x88 PUSH2 0x140 JUMP JUMPDEST PUSH1 0x40 MLOAD PUSH2 0x95 SWAP2 SWAP1 PUSH2 0x4E7 JUMP JUMPDEST PUSH1 0x40 MLOAD DUP1 SWAP2 SUB SWAP1 RETURN JUMPDEST PUSH1 0x3 SLOAD DUP2 JUMP JUMPDEST PUSH32 0x0 PUSH20 0xFFFFFFFFFFFFFFFFFFFFFFFFFFFFFFFFFFFFFFFF AND CALLER PUSH20 0xFFFFFFFFFFFFFFFFFFFFFFFFFFFFFFFFFFFFFFFF AND EQ PUSH2 0x132 JUMPI PUSH1 0x40 MLOAD PUSH32 0x8C379A000000000000000000000000000000000000000000000000000000000 DUP2 MSTORE PUSH1 0x4 ADD PUSH2 0x129 SWAP1 PUSH2 0x55F JUMP JUMPDEST PUSH1 0x40 MLOAD DUP1 SWAP2 SUB SWAP1 REVERT JUMPDEST PUSH2 0x13C DUP3 DUP3 PUSH2 0x233 JUMP JUMPDEST POP POP JUMP JUMPDEST PUSH1 0x0 PUSH1 0x2 SLOAD PUSH32 0x0 PUSH20 0xFFFFFFFFFFFFFFFFFFFFFFFFFFFFFFFFFFFFFFFF AND PUSH4 0x70A08231 ADDRESS PUSH1 0x40 MLOAD DUP3 PUSH4 0xFFFFFFFF AND PUSH1 0xE0 SHL DUP2 MSTORE PUSH1 0x4 ADD PUSH2 0x19E SWAP2 SWAP1 PUSH2 0x5C0 JUMP JUMPDEST PUSH1 0x20 PUSH1 0x40 MLOAD DUP1 DUP4 SUB DUP2 DUP7 GAS STATICCALL ISZERO DUP1 ISZERO PUSH2 0x1BB JUMPI RETURNDATASIZE PUSH1 0x0 DUP1 RETURNDATACOPY RETURNDATASIZE PUSH1 0x0 REVERT JUMPDEST POP POP POP POP PUSH1 0x40 MLOAD RETURNDATASIZE PUSH1 0x1F NOT PUSH1 0x1F DUP3 ADD AND DUP3 ADD DUP1 PUSH1 0x40 MSTORE POP DUP2 ADD SWAP1 PUSH2 0x1DF SWAP2 SWAP1 PUSH2 0x5F0 JUMP JUMPDEST LT ISZERO PUSH2 0x220 JUMPI PUSH1 0x40 MLOAD PUSH32 0x8C379A000000000000000000000000000000000000000000000000000000000 DUP2 MSTORE PUSH1 0x4 ADD PUSH2 0x217 SWAP1 PUSH2 0x669 JUMP JUMPDEST PUSH1 0x40 MLOAD DUP1 SWAP2 SUB SWAP1 REVERT JUMPDEST PUSH2 0x22E PUSH1 0x1 SLOAD PUSH1 0x2 SLOAD PUSH2 0x23E JUMP JUMPDEST SWAP1 POP SWAP1 JUMP JUMPDEST DUP1 PUSH1 0x3 DUP2 SWAP1 SSTORE POP POP POP JUMP JUMPDEST PUSH1 0x0 PUSH32 0x0 PUSH20 0xFFFFFFFFFFFFFFFFFFFFFFFFFFFFFFFFFFFFFFFF AND PUSH4 0x4000AEA0 PUSH32 0x0 DUP5 DUP7 PUSH1 0x0 PUSH1 0x40 MLOAD PUSH1 0x20 ADD PUSH2 0x2B2 SWAP3 SWAP2 SWAP1 PUSH2 0x689 JUMP JUMPDEST PUSH1 0x40 MLOAD PUSH1 0x20 DUP2 DUP4 SUB SUB DUP2 MSTORE SWAP1 PUSH1 0x40 MSTORE PUSH1 0x40 MLOAD DUP5 PUSH4 0xFFFFFFFF AND PUSH1 0xE0 SHL DUP2 MSTORE PUSH1 0x4 ADD PUSH2 0x2DF SWAP4 SWAP3 SWAP2 SWAP1 PUSH2 0x74B JUMP JUMPDEST PUSH1 0x20 PUSH1 0x40 MLOAD DUP1 DUP4 SUB DUP2 PUSH1 0x0 DUP8 GAS CALL ISZERO DUP1 ISZERO PUSH2 0x2FE JUMPI RETURNDATASIZE PUSH1 0x0 DUP1 RETURNDATACOPY RETURNDATASIZE PUSH1 0x0 REVERT JUMPDEST POP POP POP POP PUSH1 0x40 MLOAD RETURNDATASIZE PUSH1 0x1F NOT PUSH1 0x1F DUP3 ADD AND DUP3 ADD DUP1 PUSH1 0x40 MSTORE POP DUP2 ADD SWAP1 PUSH2 0x322 SWAP2 SWAP1 PUSH2 0x7C1 JUMP JUMPDEST POP PUSH1 0x0 PUSH2 0x344 DUP5 PUSH1 0x0 ADDRESS PUSH1 0x0 DUP1 DUP10 DUP2 MSTORE PUSH1 0x20 ADD SWAP1 DUP2 MSTORE PUSH1 0x20 ADD PUSH1 0x0 KECCAK256 SLOAD PUSH2 0x38E JUMP JUMPDEST SWAP1 POP PUSH1 0x1 PUSH1 0x0 DUP1 DUP7 DUP2 MSTORE PUSH1 0x20 ADD SWAP1 DUP2 MSTORE PUSH1 0x20 ADD PUSH1 0x0 KECCAK256 SLOAD PUSH2 0x365 SWAP2 SWAP1 PUSH2 0x81D JUMP JUMPDEST PUSH1 0x0 DUP1 DUP7 DUP2 MSTORE PUSH1 0x20 ADD SWAP1 DUP2 MSTORE PUSH1 0x20 ADD PUSH1 0x0 KECCAK256 DUP2 SWAP1 SSTORE POP PUSH2 0x385 DUP5 DUP3 PUSH2 0x3CA JUMP JUMPDEST SWAP2 POP POP SWAP3 SWAP2 POP POP JUMP JUMPDEST PUSH1 0x0 DUP5 DUP5 DUP5 DUP5 PUSH1 0x40 MLOAD PUSH1 0x20 ADD PUSH2 0x3A7 SWAP5 SWAP4 SWAP3 SWAP2 SWAP1 PUSH2 0x873 JUMP JUMPDEST PUSH1 0x40 MLOAD PUSH1 0x20 DUP2 DUP4 SUB SUB DUP2 MSTORE SWAP1 PUSH1 0x40 MSTORE DUP1 MLOAD SWAP1 PUSH1 0x20 ADD KECCAK256 PUSH1 0x0 SHR SWAP1 POP SWAP5 SWAP4 POP POP POP POP JUMP JUMPDEST PUSH1 0x0 DUP3 DUP3 PUSH1 0x40 MLOAD PUSH1 0x20 ADD PUSH2 0x3DF SWAP3 SWAP2 SWAP1 PUSH2 0x8FA JUMP JUMPDEST PUSH1 0x40 MLOAD PUSH1 0x20 DUP2 DUP4 SUB SUB DUP2 MSTORE SWAP1 PUSH1 0x40 MSTORE DUP1 MLOAD SWAP1 PUSH1 0x20 ADD KECCAK256 SWAP1 POP SWAP3 SWAP2 POP POP JUMP JUMPDEST PUSH1 0x0 DUP2 SWAP1 POP SWAP2 SWAP1 POP JUMP JUMPDEST PUSH2 0x410 DUP2 PUSH2 0x3FD JUMP JUMPDEST DUP3 MSTORE POP POP JUMP JUMPDEST PUSH1 0x0 PUSH1 0x20 DUP3 ADD SWAP1 POP PUSH2 0x42B PUSH1 0x0 DUP4 ADD DUP5 PUSH2 0x407 JUMP JUMPDEST SWAP3 SWAP2 POP POP JUMP JUMPDEST PUSH1 0x0 DUP1 REVERT JUMPDEST PUSH1 0x0 DUP2 SWAP1 POP SWAP2 SWAP1 POP JUMP JUMPDEST PUSH2 0x449 DUP2 PUSH2 0x436 JUMP JUMPDEST DUP2 EQ PUSH2 0x454 JUMPI PUSH1 0x0 DUP1 REVERT JUMPDEST POP JUMP JUMPDEST PUSH1 0x0 DUP2 CALLDATALOAD SWAP1 POP PUSH2 0x466 DUP2 PUSH2 0x440 JUMP JUMPDEST SWAP3 SWAP2 POP POP JUMP JUMPDEST PUSH2 0x475 DUP2 PUSH2 0x3FD JUMP JUMPDEST DUP2 EQ PUSH2 0x480 JUMPI PUSH1 0x0 DUP1 REVERT JUMPDEST POP JUMP JUMPDEST PUSH1 0x0 DUP2 CALLDATALOAD SWAP1 POP PUSH2 0x492 DUP2 PUSH2 0x46C JUMP JUMPDEST SWAP3 SWAP2 POP POP JUMP JUMPDEST PUSH1 0x0 DUP1 PUSH1 0x40 DUP4 DUP6 SUB SLT ISZERO PUSH2 0x4AF JUMPI PUSH2 0x4AE PUSH2 0x431 JUMP JUMPDEST JUMPDEST PUSH1 0x0 PUSH2 0x4BD DUP6 DUP3 DUP7 ADD PUSH2 0x457 JUMP JUMPDEST SWAP3 POP POP PUSH1 0x20 PUSH2 0x4CE DUP6 DUP3 DUP7 ADD PUSH2 0x483 JUMP JUMPDEST SWAP2 POP POP SWAP3 POP SWAP3 SWAP1 POP JUMP JUMPDEST PUSH2 0x4E1 DUP2 PUSH2 0x436 JUMP JUMPDEST DUP3 MSTORE POP POP JUMP JUMPDEST PUSH1 0x0 PUSH1 0x20 DUP3 ADD SWAP1 POP PUSH2 0x4FC PUSH1 0x0 DUP4 ADD DUP5 PUSH2 0x4D8 JUMP JUMPDEST SWAP3 SWAP2 POP POP JUMP JUMPDEST PUSH1 0x0 DUP3 DUP3 MSTORE PUSH1 0x20 DUP3 ADD SWAP1 POP SWAP3 SWAP2 POP POP JUMP JUMPDEST PUSH32 0x4F6E6C7920565246436F6F7264696E61746F722063616E2066756C66696C6C00 PUSH1 0x0 DUP3 ADD MSTORE POP JUMP JUMPDEST PUSH1 0x0 PUSH2 0x549 PUSH1 0x1F DUP4 PUSH2 0x502 JUMP JUMPDEST SWAP2 POP PUSH2 0x554 DUP3 PUSH2 0x513 JUMP JUMPDEST PUSH1 0x20 DUP3 ADD SWAP1 POP SWAP2 SWAP1 POP JUMP JUMPDEST PUSH1 0x0 PUSH1 0x20 DUP3 ADD SWAP1 POP DUP2 DUP2 SUB PUSH1 0x0 DUP4 ADD MSTORE PUSH2 0x578 DUP2 PUSH2 0x53C JUMP JUMPDEST SWAP1 POP SWAP2 SWAP1 POP JUMP JUMPDEST PUSH1 0x0 PUSH20 0xFFFFFFFFFFFFFFFFFFFFFFFFFFFFFFFFFFFFFFFF DUP3 AND SWAP1 POP SWAP2 SWAP1 POP JUMP JUMPDEST PUSH1 0x0 PUSH2 0x5AA DUP3 PUSH2 0x57F JUMP JUMPDEST SWAP1 POP SWAP2 SWAP1 POP JUMP JUMPDEST PUSH2 0x5BA DUP2 PUSH2 0x59F JUMP JUMPDEST DUP3 MSTORE POP POP JUMP JUMPDEST PUSH1 0x0 PUSH1 0x20 DUP3 ADD SWAP1 POP PUSH2 0x5D5 PUSH1 0x0 DUP4 ADD DUP5 PUSH2 0x5B1 JUMP JUMPDEST SWAP3 SWAP2 POP POP JUMP JUMPDEST PUSH1 0x0 DUP2 MLOAD SWAP1 POP PUSH2 0x5EA DUP2 PUSH2 0x46C JUMP JUMPDEST SWAP3 SWAP2 POP POP JUMP JUMPDEST PUSH1 0x0 PUSH1 0x20 DUP3 DUP5 SUB SLT ISZERO PUSH2 0x606 JUMPI PUSH2 0x605 PUSH2 0x431 JUMP JUMPDEST JUMPDEST PUSH1 0x0 PUSH2 0x614 DUP5 DUP3 DUP6 ADD PUSH2 0x5DB JUMP JUMPDEST SWAP2 POP POP SWAP3 SWAP2 POP POP JUMP JUMPDEST PUSH32 0x4E6F7420656E6F756768204C494E4B20696E20636F6E74726163740000000000 PUSH1 0x0 DUP3 ADD MSTORE POP JUMP JUMPDEST PUSH1 0x0 PUSH2 0x653 PUSH1 0x1B DUP4 PUSH2 0x502 JUMP JUMPDEST SWAP2 POP PUSH2 0x65E DUP3 PUSH2 0x61D JUMP JUMPDEST PUSH1 0x20 DUP3 ADD SWAP1 POP SWAP2 SWAP1 POP JUMP JUMPDEST PUSH1 0x0 PUSH1 0x20 DUP3 ADD SWAP1 POP DUP2 DUP2 SUB PUSH1 0x0 DUP4 ADD MSTORE PUSH2 0x682 DUP2 PUSH2 0x646 JUMP JUMPDEST SWAP1 POP SWAP2 SWAP1 POP JUMP JUMPDEST PUSH1 0x0 PUSH1 0x40 DUP3 ADD SWAP1 POP PUSH2 0x69E PUSH1 0x0 DUP4 ADD DUP6 PUSH2 0x4D8 JUMP JUMPDEST PUSH2 0x6AB PUSH1 0x20 DUP4 ADD DUP5 PUSH2 0x407 JUMP JUMPDEST SWAP4 SWAP3 POP POP POP JUMP JUMPDEST PUSH1 0x0 DUP2 MLOAD SWAP1 POP SWAP2 SWAP1 POP JUMP JUMPDEST PUSH1 0x0 DUP3 DUP3 MSTORE PUSH1 0x20 DUP3 ADD SWAP1 POP SWAP3 SWAP2 POP POP JUMP JUMPDEST PUSH1 0x0 JUMPDEST DUP4 DUP2 LT ISZERO PUSH2 0x6EC JUMPI DUP1 DUP3 ADD MLOAD DUP2 DUP5 ADD MSTORE PUSH1 0x20 DUP2 ADD SWAP1 POP PUSH2 0x6D1 JUMP JUMPDEST DUP4 DUP2 GT ISZERO PUSH2 0x6FB JUMPI PUSH1 0x0 DUP5 DUP5 ADD MSTORE JUMPDEST POP POP POP POP JUMP JUMPDEST PUSH1 0x0 PUSH1 0x1F NOT PUSH1 0x1F DUP4 ADD AND SWAP1 POP SWAP2 SWAP1 POP JUMP JUMPDEST PUSH1 0x0 PUSH2 0x71D DUP3 PUSH2 0x6B2 JUMP JUMPDEST PUSH2 0x727 DUP2 DUP6 PUSH2 0x6BD JUMP JUMPDEST SWAP4 POP PUSH2 0x737 DUP2 DUP6 PUSH1 0x20 DUP7 ADD PUSH2 0x6CE JUMP JUMPDEST PUSH2 0x740 DUP2 PUSH2 0x701 JUMP JUMPDEST DUP5 ADD SWAP2 POP POP SWAP3 SWAP2 POP POP JUMP JUMPDEST PUSH1 0x0 PUSH1 0x60 DUP3 ADD SWAP1 POP PUSH2 0x760 PUSH1 0x0 DUP4 ADD DUP7 PUSH2 0x5B1 JUMP JUMPDEST PUSH2 0x76D PUSH1 0x20 DUP4 ADD DUP6 PUSH2 0x407 JUMP JUMPDEST DUP2 DUP2 SUB PUSH1 0x40 DUP4 ADD MSTORE PUSH2 0x77F DUP2 DUP5 PUSH2 0x712 JUMP JUMPDEST SWAP1 POP SWAP5 SWAP4 POP POP POP POP JUMP JUMPDEST PUSH1 0x0 DUP2 ISZERO ISZERO SWAP1 POP SWAP2 SWAP1 POP JUMP JUMPDEST PUSH2 0x79E DUP2 PUSH2 0x789 JUMP JUMPDEST DUP2 EQ PUSH2 0x7A9 JUMPI PUSH1 0x0 DUP1 REVERT JUMPDEST POP JUMP JUMPDEST PUSH1 0x0 DUP2 MLOAD SWAP1 POP PUSH2 0x7BB DUP2 PUSH2 0x795 JUMP JUMPDEST SWAP3 SWAP2 POP POP JUMP JUMPDEST PUSH1 0x0 PUSH1 0x20 DUP3 DUP5 SUB SLT ISZERO PUSH2 0x7D7 JUMPI PUSH2 0x7D6 PUSH2 0x431 JUMP JUMPDEST JUMPDEST PUSH1 0x0 PUSH2 0x7E5 DUP5 DUP3 DUP6 ADD PUSH2 0x7AC JUMP JUMPDEST SWAP2 POP POP SWAP3 SWAP2 POP POP JUMP JUMPDEST PUSH32 0x4E487B7100000000000000000000000000000000000000000000000000000000 PUSH1 0x0 MSTORE PUSH1 0x11 PUSH1 0x4 MSTORE PUSH1 0x24 PUSH1 0x0 REVERT JUMPDEST PUSH1 0x0 PUSH2 0x828 DUP3 PUSH2 0x3FD JUMP JUMPDEST SWAP2 POP PUSH2 0x833 DUP4 PUSH2 0x3FD JUMP JUMPDEST SWAP3 POP DUP3 PUSH32 0xFFFFFFFFFFFFFFFFFFFFFFFFFFFFFFFFFFFFFFFFFFFFFFFFFFFFFFFFFFFFFFFF SUB DUP3 GT ISZERO PUSH2 0x868 JUMPI PUSH2 0x867 PUSH2 0x7EE JUMP JUMPDEST JUMPDEST DUP3 DUP3 ADD SWAP1 POP SWAP3 SWAP2 POP POP JUMP JUMPDEST PUSH1 0x0 PUSH1 0x80 DUP3 ADD SWAP1 POP PUSH2 0x888 PUSH1 0x0 DUP4 ADD DUP8 PUSH2 0x4D8 JUMP JUMPDEST PUSH2 0x895 PUSH1 0x20 DUP4 ADD DUP7 PUSH2 0x407 JUMP JUMPDEST PUSH2 0x8A2 PUSH1 0x40 DUP4 ADD DUP6 PUSH2 0x5B1 JUMP JUMPDEST PUSH2 0x8AF PUSH1 0x60 DUP4 ADD DUP5 PUSH2 0x407 JUMP JUMPDEST SWAP6 SWAP5 POP POP POP POP POP JUMP JUMPDEST PUSH1 0x0 DUP2 SWAP1 POP SWAP2 SWAP1 POP JUMP JUMPDEST PUSH2 0x8D3 PUSH2 0x8CE DUP3 PUSH2 0x436 JUMP JUMPDEST PUSH2 0x8B8 JUMP JUMPDEST DUP3 MSTORE POP POP JUMP JUMPDEST PUSH1 0x0 DUP2 SWAP1 POP SWAP2 SWAP1 POP JUMP JUMPDEST PUSH2 0x8F4 PUSH2 0x8EF DUP3 PUSH2 0x3FD JUMP JUMPDEST PUSH2 0x8D9 JUMP JUMPDEST DUP3 MSTORE POP POP JUMP JUMPDEST PUSH1 0x0 PUSH2 0x906 DUP3 DUP6 PUSH2 0x8C2 JUMP JUMPDEST PUSH1 0x20 DUP3 ADD SWAP2 POP PUSH2 0x916 DUP3 DUP5 PUSH2 0x8E3 JUMP JUMPDEST PUSH1 0x20 DUP3 ADD SWAP2 POP DUP2 SWAP1 POP SWAP4 SWAP3 POP POP POP JUMP INVALID LOG2 PUSH5 0x6970667358 0x22 SLT KECCAK256 0xC4 NUMBER SHR PUSH18 0x7C4C60E7F3C2BB40A57B4A696A750005AC24 SWAP14 0xD2 0xE7 0xBD ISZERO GT PUSH16 0xE7C10F64736F6C634300080D00330000 "
				},
				"gasEstimates": {
					"creation": {
						"codeDepositCost": "479200",
						"executionCost": "infinite",
						"totalCost": "infinite"
					},
					"external": {
						"getRandomNumber()": "infinite",
						"randomResult()": "2407",
						"rawFulfillRandomness(bytes32,uint256)": "infinite"
					},
					"internal": {
						"fulfillRandomness(bytes32,uint256)": "22127"
					}
				},
				"methodIdentifiers": {
					"getRandomNumber()": "dbdff2c1",
					"randomResult()": "42619f66",
					"rawFulfillRandomness(bytes32,uint256)": "94985ddd"
				}
			},
			"storageLayout": {
				"storage": [
					{
						"astId": 79,
						"contract": "contracts/RandomNumber.sol:RandomNumber",
						"label": "nonces",
						"offset": 0,
						"slot": "0",
						"type": "t_mapping(t_bytes32,t_uint256)"
					},
					{
						"astId": 272,
						"contract": "contracts/RandomNumber.sol:RandomNumber",
						"label": "keyHash",
						"offset": 0,
						"slot": "1",
						"type": "t_bytes32"
					},
					{
						"astId": 274,
						"contract": "contracts/RandomNumber.sol:RandomNumber",
						"label": "fee",
						"offset": 0,
						"slot": "2",
						"type": "t_uint256"
					},
					{
						"astId": 276,
						"contract": "contracts/RandomNumber.sol:RandomNumber",
						"label": "randomResult",
						"offset": 0,
						"slot": "3",
						"type": "t_uint256"
					}
				],
				"types": {
					"t_bytes32": {
						"encoding": "inplace",
						"label": "bytes32",
						"numberOfBytes": "32"
					},
					"t_mapping(t_bytes32,t_uint256)": {
						"encoding": "mapping",
						"key": "t_bytes32",
						"label": "mapping(bytes32 => uint256)",
						"numberOfBytes": "32",
						"value": "t_uint256"
					},
					"t_uint256": {
						"encoding": "inplace",
						"label": "uint256",
						"numberOfBytes": "32"
					}
				}
			},
			"userdoc": {
				"kind": "user",
				"methods": {},
				"version": 1
			}
		}
	}
}